{
  "contractName": "AngelAndDemonGame",
  "abi": [
    {
      "inputs": [
        {
          "internalType": "address",
          "name": "andToken",
          "type": "address"
        }
      ],
      "stateMutability": "nonpayable",
      "type": "constructor"
    },
    {
      "anonymous": false,
      "inputs": [
        {
          "indexed": true,
          "internalType": "address",
          "name": "previousOwner",
          "type": "address"
        },
        {
          "indexed": true,
          "internalType": "address",
          "name": "newOwner",
          "type": "address"
        }
      ],
      "name": "OwnershipTransferred",
      "type": "event"
    },
    {
      "inputs": [
        {
          "internalType": "uint256",
          "name": "",
          "type": "uint256"
        }
      ],
      "name": "battles",
      "outputs": [
        {
          "internalType": "uint256",
          "name": "index",
          "type": "uint256"
        },
        {
          "components": [
            {
              "internalType": "address",
              "name": "player",
              "type": "address"
            },
            {
              "internalType": "uint256[]",
              "name": "MonsterCardId",
              "type": "uint256[]"
            },
            {
              "internalType": "uint256",
              "name": "ManaPoint",
              "type": "uint256"
            },
            {
              "internalType": "uint256",
              "name": "LifePoint",
              "type": "uint256"
            },
            {
              "internalType": "uint256[]",
              "name": "SpellCardId",
              "type": "uint256[]"
            },
            {
              "internalType": "uint256[]",
              "name": "EquipCardId",
              "type": "uint256[]"
            },
            {
              "internalType": "uint256",
              "name": "FieldCardId",
              "type": "uint256"
            },
            {
              "internalType": "uint256",
              "name": "LastResortCardId",
              "type": "uint256"
            }
          ],
          "internalType": "struct AngelAndDemonGame.BattlePlayer",
          "name": "player1",
          "type": "tuple"
        },
        {
          "components": [
            {
              "internalType": "address",
              "name": "player",
              "type": "address"
            },
            {
              "internalType": "uint256[]",
              "name": "MonsterCardId",
              "type": "uint256[]"
            },
            {
              "internalType": "uint256",
              "name": "ManaPoint",
              "type": "uint256"
            },
            {
              "internalType": "uint256",
              "name": "LifePoint",
              "type": "uint256"
            },
            {
              "internalType": "uint256[]",
              "name": "SpellCardId",
              "type": "uint256[]"
            },
            {
              "internalType": "uint256[]",
              "name": "EquipCardId",
              "type": "uint256[]"
            },
            {
              "internalType": "uint256",
              "name": "FieldCardId",
              "type": "uint256"
            },
            {
              "internalType": "uint256",
              "name": "LastResortCardId",
              "type": "uint256"
            }
          ],
          "internalType": "struct AngelAndDemonGame.BattlePlayer",
          "name": "player2",
          "type": "tuple"
        },
        {
          "internalType": "address",
          "name": "winner",
          "type": "address"
        },
        {
          "internalType": "bool",
          "name": "ended",
          "type": "bool"
        },
        {
          "internalType": "uint256",
          "name": "createdAt",
          "type": "uint256"
        },
        {
          "internalType": "uint256",
          "name": "playerstate",
          "type": "uint256"
        },
        {
          "internalType": "uint256",
          "name": "gameTurn",
          "type": "uint256"
        }
      ],
      "stateMutability": "view",
      "type": "function"
    },
    {
      "inputs": [
        {
          "internalType": "address",
          "name": "",
          "type": "address"
        }
      ],
      "name": "cardChecks",
      "outputs": [
        {
          "internalType": "uint256",
          "name": "FieldCardCheck",
          "type": "uint256"
        },
        {
          "internalType": "uint256",
          "name": "LastResortCardCheck",
          "type": "uint256"
        }
      ],
      "stateMutability": "view",
      "type": "function"
    },
    {
      "inputs": [
        {
          "internalType": "address",
          "name": "",
          "type": "address"
        },
        {
          "internalType": "uint256",
          "name": "",
          "type": "uint256"
        }
      ],
      "name": "equipCardList",
      "outputs": [
        {
          "internalType": "uint256",
          "name": "",
          "type": "uint256"
        }
      ],
      "stateMutability": "view",
      "type": "function"
    },
    {
      "inputs": [
        {
          "internalType": "address",
          "name": "",
          "type": "address"
        },
        {
          "internalType": "uint256",
          "name": "",
          "type": "uint256"
        }
      ],
      "name": "monsterList",
      "outputs": [
        {
          "internalType": "uint256",
          "name": "",
          "type": "uint256"
        }
      ],
      "stateMutability": "view",
      "type": "function"
    },
    {
      "inputs": [
        {
          "internalType": "address",
          "name": "",
          "type": "address"
        },
        {
          "internalType": "uint256",
          "name": "",
          "type": "uint256"
        }
      ],
      "name": "monsters",
      "outputs": [
        {
          "internalType": "uint256",
          "name": "attackPoint",
          "type": "uint256"
        },
        {
          "internalType": "uint256",
          "name": "defensePoint",
          "type": "uint256"
        },
        {
          "internalType": "uint256",
          "name": "manaCost",
          "type": "uint256"
        }
      ],
      "stateMutability": "view",
      "type": "function"
    },
    {
      "inputs": [],
      "name": "owner",
      "outputs": [
        {
          "internalType": "address",
          "name": "",
          "type": "address"
        }
      ],
      "stateMutability": "view",
      "type": "function"
    },
    {
      "inputs": [],
      "name": "renounceOwnership",
      "outputs": [],
      "stateMutability": "nonpayable",
      "type": "function"
    },
    {
      "inputs": [
        {
          "internalType": "address",
          "name": "",
          "type": "address"
        },
        {
          "internalType": "uint256",
          "name": "",
          "type": "uint256"
        }
      ],
      "name": "spellCardList",
      "outputs": [
        {
          "internalType": "uint256",
          "name": "",
          "type": "uint256"
        }
      ],
      "stateMutability": "view",
      "type": "function"
    },
    {
      "inputs": [
        {
          "internalType": "address",
          "name": "newOwner",
          "type": "address"
        }
      ],
      "name": "transferOwnership",
      "outputs": [],
      "stateMutability": "nonpayable",
      "type": "function"
    },
    {
      "inputs": [
        {
          "internalType": "uint256",
          "name": "_monsterId",
          "type": "uint256"
        },
        {
          "internalType": "uint256",
          "name": "attackPoint",
          "type": "uint256"
        },
        {
          "internalType": "uint256",
          "name": "defensePoint",
          "type": "uint256"
        },
        {
          "internalType": "uint256",
          "name": "manaCost",
          "type": "uint256"
        }
      ],
      "name": "addMonster",
      "outputs": [],
      "stateMutability": "nonpayable",
      "type": "function"
    },
    {
      "inputs": [
        {
          "internalType": "uint256[]",
          "name": "_p1MonsterCardId",
          "type": "uint256[]"
        },
        {
          "internalType": "uint256",
          "name": "_p1ManaPoint",
          "type": "uint256"
        },
        {
          "internalType": "uint256",
          "name": "_p1LifePoint",
          "type": "uint256"
        },
        {
          "internalType": "uint256[]",
          "name": "_p1SpellCardId",
          "type": "uint256[]"
        },
        {
          "internalType": "uint256[]",
          "name": "_p1EquipCardId",
          "type": "uint256[]"
        },
        {
          "internalType": "uint256",
          "name": "_p1FieldCardId",
          "type": "uint256"
        },
        {
          "internalType": "uint256",
          "name": "_p1LastResortCardId",
          "type": "uint256"
        }
      ],
      "name": "createBattle",
      "outputs": [
        {
          "internalType": "uint256",
          "name": "ind",
          "type": "uint256"
        }
      ],
      "stateMutability": "payable",
      "type": "function"
    },
    {
      "inputs": [
        {
          "internalType": "uint256",
          "name": "_battleId",
          "type": "uint256"
        },
        {
          "internalType": "uint256[]",
          "name": "_p2MonsterCardId",
          "type": "uint256[]"
        },
        {
          "internalType": "uint256",
          "name": "_p2ManaPoint",
          "type": "uint256"
        },
        {
          "internalType": "uint256",
          "name": "_p2LifePoint",
          "type": "uint256"
        },
        {
          "internalType": "uint256[]",
          "name": "_p2SpellCardId",
          "type": "uint256[]"
        },
        {
          "internalType": "uint256[]",
          "name": "_p2EquipCardId",
          "type": "uint256[]"
        },
        {
          "internalType": "uint256",
          "name": "_p2FieldCardId",
          "type": "uint256"
        },
        {
          "internalType": "uint256",
          "name": "_p2LastResortCardId",
          "type": "uint256"
        }
      ],
      "name": "acceptBattle",
      "outputs": [],
      "stateMutability": "payable",
      "type": "function"
    },
    {
      "inputs": [
        {
          "internalType": "uint256",
          "name": "_battleId",
          "type": "uint256"
        }
      ],
      "name": "endBattle",
      "outputs": [],
      "stateMutability": "nonpayable",
      "type": "function"
    },
    {
      "inputs": [
        {
          "internalType": "uint256",
          "name": "_battleId",
          "type": "uint256"
        }
      ],
      "name": "cancelBattle",
      "outputs": [],
      "stateMutability": "nonpayable",
      "type": "function"
    },
    {
      "inputs": [],
      "name": "getBattlesCount",
      "outputs": [
        {
          "internalType": "uint256",
          "name": "",
          "type": "uint256"
        }
      ],
      "stateMutability": "view",
      "type": "function"
    },
    {
      "inputs": [
        {
          "internalType": "uint256",
          "name": "_battleId",
          "type": "uint256"
        }
      ],
      "name": "getplayerState",
      "outputs": [
        {
          "internalType": "uint256",
          "name": "",
          "type": "uint256"
        }
      ],
      "stateMutability": "view",
      "type": "function"
    },
    {
      "inputs": [
        {
          "internalType": "uint256",
          "name": "_battleId",
          "type": "uint256"
        },
        {
          "internalType": "uint256",
          "name": "_setLifePoint",
          "type": "uint256"
        }
      ],
      "name": "setLifepoint",
      "outputs": [],
      "stateMutability": "nonpayable",
      "type": "function"
    },
    {
      "inputs": [
        {
          "internalType": "address",
          "name": "monsterOwner",
          "type": "address"
        }
      ],
      "name": "getMonsterListInBattle",
      "outputs": [
        {
          "internalType": "uint256[]",
          "name": "",
          "type": "uint256[]"
        }
      ],
      "stateMutability": "view",
      "type": "function"
    },
    {
      "inputs": [
        {
          "internalType": "address",
          "name": "spellCardOwner",
          "type": "address"
        }
      ],
      "name": "getSpellListInBattle",
      "outputs": [
        {
          "internalType": "uint256[]",
          "name": "",
          "type": "uint256[]"
        }
      ],
      "stateMutability": "view",
      "type": "function"
    },
    {
      "inputs": [
        {
          "internalType": "address",
          "name": "equipCardOwner",
          "type": "address"
        }
      ],
      "name": "getEquipListInBattle",
      "outputs": [
        {
          "internalType": "uint256[]",
          "name": "",
          "type": "uint256[]"
        }
      ],
      "stateMutability": "view",
      "type": "function"
    },
    {
      "inputs": [
        {
          "internalType": "uint256[][]",
          "name": "_MonsterCardCheck",
          "type": "uint256[][]"
        },
        {
          "internalType": "uint256[][]",
          "name": "_SpellCardCheck",
          "type": "uint256[][]"
        },
        {
          "internalType": "uint256[][]",
          "name": "_EquipCardCheck",
          "type": "uint256[][]"
        },
        {
          "internalType": "uint256",
          "name": "_FieldCardCheck",
          "type": "uint256"
        },
        {
          "internalType": "uint256",
          "name": "_LastResortCardCheck",
          "type": "uint256"
        }
      ],
      "name": "setCardCheck",
      "outputs": [],
      "stateMutability": "nonpayable",
      "type": "function"
    },
    {
      "inputs": [
        {
          "internalType": "uint256",
          "name": "_battleId",
          "type": "uint256"
        }
      ],
      "name": "battleMission",
      "outputs": [],
      "stateMutability": "nonpayable",
      "type": "function"
    },
    {
      "inputs": [
        {
          "internalType": "uint256",
          "name": "_battleId",
          "type": "uint256"
        }
      ],
      "name": "canUseLastResortCard",
      "outputs": [
        {
          "internalType": "bool",
          "name": "",
          "type": "bool"
        }
      ],
      "stateMutability": "view",
      "type": "function"
    },
    {
      "inputs": [
        {
          "internalType": "address",
          "name": "monsterOwner",
          "type": "address"
        }
      ],
      "name": "sumTotalAttack",
      "outputs": [
        {
          "internalType": "uint256",
          "name": "",
          "type": "uint256"
        }
      ],
      "stateMutability": "view",
      "type": "function"
    },
    {
      "inputs": [
        {
          "internalType": "address",
          "name": "monsterOwner",
          "type": "address"
        }
      ],
      "name": "sumTotalDefense",
      "outputs": [
        {
          "internalType": "uint256",
          "name": "",
          "type": "uint256"
        }
      ],
      "stateMutability": "view",
      "type": "function"
    },
    {
      "inputs": [],
      "name": "_ownerOfContract",
      "outputs": [
        {
          "internalType": "address",
          "name": "",
          "type": "address"
        }
      ],
      "stateMutability": "view",
      "type": "function"
    }
  ],
  "bytecode": "0x60806040523480156200001157600080fd5b50604051620028c0380380620028c08339810160408190526200003491620001f4565b6200003f33620000fe565b60026001819055606490556040805180820190915260138082527f416e67656c73416e6444656d6f6e7347616d6500000000000000000000000000602090920191825262000090916004916200014e565b506040805180820190915260148082527f414e47454c5f414e445f44454d4f4e5f47414d450000000000000000000000006020909201918252620000d7916005916200014e565b50600f80546001600160a01b0319166001600160a01b039290921691909117905562000263565b600080546001600160a01b038381166001600160a01b0319831681178455604051919092169283917f8be0079c531659141344cd1fd0a4f28419497f9722a3daafe3b4186f6b6457e09190a35050565b8280546200015c9062000226565b90600052602060002090601f016020900481019282620001805760008555620001cb565b82601f106200019b57805160ff1916838001178555620001cb565b82800160010185558215620001cb579182015b82811115620001cb578251825591602001919060010190620001ae565b50620001d9929150620001dd565b5090565b5b80821115620001d95760008155600101620001de565b6000602082840312156200020757600080fd5b81516001600160a01b03811681146200021f57600080fd5b9392505050565b600181811c908216806200023b57607f821691505b602082108114156200025d57634e487b7160e01b600052602260045260246000fd5b50919050565b61264d80620002736000396000f3fe6080604052600436106101815760003560e01c80637d353a20116100d1578063be692c5a1161008a578063da208bd811610064578063da208bd81461049c578063e3d3736b146104bc578063e74d4b07146104dc578063f2fde38b1461053e57600080fd5b8063be692c5a14610449578063cb4b36d71461045c578063cba070a81461047c57600080fd5b80637d353a201461036a578063862facc01461038a5780638da5cb5b146103aa5780639cc429dc146103c8578063a72b19d1146103dd578063ae62a5dc1461042957600080fd5b80634bbcaf521161013e5780635b4e1a30116101185780635b4e1a30146102e1578063606d2e96146103015780636da4ade414610335578063715018a61461035557600080fd5b80634bbcaf521461026f5780634c4c447e1461028f57806356ee0337146102af57600080fd5b806301b66b691461018657806309bbecd6146101bc5780630a7e85a3146101ec5780631549cdba1461021a5780631e1efbc91461023a5780634157e6ef1461024f575b600080fd5b34801561019257600080fd5b506101a66101a1366004612003565b61055e565b6040516101b39190612020565b60405180910390f35b3480156101c857600080fd5b506101dc6101d7366004612064565b6105ca565b60405190151581526020016101b3565b3480156101f857600080fd5b5061020c61020736600461207d565b61060e565b6040519081526020016101b3565b34801561022657600080fd5b5061020c610235366004612003565b61063f565b61024d61024836600461217f565b61072e565b005b34801561025b57600080fd5b5061024d61026a366004612064565b610b96565b34801561027b57600080fd5b5061020c61028a36600461207d565b610bd3565b34801561029b57600080fd5b5061024d6102aa366004612064565b610bef565b3480156102bb57600080fd5b506000546001600160a01b03165b6040516001600160a01b0390911681526020016101b3565b3480156102ed57600080fd5b5061024d6102fc366004612238565b610c2d565b34801561030d57600080fd5b5061032161031c366004612064565b610d1f565b6040516101b3989796959493929190612336565b34801561034157600080fd5b5061024d610350366004612399565b611014565b34801561036157600080fd5b5061024d611090565b34801561037657600080fd5b5061020c61038536600461207d565b6110fb565b34801561039657600080fd5b5061020c6103a5366004612003565b611117565b3480156103b657600080fd5b506000546001600160a01b03166102c9565b3480156103d457600080fd5b50600e5461020c565b3480156103e957600080fd5b506104146103f8366004612003565b600d602052600090815260409020600381015460049091015482565b604080519283526020830191909152016101b3565b34801561043557600080fd5b5061020c610444366004612064565b6111ff565b61020c6104573660046123bb565b611230565b34801561046857600080fd5b506101a6610477366004612003565b6118d1565b34801561048857600080fd5b5061024d610497366004612064565b61193b565b3480156104a857600080fd5b506101a66104b7366004612003565b611a97565b3480156104c857600080fd5b5061024d6104d73660046124ea565b611b01565b3480156104e857600080fd5b506105236104f736600461207d565b600960209081526000928352604080842090915290825290208054600182015460029092015490919083565b604080519384526020840192909252908201526060016101b3565b34801561054a57600080fd5b5061024d610559366004612003565b611e73565b6001600160a01b0381166000908152600c60209081526040918290208054835181840281018401909452808452606093928301828280156105be57602002820191906000526020600020905b8154815260200190600101908083116105aa575b50505050509050919050565b600080600e83815481106105e0576105e0612584565b90600052602060002090601502019050600581601401541015610604576000610607565b60015b9392505050565b600b602052816000526040600020818154811061062a57600080fd5b90600052602060002001600091509150505481565b600080805b6001600160a01b0384166000908152600d6020526040902054811015610727576001600160a01b0384166000908152600d60205260408120805460069183918590811061069357610693612584565b90600052602060002001548152602001908152602001600020541115610715576001600160a01b0384166000908152600960209081526040808320600d90925282208054919291849081106106ea576106ea612584565b90600052602060002001548152602001908152602001600020600101548261071291906125b0565b91505b8061071f816125c8565b915050610644565b5092915050565b6000341161073b57600080fd5b60005b875181101561080b57600f54885133916001600160a01b031690636352211e908b908590811061077057610770612584565b60200260200101516040518263ffffffff1660e01b815260040161079691815260200190565b60206040518083038186803b1580156107ae57600080fd5b505afa1580156107c2573d6000803e3d6000fd5b505050506040513d601f19601f820116820180604052508101906107e691906125e3565b6001600160a01b0316146107f957600080fd5b80610803816125c8565b91505061073e565b5060005b87518110156108dc57600f54855133916001600160a01b031690636352211e9088908590811061084157610841612584565b60200260200101516040518263ffffffff1660e01b815260040161086791815260200190565b60206040518083038186803b15801561087f57600080fd5b505afa158015610893573d6000803e3d6000fd5b505050506040513d601f19601f820116820180604052508101906108b791906125e3565b6001600160a01b0316146108ca57600080fd5b806108d4816125c8565b91505061080f565b5060005b87518110156109ad57600f54845133916001600160a01b031690636352211e9087908590811061091257610912612584565b60200260200101516040518263ffffffff1660e01b815260040161093891815260200190565b60206040518083038186803b15801561095057600080fd5b505afa158015610964573d6000803e3d6000fd5b505050506040513d601f19601f8201168201806040525081019061098891906125e3565b6001600160a01b03161461099b57600080fd5b806109a5816125c8565b9150506108e0565b600f546040516331a9108f60e11b81526004810185905233916001600160a01b031690636352211e9060240160206040518083038186803b1580156109f157600080fd5b505afa158015610a05573d6000803e3d6000fd5b505050506040513d601f19601f82011682018060405250810190610a2991906125e3565b6001600160a01b031614610a3c57600080fd5b600f546040516331a9108f60e11b81526004810184905233916001600160a01b031690636352211e9060240160206040518083038186803b158015610a8057600080fd5b505afa158015610a94573d6000803e3d6000fd5b505050506040513d601f19601f82011682018060405250810190610ab891906125e3565b6001600160a01b031614610acb57600080fd5b6000600e8a81548110610ae057610ae0612584565b6000918252602091829020600960159092020190810180546001600160a01b031916331790558a51909250610b1d91600a840191908c0190611f8e565b50600b8101889055600c81018790558551610b4190600d8301906020890190611f8e565b508451610b5790600e8301906020880190611f8e565b50600f810184905560108101839055601481018054906000610b78836125c8565b90915550506003805460ff1916600117905550505050505050505050565b6000600e8281548110610bab57610bab612584565b60009182526020909120601160159092020101805460ff60a01b1916600160a01b1790555050565b600c602052816000526040600020818154811061062a57600080fd5b600e8181548110610c0257610c02612584565b90600052602060002090601502016012015462015180610c2291906125b0565b4211610b9657600080fd5b600f546040516331a9108f60e11b81526004810186905233916001600160a01b031690636352211e9060240160206040518083038186803b158015610c7157600080fd5b505afa158015610c85573d6000803e3d6000fd5b505050506040513d601f19601f82011682018060405250810190610ca991906125e3565b6001600160a01b031614610cbc57600080fd5b6040805160608101825293845260208085019384528482019283523360008181526009835283812088825283528381209651875594516001808801919091559351600290960195909555938352600a845282208054918201815582529190200155565b600e8181548110610d2f57600080fd5b6000918252602091829020601590910201805460408051610100810182526001840180546001600160a01b031682526002850180548451818902810189019095528085529497509495919490938583019392830182828015610db057602002820191906000526020600020905b815481526020019060010190808311610d9c575b50505050508152602001600282015481526020016003820154815260200160048201805480602002602001604051908101604052809291908181526020018280548015610e1c57602002820191906000526020600020905b815481526020019060010190808311610e08575b5050505050815260200160058201805480602002602001604051908101604052809291908181526020018280548015610e7457602002820191906000526020600020905b815481526020019060010190808311610e60575b505050918352505060068201546020808301919091526007909201546040918201528051610100810182526009850180546001600160a01b03168252600a8601805484518187028101870190955280855295969592949193858301939092830182828015610f0157602002820191906000526020600020905b815481526020019060010190808311610eed575b50505050508152602001600282015481526020016003820154815260200160048201805480602002602001604051908101604052809291908181526020018280548015610f6d57602002820191906000526020600020905b815481526020019060010190808311610f59575b5050505050815260200160058201805480602002602001604051908101604052809291908181526020018280548015610fc557602002820191906000526020600020905b815481526020019060010190808311610fb1575b50505091835250506006820154602082015260079091015460409091015260118201546012830154601384015460149094015492936001600160a01b03831693600160a01b90930460ff169288565b6000600e838154811061102957611029612584565b600091825260209091206001601590920201908101549091506001600160a01b0316331480611064575060098101546001600160a01b031633145b61106d57600080fd5b60018101546001600160a01b0316331415611089576004015550565b600c015550565b6000546001600160a01b031633146110ef5760405162461bcd60e51b815260206004820181905260248201527f4f776e61626c653a2063616c6c6572206973206e6f7420746865206f776e657260448201526064015b60405180910390fd5b6110f96000611f3e565b565b600a602052816000526040600020818154811061062a57600080fd5b600080805b6001600160a01b0384166000908152600d6020526040902054811015610727576001600160a01b0384166000908152600d60205260408120805460069183918590811061116b5761116b612584565b906000526020600020015481526020019081526020016000205411156111ed576001600160a01b0384166000908152600960209081526040808320600d90925282208054919291849081106111c2576111c2612584565b9060005260206000200154815260200190815260200160002060000154826111ea91906125b0565b91505b806111f7816125c8565b91505061111c565b600080600e838154811061121557611215612584565b60009182526020909120601360159092020101549392505050565b600080341161123e57600080fd5b60005b885181101561130e57600f54895133916001600160a01b031690636352211e908c908590811061127357611273612584565b60200260200101516040518263ffffffff1660e01b815260040161129991815260200190565b60206040518083038186803b1580156112b157600080fd5b505afa1580156112c5573d6000803e3d6000fd5b505050506040513d601f19601f820116820180604052508101906112e991906125e3565b6001600160a01b0316146112fc57600080fd5b80611306816125c8565b915050611241565b5060005b88518110156113df57600f54865133916001600160a01b031690636352211e9089908590811061134457611344612584565b60200260200101516040518263ffffffff1660e01b815260040161136a91815260200190565b60206040518083038186803b15801561138257600080fd5b505afa158015611396573d6000803e3d6000fd5b505050506040513d601f19601f820116820180604052508101906113ba91906125e3565b6001600160a01b0316146113cd57600080fd5b806113d7816125c8565b915050611312565b5060005b88518110156114b057600f54855133916001600160a01b031690636352211e9088908590811061141557611415612584565b60200260200101516040518263ffffffff1660e01b815260040161143b91815260200190565b60206040518083038186803b15801561145357600080fd5b505afa158015611467573d6000803e3d6000fd5b505050506040513d601f19601f8201168201806040525081019061148b91906125e3565b6001600160a01b03161461149e57600080fd5b806114a8816125c8565b9150506113e3565b600f546040516331a9108f60e11b81526004810186905233916001600160a01b031690636352211e9060240160206040518083038186803b1580156114f457600080fd5b505afa158015611508573d6000803e3d6000fd5b505050506040513d601f19601f8201168201806040525081019061152c91906125e3565b6001600160a01b03161461153f57600080fd5b600f546040516331a9108f60e11b81526004810185905233916001600160a01b031690636352211e9060240160206040518083038186803b15801561158357600080fd5b505afa158015611597573d6000803e3d6000fd5b505050506040513d601f19601f820116820180604052508101906115bb91906125e3565b6001600160a01b0316146115ce57600080fd5b600e546060805160009082906115e2612584565b6020026020010181815250506000600360006101000a81548160ff021916908315150217905550600e604051806101000160405280848152602001604051806101000160405280336001600160a01b031681526020018f81526020018e81526020018d81526020018c81526020018b81526020018a815260200189815250815260200160405180610100016040528060006001600160a01b031681526020018581526020016000815260200160008152602001858152602001858152602001600081526020016000815250815260200160006001600160a01b0316815260200160001515815260200142815260200160018152602001600081525090806001815401808255809150506001900390600052602060002090601502016000909190919091506000820151816000015560208201518160010160008201518160000160006101000a8154816001600160a01b0302191690836001600160a01b031602179055506020820151816001019080519060200190611762929190611f8e565b50604082015160028201556060820151600382015560808201518051611792916004840191602090910190611f8e565b5060a082015180516117ae916005840191602090910190611f8e565b5060c0820151600682015560e090910151600790910155604082015180516009830180546001600160a01b0319166001600160a01b03909216919091178155602080830151805161180592600a8701920190611f8e565b50604082015160028201556060820151600382015560808201518051611835916004840191602090910190611f8e565b5060a08201518051611851916005840191602090910190611f8e565b5060c082810151600683015560e092830151600790920191909155606084015160118401805460808701511515600160a01b026001600160a81b03199091166001600160a01b039093169290921791909117905560a084015160128401558301516013830155919091015160149091015550915050979650505050505050565b6001600160a01b0381166000908152600b60209081526040918290208054835181840281018401909452808452606093928301828280156105be57602002820191906000526020600020908154815260200190600101908083116105aa5750505050509050919050565b6000600e828154811061195057611950612584565b906000526020600020906015020190506000816013015411156119e8576001810154611984906001600160a01b031661063f565b600982015461199b906001600160a01b0316611117565b10156119a657600080fd5b60018101546119bd906001600160a01b031661063f565b60098201546119d4906001600160a01b0316611117565b6119de9190612600565b6004820155611a5f565b60098101546119ff906001600160a01b031661063f565b6001820154611a16906001600160a01b0316611117565b1015611a2157600080fd5b6009810154611a38906001600160a01b031661063f565b6001820154611a4f906001600160a01b0316611117565b611a599190612600565b600c8201555b6013810154611a6f906001612600565b6013820181905515611a9357601481018054906000611a8d836125c8565b91905055505b5050565b6001600160a01b0381166000908152600a60209081526040918290208054835181840281018401909452808452606093928301828280156105be57602002820191906000526020600020908154815260200190600101908083116105aa5750505050509050919050565b6000606080805b8851841015611bf257888481518110611b2357611b23612584565b6020026020010151600181518110611b3d57611b3d612584565b6020026020010151600660008b8781518110611b5b57611b5b612584565b6020026020010151600081518110611b7557611b75612584565b6020026020010151815260200190815260200160002081905550888481518110611ba157611ba1612584565b6020026020010151600081518110611bbb57611bbb612584565b6020026020010151838581518110611bd557611bd5612584565b602090810291909101015283611bea816125c8565b945050611b08565b600093505b8751841015611ce157878481518110611c1257611c12612584565b6020026020010151600181518110611c2c57611c2c612584565b6020026020010151600760008a8781518110611c4a57611c4a612584565b6020026020010151600081518110611c6457611c64612584565b6020026020010151815260200190815260200160002081905550878481518110611c9057611c90612584565b6020026020010151600081518110611caa57611caa612584565b6020026020010151828581518110611cc457611cc4612584565b602090810291909101015283611cd9816125c8565b945050611bf7565b600093505b8651841015611dd057868481518110611d0157611d01612584565b6020026020010151600181518110611d1b57611d1b612584565b602002602001015160086000898781518110611d3957611d39612584565b6020026020010151600081518110611d5357611d53612584565b6020026020010151815260200190815260200160002081905550868481518110611d7f57611d7f612584565b6020026020010151600081518110611d9957611d99612584565b6020026020010151818581518110611db357611db3612584565b602090810291909101015283611dc8816125c8565b945050611ce6565b6040805160a08101825284815260208082018590528183018490526060820189905260808201889052336000908152600d8252929092208151805192939192611e1c9284920190611f8e565b506020828101518051611e359260018501920190611f8e565b5060408201518051611e51916002840191602090910190611f8e565b5060608201516003820155608090910151600490910155505050505050505050565b6000546001600160a01b03163314611ecd5760405162461bcd60e51b815260206004820181905260248201527f4f776e61626c653a2063616c6c6572206973206e6f7420746865206f776e657260448201526064016110e6565b6001600160a01b038116611f325760405162461bcd60e51b815260206004820152602660248201527f4f776e61626c653a206e6577206f776e657220697320746865207a65726f206160448201526564647265737360d01b60648201526084016110e6565b611f3b81611f3e565b50565b600080546001600160a01b038381166001600160a01b0319831681178455604051919092169283917f8be0079c531659141344cd1fd0a4f28419497f9722a3daafe3b4186f6b6457e09190a35050565b828054828255906000526020600020908101928215611fc9579160200282015b82811115611fc9578251825591602001919060010190611fae565b50611fd5929150611fd9565b5090565b5b80821115611fd55760008155600101611fda565b6001600160a01b0381168114611f3b57600080fd5b60006020828403121561201557600080fd5b813561060781611fee565b6020808252825182820181905260009190848201906040850190845b818110156120585783518352928401929184019160010161203c565b50909695505050505050565b60006020828403121561207657600080fd5b5035919050565b6000806040838503121561209057600080fd5b823561209b81611fee565b946020939093013593505050565b634e487b7160e01b600052604160045260246000fd5b604051601f8201601f1916810167ffffffffffffffff811182821017156120e8576120e86120a9565b604052919050565b600067ffffffffffffffff82111561210a5761210a6120a9565b5060051b60200190565b600082601f83011261212557600080fd5b8135602061213a612135836120f0565b6120bf565b82815260059290921b8401810191818101908684111561215957600080fd5b8286015b84811015612174578035835291830191830161215d565b509695505050505050565b600080600080600080600080610100898b03121561219c57600080fd5b88359750602089013567ffffffffffffffff808211156121bb57600080fd5b6121c78c838d01612114565b985060408b0135975060608b0135965060808b01359150808211156121eb57600080fd5b6121f78c838d01612114565b955060a08b013591508082111561220d57600080fd5b5061221a8b828c01612114565b93505060c0890135915060e089013590509295985092959890939650565b6000806000806080858703121561224e57600080fd5b5050823594602084013594506040840135936060013592509050565b600081518084526020808501945080840160005b8381101561229a5781518752958201959082019060010161227e565b509495945050505050565b600061010060018060a01b03835116845260208301518160208601526122cd8286018261226a565b9150506040830151604085015260608301516060850152608083015184820360808601526122fb828261226a565b91505060a083015184820360a0860152612315828261226a565b91505060c083015160c085015260e083015160e08501528091505092915050565b60006101008a83528060208401526123508184018b6122a5565b90508281036040840152612364818a6122a5565b6001600160a01b039890981660608401525050931515608085015260a084019290925260c083015260e0909101529392505050565b600080604083850312156123ac57600080fd5b50508035926020909101359150565b600080600080600080600060e0888a0312156123d657600080fd5b873567ffffffffffffffff808211156123ee57600080fd5b6123fa8b838c01612114565b985060208a0135975060408a0135965060608a013591508082111561241e57600080fd5b61242a8b838c01612114565b955060808a013591508082111561244057600080fd5b5061244d8a828b01612114565b93505060a0880135915060c0880135905092959891949750929550565b600082601f83011261247b57600080fd5b8135602061248b612135836120f0565b82815260059290921b840181019181810190868411156124aa57600080fd5b8286015b8481101561217457803567ffffffffffffffff8111156124ce5760008081fd5b6124dc8986838b0101612114565b8452509183019183016124ae565b600080600080600060a0868803121561250257600080fd5b853567ffffffffffffffff8082111561251a57600080fd5b61252689838a0161246a565b9650602088013591508082111561253c57600080fd5b61254889838a0161246a565b9550604088013591508082111561255e57600080fd5b5061256b8882890161246a565b9598949750949560608101359550608001359392505050565b634e487b7160e01b600052603260045260246000fd5b634e487b7160e01b600052601160045260246000fd5b600082198211156125c3576125c361259a565b500190565b60006000198214156125dc576125dc61259a565b5060010190565b6000602082840312156125f557600080fd5b815161060781611fee565b6000828210156126125761261261259a565b50039056fea2646970667358221220514af2097f0fd7876ffbddf02131a7fc0c176af76db9f9f6c30c7ae6acd91d5164736f6c63430008090033",
  "immutableReferences": {},
  "source": "// SPDX-License-Identifier: MIT\r\n\r\npragma solidity ^0.8.0;\r\n\r\nimport \"@openzeppelin/contracts/access/Ownable.sol\";\r\nimport './AngelAndDemonToken.sol';\r\n\r\ncontract AngelAndDemonGame is Ownable {\r\n    uint private _manaPoint;\r\n    uint private _lifePoint;\r\n    //uint gameTurn;\r\n    bool battleStart;\r\n    string private _name;\r\n\r\n    // Token symbol\r\n    string private _symbol;\r\n    struct Monster {\r\n        uint attackPoint;\r\n        uint defensePoint;\r\n        uint manaCost;\r\n    }\r\n    struct BattlePlayer {\r\n        address player;\r\n        uint[] MonsterCardId;\r\n        uint ManaPoint;\r\n        uint LifePoint;\r\n        uint[] SpellCardId;\r\n        uint[] EquipCardId;\r\n        uint FieldCardId;\r\n        uint LastResortCardId;\r\n    }\r\n    struct Battle {\r\n        uint index;\r\n        BattlePlayer player1;\r\n        //add fee and other variable\r\n        BattlePlayer player2;\r\n        //add fee and other variable\r\n        \r\n        address winner;\r\n        bool ended;\r\n        uint createdAt;\r\n        uint playerstate;//0->p1 attack, 1->p2 attack\r\n        uint gameTurn;\r\n    }\r\n\r\n    // mapping (address => mapping (uint => Monster)) public monsters;\r\n    // mapping (address => uint[]) public monsterList;\r\n    // mapping (address => uint[]) public spellCardList;\r\n    // mapping (address => uint[]) public equipCardList;\r\n\r\n    // mapping (address =>mapping (uint => uint)) MonsterCardCheck;\r\n    // mapping (address =>mapping (uint => uint)) SpellCardCheck;\r\n    // mapping (address =>mapping (uint => uint)) EquipCardCheck;\r\n    // mapping (address => uint) FieldCardCheck;\r\n    // mapping (address => uint) LastResortCardCheck;\r\n    mapping (uint => uint) monsterCardCheck;\r\n    mapping (uint => uint) spellCardCheck;\r\n    mapping (uint => uint) equipCardCheck;\r\n    struct CardCheck {// if 0 then don't use, 1 then use;\r\n        uint[] MonsterCardIds;\r\n        uint[] SpellCardIds;\r\n        uint[] EquipCardIds;\r\n        uint FieldCardCheck;\r\n        uint LastResortCardCheck;        \r\n    }\r\n\r\n    mapping (address => mapping (uint => Monster)) public monsters;\r\n    mapping (address => uint[]) public monsterList;\r\n    mapping (address => uint[]) public spellCardList;\r\n    mapping (address => uint[]) public equipCardList;\r\n    mapping (address => CardCheck) public cardChecks;\r\n    //Monster[] public monsters;\r\n    Battle[] public battles;\r\n    AngelAndDemonToken angelAndDemonToken;\r\n\r\n    constructor(address andToken) { \r\n        _manaPoint = 2;\r\n        _lifePoint = 100;\r\n        _name = \"AngelsAndDemonsGame\";\r\n        _symbol = \"ANGEL_AND_DEMON_GAME\";\r\n        angelAndDemonToken = AngelAndDemonToken(andToken);\r\n    }\r\n\r\n    function addMonster(uint _monsterId, uint attackPoint, uint defensePoint, uint manaCost) \r\n        public \r\n    {\r\n        require(angelAndDemonToken.ownerOf(_monsterId) == msg.sender);\r\n        monsters[msg.sender][_monsterId] = Monster(attackPoint, defensePoint, manaCost);\r\n        monsterList[msg.sender].push(_monsterId);\r\n    }\r\n    \r\n    function createBattle (uint[] memory  _p1MonsterCardId, uint _p1ManaPoint, uint _p1LifePoint, uint[] memory _p1SpellCardId, uint[] memory _p1EquipCardId, uint _p1FieldCardId, uint _p1LastResortCardId) \r\n        public payable \r\n        returns(uint256 ind)\r\n    {\r\n        require(msg.value > 0);\r\n        uint i;\r\n        for(i = 0; i< _p1MonsterCardId.length; i++){\r\n            require(angelAndDemonToken.ownerOf(_p1MonsterCardId[i]) == msg.sender);\r\n        }\r\n        for(i = 0; i< _p1MonsterCardId.length; i++){\r\n            require(angelAndDemonToken.ownerOf(_p1SpellCardId[i]) == msg.sender);\r\n        }\r\n        for(i = 0; i< _p1MonsterCardId.length; i++){\r\n            require(angelAndDemonToken.ownerOf(_p1EquipCardId[i]) == msg.sender);\r\n        }\r\n        require(angelAndDemonToken.ownerOf(_p1FieldCardId) == msg.sender);\r\n        require(angelAndDemonToken.ownerOf(_p1LastResortCardId) == msg.sender);\r\n        uint256 id = battles.length;\r\n        uint[] memory buffer;\r\n        buffer[buffer.length] = 0;        \r\n        battleStart = false;\r\n        battles.push(Battle(id, BattlePlayer(msg.sender, _p1MonsterCardId, _p1ManaPoint, _p1LifePoint, _p1SpellCardId, _p1EquipCardId, _p1FieldCardId,  _p1LastResortCardId), BattlePlayer(address(0), buffer, 0, 0, buffer, buffer, 0, 0), address(0), false, block.timestamp, 1, 0));\r\n        return id;\r\n    }\r\n    \r\n    function acceptBattle (uint _battleId, uint[] memory _p2MonsterCardId, uint _p2ManaPoint, uint _p2LifePoint, uint[] memory _p2SpellCardId, uint[] memory _p2EquipCardId, uint _p2FieldCardId, uint _p2LastResortCardId) \r\n        public payable \r\n    {\r\n         // require(msg.sender != battles[_battleId].p1);\r\n        require(msg.value > 0);\r\n        uint i;\r\n        for(i = 0; i< _p2MonsterCardId.length; i++){\r\n            require(angelAndDemonToken.ownerOf(_p2MonsterCardId[i]) == msg.sender);\r\n        }\r\n        for(i = 0; i< _p2MonsterCardId.length; i++){\r\n            require(angelAndDemonToken.ownerOf(_p2SpellCardId[i]) == msg.sender);\r\n        }\r\n        for(i = 0; i< _p2MonsterCardId.length; i++){\r\n            require(angelAndDemonToken.ownerOf(_p2EquipCardId[i]) == msg.sender);\r\n        }\r\n        require(angelAndDemonToken.ownerOf(_p2FieldCardId) == msg.sender);\r\n        require(angelAndDemonToken.ownerOf(_p2LastResortCardId) == msg.sender);\r\n        \r\n        Battle storage b = battles[_battleId];\r\n        b.player2.player = msg.sender;\r\n        b.player2.MonsterCardId = _p2MonsterCardId;\r\n        b.player2.ManaPoint = _p2ManaPoint;\r\n        b.player2.LifePoint = _p2LifePoint;\r\n        b.player2.SpellCardId = _p2SpellCardId;\r\n        b.player2.EquipCardId = _p2EquipCardId;\r\n        b.player2.FieldCardId = _p2FieldCardId;\r\n        b.player2.LastResortCardId = _p2LastResortCardId;\r\n        b.gameTurn++;\r\n        battleStart = true;\r\n    }\r\n    \r\n    function endBattle (uint _battleId) \r\n        public \r\n    {\r\n        Battle storage b = battles[_battleId];\r\n        b.ended = true;\r\n        //\r\n        //delete monsters[b.p1];\r\n        //delete monsters[b.p2];\r\n        //delete battles[_battleId];\r\n    }\r\n    \r\n    function upgradeMonster(uint _monsterId, uint _attackPoint, uint _defensePoint, uint _manaCost) \r\n        internal \r\n    {\r\n        Monster storage m = monsters[msg.sender][_monsterId];\r\n        m.attackPoint = _attackPoint;\r\n        m.defensePoint = _defensePoint;\r\n        m.manaCost = _manaCost;\r\n    }\r\n    \r\n    function cancelBattle (uint _battleId) \r\n        public \r\n    {\r\n        require( block.timestamp > battles[_battleId].createdAt + 86400);\r\n        Battle storage b = battles[_battleId];\r\n        b.ended = true;\r\n    }\r\n    \r\n    function getBattlesCount() \r\n        public view \r\n        returns(uint) \r\n    {\r\n        return battles.length;\r\n    }\r\n\r\n    function getplayerState(uint _battleId) \r\n        public view \r\n        returns(uint)\r\n    {\r\n        Battle storage b = battles[_battleId];\r\n        return b.playerstate;\r\n    }\r\n\r\n    function setLifepoint(uint _battleId, uint _setLifePoint) \r\n        public \r\n    {\r\n        Battle storage b = battles[_battleId];\r\n        require(b.player1.player == msg.sender|| b.player2.player == msg.sender);\r\n        if(b.player1.player == msg.sender){\r\n            b.player1.LifePoint = _setLifePoint;\r\n        }\r\n        else{\r\n            b.player2.LifePoint = _setLifePoint;\r\n        }\r\n    }\r\n\r\n    function getMonsterListInBattle(address monsterOwner) \r\n        public view \r\n        returns(uint[] memory)\r\n    {\r\n        return monsterList[monsterOwner];\r\n    }\r\n\r\n    function getSpellListInBattle(address spellCardOwner) \r\n        public view \r\n        returns(uint[] memory)\r\n    {\r\n        return spellCardList[spellCardOwner];\r\n    }\r\n\r\n    function getEquipListInBattle(address equipCardOwner) \r\n        public view \r\n        returns(uint[] memory)\r\n    {\r\n        return equipCardList[equipCardOwner];\r\n    }\r\n\r\n    function setCardCheck(uint[][] memory _MonsterCardCheck, uint[][] memory _SpellCardCheck, uint[][] memory _EquipCardCheck, uint _FieldCardCheck, uint _LastResortCardCheck) \r\n        public \r\n    {\r\n        uint i;\r\n        uint[] memory bufferMonsterIds;\r\n        uint[] memory bufferSpellIds;\r\n        uint[] memory bufferEquipIds;\r\n\r\n       for (i = 0; i < _MonsterCardCheck.length; i++){\r\n            monsterCardCheck[_MonsterCardCheck[i][0]] = _MonsterCardCheck[i][1];\r\n            bufferMonsterIds[i] = _MonsterCardCheck[i][0];\r\n        }\r\n\r\n        for (i = 0; i < _SpellCardCheck.length; i++){\r\n            spellCardCheck[_SpellCardCheck[i][0]] = _SpellCardCheck[i][1];\r\n            bufferSpellIds[i] = _SpellCardCheck[i][0];\r\n        }\r\n        \r\n        for (i = 0; i < _EquipCardCheck.length; i++){\r\n            equipCardCheck[_EquipCardCheck[i][0]] = _EquipCardCheck[i][1];\r\n            bufferEquipIds[i] = _EquipCardCheck[i][0];\r\n        }\r\n        \r\n       cardChecks[msg.sender] = CardCheck(bufferMonsterIds, bufferSpellIds, bufferEquipIds, _FieldCardCheck, _LastResortCardCheck);\r\n    }\r\n\r\n    function battleMission(uint _battleId) \r\n        public \r\n    {\r\n        Battle storage b = battles[_battleId];\r\n        if(b.playerstate> 0){\r\n            require(sumTotalAttack(b.player2.player)>=sumTotalDefense(b.player1.player));\r\n            b.player1.LifePoint = sumTotalAttack(b.player2.player) - sumTotalDefense(b.player1.player);\r\n        }\r\n        else{\r\n            require(sumTotalAttack(b.player1.player)>=sumTotalDefense(b.player2.player));\r\n            b.player2.LifePoint = sumTotalAttack(b.player1.player) - sumTotalDefense(b.player2.player);\r\n        }\r\n\r\n        b.playerstate = 1- b.playerstate;\r\n        if (b.playerstate > 0){\r\n            b.gameTurn++;\r\n        }\r\n    }\r\n\r\n    function canUseLastResortCard(uint _battleId) \r\n        public view \r\n        returns(bool)\r\n    {     \r\n        Battle storage b = battles[_battleId]; \r\n        return b.gameTurn >= 5 ? true : false;\r\n    }\r\n\r\n    function sumTotalAttack(address monsterOwner) public view returns(uint){\r\n        uint sum = 0;\r\n        for (uint i = 0; i < cardChecks[monsterOwner].MonsterCardIds.length; i++){\r\n            if(monsterCardCheck[cardChecks[monsterOwner].MonsterCardIds[i]] > 0){\r\n                sum+= monsters[monsterOwner][cardChecks[monsterOwner].MonsterCardIds[i]].attackPoint;\r\n            }\r\n        }\r\n        return sum;\r\n    }\r\n\r\n    function sumTotalDefense(address monsterOwner) \r\n        public view \r\n        returns(uint)\r\n    {\r\n        uint sum = 0;\r\n        for (uint i = 0; i < cardChecks[monsterOwner].MonsterCardIds.length; i++){\r\n            if(monsterCardCheck[cardChecks[monsterOwner].MonsterCardIds[i]] > 0){\r\n                sum+= monsters[monsterOwner][cardChecks[monsterOwner].MonsterCardIds[i]].defensePoint;\r\n            }\r\n        }\r\n        return sum;\r\n    }\r\n\r\n    // function _transferOwnership(address recipient)\r\n    //     public onlyOwner\r\n    // {      \r\n    //     transferOwnership(recipient);\r\n    // } \r\n\r\n    function _ownerOfContract() \r\n        public view \r\n        returns(address)\r\n    {      \r\n        return owner();\r\n    }\r\n\r\n}",
  "sourcePath": "D:\\JCJ\\Solidity\\calm_card_game\\contracts\\AngelAndDemonGame.sol",
  "compiler": {
    "name": "solc",
    "version": "0.8.9+commit.e5eed63a.Emscripten.clang"
  },
  "schemaVersion": "3.4.3",
  "updatedAt": "2022-02-04T02:23:44.426Z",
  "devdoc": {
    "kind": "dev",
    "methods": {
      "owner()": {
        "details": "Returns the address of the current owner."
      },
      "renounceOwnership()": {
        "details": "Leaves the contract without owner. It will not be possible to call `onlyOwner` functions anymore. Can only be called by the current owner. NOTE: Renouncing ownership will leave the contract without an owner, thereby removing any functionality that is only available to the owner."
      },
      "transferOwnership(address)": {
        "details": "Transfers ownership of the contract to a new account (`newOwner`). Can only be called by the current owner."
      }
    },
    "version": 1
  },
  "userdoc": {
    "kind": "user",
    "methods": {},
    "version": 1
  }
}