{
  "contractName": "AngelAndDemonGame",
  "abi": [
    {
      "inputs": [
        {
          "internalType": "address",
          "name": "andToken",
          "type": "address"
        }
      ],
      "stateMutability": "nonpayable",
      "type": "constructor"
    },
    {
      "anonymous": false,
      "inputs": [
        {
          "indexed": true,
          "internalType": "address",
          "name": "previousOwner",
          "type": "address"
        },
        {
          "indexed": true,
          "internalType": "address",
          "name": "newOwner",
          "type": "address"
        }
      ],
      "name": "OwnershipTransferred",
      "type": "event"
    },
    {
      "inputs": [],
      "name": "owner",
      "outputs": [
        {
          "internalType": "address",
          "name": "",
          "type": "address"
        }
      ],
      "stateMutability": "view",
      "type": "function",
      "constant": true
    },
    {
      "inputs": [],
      "name": "renounceOwnership",
      "outputs": [],
      "stateMutability": "nonpayable",
      "type": "function"
    },
    {
      "inputs": [
        {
          "internalType": "address",
          "name": "newOwner",
          "type": "address"
        }
      ],
      "name": "transferOwnership",
      "outputs": [],
      "stateMutability": "nonpayable",
      "type": "function"
    },
    {
      "inputs": [
        {
          "internalType": "uint256",
          "name": "_monsterCount",
          "type": "uint256"
        },
        {
          "components": [
            {
              "internalType": "uint256",
              "name": "attackPoint",
              "type": "uint256"
            },
            {
              "internalType": "uint256",
              "name": "defensePoint",
              "type": "uint256"
            },
            {
              "internalType": "uint256",
              "name": "manaCost",
              "type": "uint256"
            },
            {
              "internalType": "uint256",
              "name": "healthPoint",
              "type": "uint256"
            }
          ],
          "internalType": "struct AngelAndDemonGame.Monster[]",
          "name": "_monsters",
          "type": "tuple[]"
        },
        {
          "internalType": "string[]",
          "name": "_monsterURLs",
          "type": "string[]"
        },
        {
          "internalType": "uint256",
          "name": "_sepllCount",
          "type": "uint256"
        },
        {
          "components": [
            {
              "internalType": "uint256",
              "name": "attackPoint",
              "type": "uint256"
            },
            {
              "internalType": "uint256",
              "name": "defensePoint",
              "type": "uint256"
            },
            {
              "internalType": "uint256",
              "name": "manaCost",
              "type": "uint256"
            }
          ],
          "internalType": "struct AngelAndDemonGame.Spell[]",
          "name": "_spells",
          "type": "tuple[]"
        },
        {
          "internalType": "string[]",
          "name": "_spellURLs",
          "type": "string[]"
        },
        {
          "internalType": "uint256",
          "name": "_equipCount",
          "type": "uint256"
        },
        {
          "components": [
            {
              "internalType": "uint256",
              "name": "attackPoint",
              "type": "uint256"
            },
            {
              "internalType": "uint256",
              "name": "defensePoint",
              "type": "uint256"
            },
            {
              "internalType": "uint256",
              "name": "manaCost",
              "type": "uint256"
            }
          ],
          "internalType": "struct AngelAndDemonGame.Equip[]",
          "name": "_equips",
          "type": "tuple[]"
        },
        {
          "internalType": "string[]",
          "name": "_equipURLs",
          "type": "string[]"
        }
      ],
      "name": "addCardsToPlayer",
      "outputs": [],
      "stateMutability": "nonpayable",
      "type": "function"
    },
    {
      "inputs": [
        {
          "internalType": "string",
          "name": "_playerName",
          "type": "string"
        }
      ],
      "name": "setPlayerName",
      "outputs": [],
      "stateMutability": "nonpayable",
      "type": "function"
    },
    {
      "inputs": [
        {
          "internalType": "address",
          "name": "_playerAddress",
          "type": "address"
        }
      ],
      "name": "getPlayerName",
      "outputs": [
        {
          "internalType": "string",
          "name": "",
          "type": "string"
        }
      ],
      "stateMutability": "view",
      "type": "function",
      "constant": true
    }
  ],
  "bytecode": "0x60806040523480156200001157600080fd5b50604051620013fa380380620013fa833981016040819052620000349162000225565b6200003f336200012f565b60026001819055601490556040805180820190915260138082527f416e67656c73416e6444656d6f6e7347616d6500000000000000000000000000602090920191825262000090916003916200017f565b506040805180820190915260148082527f414e47454c5f414e445f44454d4f4e5f47414d450000000000000000000000006020909201918252620000d7916004916200017f565b50604051806060016040528060228152602001620013d860229139805162000108916005916020909101906200017f565b50600d80546001600160a01b0319166001600160a01b039290921691909117905562000294565b600080546001600160a01b038381166001600160a01b0319831681178455604051919092169283917f8be0079c531659141344cd1fd0a4f28419497f9722a3daafe3b4186f6b6457e09190a35050565b8280546200018d9062000257565b90600052602060002090601f016020900481019282620001b15760008555620001fc565b82601f10620001cc57805160ff1916838001178555620001fc565b82800160010185558215620001fc579182015b82811115620001fc578251825591602001919060010190620001df565b506200020a9291506200020e565b5090565b5b808211156200020a57600081556001016200020f565b6000602082840312156200023857600080fd5b81516001600160a01b03811681146200025057600080fd5b9392505050565b600181811c908216806200026c57607f821691505b602082108114156200028e57634e487b7160e01b600052602260045260246000fd5b50919050565b61113480620002a46000396000f3fe608060405234801561001057600080fd5b50600436106100625760003560e01c8063715018a6146100675780638da5cb5b14610071578063d817736914610091578063e18d38ce146100a4578063f2fde38b146100c4578063f96af959146100d7575b600080fd5b61006f6100ea565b005b6000546040516001600160a01b0390911681526020015b60405180910390f35b61006f61009f366004610ba5565b610155565b6100b76100b2366004610bf7565b610179565b6040516100889190610c4b565b61006f6100d2366004610bf7565b610225565b61006f6100e5366004610e77565b6102f0565b6000546001600160a01b031633146101495760405162461bcd60e51b815260206004820181905260248201527f4f776e61626c653a2063616c6c6572206973206e6f7420746865206f776e657260448201526064015b60405180910390fd5b61015360006104e7565b565b336000908152600c60209081526040909120825161017592840190610a2c565b5050565b6001600160a01b0381166000908152600c602052604090208054606091906101a090610f8b565b80601f01602080910402602001604051908101604052809291908181526020018280546101cc90610f8b565b80156102195780601f106101ee57610100808354040283529160200191610219565b820191906000526020600020905b8154815290600101906020018083116101fc57829003601f168201915b50505050509050919050565b6000546001600160a01b0316331461027f5760405162461bcd60e51b815260206004820181905260248201527f4f776e61626c653a2063616c6c6572206973206e6f7420746865206f776e65726044820152606401610140565b6001600160a01b0381166102e45760405162461bcd60e51b815260206004820152602660248201527f4f776e61626c653a206e6577206f776e657220697320746865207a65726f206160448201526564647265737360d01b6064820152608401610140565b6102ed816104e7565b50565b60005b898110156103a75761039589828151811061031057610310610fc6565b6020026020010151600001518a838151811061032e5761032e610fc6565b6020026020010151602001518b848151811061034c5761034c610fc6565b6020026020010151604001518c858151811061036a5761036a610fc6565b6020026020010151606001518c868151811061038857610388610fc6565b6020026020010151610537565b8061039f81610fdc565b9150506102f3565b5060005b868110156104415761042f8682815181106103c8576103c8610fc6565b6020026020010151600001518783815181106103e6576103e6610fc6565b60200260200101516020015188848151811061040457610404610fc6565b60200260200101516040015188858151811061042257610422610fc6565b60200260200101516106e6565b8061043981610fdc565b9150506103ab565b5060005b838110156104db576104c983828151811061046257610462610fc6565b60200260200101516000015184838151811061048057610480610fc6565b60200260200101516020015185848151811061049e5761049e610fc6565b6020026020010151604001518585815181106104bc576104bc610fc6565b6020026020010151610889565b806104d381610fdc565b915050610445565b50505050505050505050565b600080546001600160a01b038381166001600160a01b0319831681178455604051919092169283917f8be0079c531659141344cd1fd0a4f28419497f9722a3daafe3b4186f6b6457e09190a35050565b600d546040516000916001600160a01b03169063695850fb90610561906005908690602001611021565b6040516020818303038152906040526040518263ffffffff1660e01b815260040161058c9190610c4b565b602060405180830381600087803b1580156105a657600080fd5b505af11580156105ba573d6000803e3d6000fd5b505050506040513d601f19601f820116820180604052508101906105de91906110c8565b600d546040516331a9108f60e11b81526004810183905291925033916001600160a01b0390911690636352211e9060240160206040518083038186803b15801561062757600080fd5b505afa15801561063b573d6000803e3d6000fd5b505050506040513d601f19601f8201168201806040525081019061065f91906110e1565b6001600160a01b03161461067257600080fd5b6040805160808101825296875260208088019687528782019586526060880194855233600081815260068352838120858252835283812099518a5597516001808b0191909155965160028a015594516003909801979097559285526009865291842080549384018155845250929091200155565b600d546040516000916001600160a01b03169063695850fb90610710906005908690602001611021565b6040516020818303038152906040526040518263ffffffff1660e01b815260040161073b9190610c4b565b602060405180830381600087803b15801561075557600080fd5b505af1158015610769573d6000803e3d6000fd5b505050506040513d601f19601f8201168201806040525081019061078d91906110c8565b600d546040516331a9108f60e11b81526004810183905291925033916001600160a01b0390911690636352211e9060240160206040518083038186803b1580156107d657600080fd5b505afa1580156107ea573d6000803e3d6000fd5b505050506040513d601f19601f8201168201806040525081019061080e91906110e1565b6001600160a01b03161461082157600080fd5b6040805160608101825295865260208087019586528682019485523360008181526007835283812085825283528381209851895596516001808a01919091559551600290980197909755958552600a8652842080549384018155845293909220019190915550565b600d546040516000916001600160a01b03169063695850fb906108b3906005908690602001611021565b6040516020818303038152906040526040518263ffffffff1660e01b81526004016108de9190610c4b565b602060405180830381600087803b1580156108f857600080fd5b505af115801561090c573d6000803e3d6000fd5b505050506040513d601f19601f8201168201806040525081019061093091906110c8565b600d546040516331a9108f60e11b81526004810183905291925033916001600160a01b0390911690636352211e9060240160206040518083038186803b15801561097957600080fd5b505afa15801561098d573d6000803e3d6000fd5b505050506040513d601f19601f820116820180604052508101906109b191906110e1565b6001600160a01b0316146109c457600080fd5b6040805160608101825295865260208087019586528682019485523360008181526008835283812085825283528381209851895596516001808a01919091559551600290980197909755958552600b8652842080549384018155845293909220019190915550565b828054610a3890610f8b565b90600052602060002090601f016020900481019282610a5a5760008555610aa0565b82601f10610a7357805160ff1916838001178555610aa0565b82800160010185558215610aa0579182015b82811115610aa0578251825591602001919060010190610a85565b50610aac929150610ab0565b5090565b5b80821115610aac5760008155600101610ab1565b634e487b7160e01b600052604160045260246000fd5b6040516080810167ffffffffffffffff81118282101715610afe57610afe610ac5565b60405290565b604051601f8201601f1916810167ffffffffffffffff81118282101715610b2d57610b2d610ac5565b604052919050565b600082601f830112610b4657600080fd5b813567ffffffffffffffff811115610b6057610b60610ac5565b610b73601f8201601f1916602001610b04565b818152846020838601011115610b8857600080fd5b816020850160208301376000918101602001919091529392505050565b600060208284031215610bb757600080fd5b813567ffffffffffffffff811115610bce57600080fd5b610bda84828501610b35565b949350505050565b6001600160a01b03811681146102ed57600080fd5b600060208284031215610c0957600080fd5b8135610c1481610be2565b9392505050565b60005b83811015610c36578181015183820152602001610c1e565b83811115610c45576000848401525b50505050565b6020815260008251806020840152610c6a816040850160208701610c1b565b601f01601f19169190910160400192915050565b600067ffffffffffffffff821115610c9857610c98610ac5565b5060051b60200190565b600082601f830112610cb357600080fd5b81356020610cc8610cc383610c7e565b610b04565b82815260079290921b84018101918181019086841115610ce757600080fd5b8286015b84811015610d3a5760808189031215610d045760008081fd5b610d0c610adb565b8135815284820135858201526040808301359082015260608083013590820152835291830191608001610ceb565b509695505050505050565b600082601f830112610d5657600080fd5b81356020610d66610cc383610c7e565b82815260059290921b84018101918181019086841115610d8557600080fd5b8286015b84811015610d3a57803567ffffffffffffffff811115610da95760008081fd5b610db78986838b0101610b35565b845250918301918301610d89565b600082601f830112610dd657600080fd5b81356020610de6610cc383610c7e565b82815260609283028501820192828201919087851115610e0557600080fd5b8387015b85811015610e6a5781818a031215610e215760008081fd5b6040805183810181811067ffffffffffffffff82111715610e4457610e44610ac5565b825282358152868301358782015282820135918101919091528452928401928101610e09565b5090979650505050505050565b60008060008060008060008060006101208a8c031215610e9657600080fd5b8935985060208a013567ffffffffffffffff80821115610eb557600080fd5b610ec18d838e01610ca2565b995060408c0135915080821115610ed757600080fd5b610ee38d838e01610d45565b985060608c0135975060808c0135915080821115610f0057600080fd5b610f0c8d838e01610dc5565b965060a08c0135915080821115610f2257600080fd5b610f2e8d838e01610d45565b955060c08c0135945060e08c0135915080821115610f4b57600080fd5b610f578d838e01610dc5565b93506101008c0135915080821115610f6e57600080fd5b50610f7b8c828d01610d45565b9150509295985092959850929598565b600181811c90821680610f9f57607f821691505b60208210811415610fc057634e487b7160e01b600052602260045260246000fd5b50919050565b634e487b7160e01b600052603260045260246000fd5b6000600019821415610ffe57634e487b7160e01b600052601160045260246000fd5b5060010190565b60008151611017818560208601610c1b565b9290920192915050565b600080845481600182811c91508083168061103d57607f831692505b602080841082141561105d57634e487b7160e01b86526022600452602486fd5b8180156110715760018114611082576110af565b60ff198616895284890196506110af565b60008b81526020902060005b868110156110a75781548b82015290850190830161108e565b505084890196505b5050505050506110bf8185611005565b95945050505050565b6000602082840312156110da57600080fd5b5051919050565b6000602082840312156110f357600080fd5b8151610c1481610be256fea2646970667358221220a3b3df76c9047f4f09c7bbfd6e1feec993c7475398e509a47e51297c7e03bad864736f6c63430008090033687474703a2f2f3136372e38362e3132302e3139373a333030302f696d616765732f",
  "immutableReferences": {},
  "source": "// SPDX-License-Identifier: MIT\r\n\r\npragma solidity ^0.8.0;\r\n\r\nimport \"@openzeppelin/contracts/access/Ownable.sol\";\r\nimport './AngelAndDemonToken.sol';\r\n\r\ncontract AngelAndDemonGame is Ownable {\r\n    uint private _manaPoint;\r\n    uint private _lifePoint;\r\n    string private _name;\r\n    string private _symbol;\r\n    string private _baseURL;\r\n\r\n    struct Monster {\r\n        uint attackPoint;\r\n        uint defensePoint;\r\n        uint manaCost;\r\n        uint healthPoint;\r\n    }\r\n\r\n    struct Spell {\r\n        uint attackPoint;\r\n        uint defensePoint;\r\n        uint manaCost;\r\n    }\r\n\r\n    struct Equip {\r\n        uint attackPoint;\r\n        uint defensePoint;\r\n        uint manaCost;\r\n    }\r\n\r\n    mapping (address => mapping (uint => Monster)) monsters;\r\n    mapping (address => mapping (uint => Spell)) spells;\r\n    mapping (address => mapping (uint => Equip)) equips;\r\n    mapping (address => uint[]) monsterList;\r\n    mapping (address => uint[]) spellList;\r\n    mapping (address => uint[]) equipList;\r\n    mapping (address => string) playerNames;\r\n\r\n    AngelAndDemonToken angelAndDemonToken;\r\n\r\n    constructor(address andToken) {\r\n        _manaPoint = 2;\r\n        _lifePoint = 20;\r\n        _name = \"AngelsAndDemonsGame\";\r\n        _symbol = \"ANGEL_AND_DEMON_GAME\";\r\n        _baseURL = \"http://167.86.120.197:3000/images/\";\r\n        angelAndDemonToken = AngelAndDemonToken(andToken);\r\n    }\r\n\r\n    function addMonster(\r\n        uint attackPoint,\r\n        uint defensePoint,\r\n        uint manaCost,\r\n        uint healthPoint,\r\n        string memory cardURL\r\n    ) internal {\r\n        uint _monsterId = angelAndDemonToken.safeMint(string(abi.encodePacked(_baseURL, cardURL)));\r\n        require(angelAndDemonToken.ownerOf(_monsterId) == msg.sender);\r\n        monsters[msg.sender][_monsterId] = Monster(attackPoint, defensePoint, manaCost, healthPoint);\r\n        monsterList[msg.sender].push(_monsterId);\r\n    }\r\n\r\n    function addSpell(\r\n        uint attackPoint,\r\n        uint defensePoint,\r\n        uint manaCost,\r\n        string memory cardURL\r\n    ) internal {\r\n        uint _spellId = angelAndDemonToken.safeMint(string(abi.encodePacked(_baseURL, cardURL)));\r\n        require(angelAndDemonToken.ownerOf(_spellId) == msg.sender);\r\n        spells[msg.sender][_spellId] = Spell(attackPoint, defensePoint, manaCost);\r\n        spellList[msg.sender].push(_spellId);\r\n    }\r\n\r\n    function addEquip(\r\n        uint attackPoint,\r\n        uint defensePoint,\r\n        uint manaCost,\r\n        string memory cardURL\r\n    ) internal {\r\n        uint _equipId = angelAndDemonToken.safeMint(string(abi.encodePacked(_baseURL, cardURL)));\r\n        require(angelAndDemonToken.ownerOf(_equipId) == msg.sender);\r\n        equips[msg.sender][_equipId] = Equip(attackPoint, defensePoint, manaCost);\r\n        equipList[msg.sender].push(_equipId);\r\n    }\r\n\r\n    function addCardsToPlayer(\r\n        uint _monsterCount,\r\n        Monster[] memory _monsters,\r\n        string[] memory _monsterURLs,\r\n        uint _sepllCount,\r\n        Spell[] memory _spells,\r\n        string[] memory _spellURLs,\r\n        uint _equipCount,\r\n        Equip[] memory _equips,\r\n        string[] memory _equipURLs\r\n    ) public {\r\n        for (uint i = 0; i < _monsterCount; i ++) {\r\n            addMonster(_monsters[i].attackPoint, _monsters[i].defensePoint, _monsters[i].manaCost, _monsters[i].healthPoint, _monsterURLs[i]);\r\n        }\r\n\r\n        for (uint i = 0; i < _sepllCount; i ++) {\r\n            addSpell(_spells[i].attackPoint, _spells[i].defensePoint, _spells[i].manaCost, _spellURLs[i]);\r\n        }\r\n\r\n        for (uint i = 0; i < _equipCount; i ++) {\r\n            addEquip(_equips[i].attackPoint, _equips[i].defensePoint, _equips[i].manaCost, _equipURLs[i]);\r\n        }\r\n    }\r\n\r\n    function setPlayerName(string memory _playerName) public {\r\n        playerNames[msg.sender] = _playerName;\r\n    }\r\n\r\n    function getPlayerName(address _playerAddress) public view returns(string memory) { \r\n        return playerNames[_playerAddress];\r\n    }\r\n}",
  "sourcePath": "D:\\JCJ\\Solidity\\calm_card_game\\contracts\\AngelAndDemonGame.sol",
  "compiler": {
    "name": "solc",
    "version": "0.8.9+commit.e5eed63a.Emscripten.clang"
  },
  "schemaVersion": "3.4.3",
  "updatedAt": "2022-02-09T05:01:49.755Z",
  "networkType": "ethereum",
  "devdoc": {
    "kind": "dev",
    "methods": {
      "owner()": {
        "details": "Returns the address of the current owner."
      },
      "renounceOwnership()": {
        "details": "Leaves the contract without owner. It will not be possible to call `onlyOwner` functions anymore. Can only be called by the current owner. NOTE: Renouncing ownership will leave the contract without an owner, thereby removing any functionality that is only available to the owner."
      },
      "transferOwnership(address)": {
        "details": "Transfers ownership of the contract to a new account (`newOwner`). Can only be called by the current owner."
      }
    },
    "version": 1
  },
  "userdoc": {
    "kind": "user",
    "methods": {},
    "version": 1
  }
}