{
  "contractName": "AngelAndDemonGame",
  "abi": [
    {
      "inputs": [
        {
          "internalType": "address",
          "name": "andToken",
          "type": "address"
        }
      ],
      "stateMutability": "nonpayable",
      "type": "constructor"
    },
    {
      "anonymous": false,
      "inputs": [
        {
          "indexed": true,
          "internalType": "address",
          "name": "previousOwner",
          "type": "address"
        },
        {
          "indexed": true,
          "internalType": "address",
          "name": "newOwner",
          "type": "address"
        }
      ],
      "name": "OwnershipTransferred",
      "type": "event"
    },
    {
      "inputs": [],
      "name": "owner",
      "outputs": [
        {
          "internalType": "address",
          "name": "",
          "type": "address"
        }
      ],
      "stateMutability": "view",
      "type": "function",
      "constant": true
    },
    {
      "inputs": [],
      "name": "renounceOwnership",
      "outputs": [],
      "stateMutability": "nonpayable",
      "type": "function"
    },
    {
      "inputs": [
        {
          "internalType": "address",
          "name": "newOwner",
          "type": "address"
        }
      ],
      "name": "transferOwnership",
      "outputs": [],
      "stateMutability": "nonpayable",
      "type": "function"
    },
    {
      "inputs": [
        {
          "internalType": "bytes",
          "name": "params",
          "type": "bytes"
        }
      ],
      "name": "addCardsToPlayer",
      "outputs": [],
      "stateMutability": "nonpayable",
      "type": "function"
    },
    {
      "inputs": [
        {
          "internalType": "address",
          "name": "_sender",
          "type": "address"
        }
      ],
      "name": "getCardsOfPlayer",
      "outputs": [
        {
          "internalType": "bytes",
          "name": "",
          "type": "bytes"
        }
      ],
      "stateMutability": "view",
      "type": "function",
      "constant": true
    },
    {
      "inputs": [
        {
          "internalType": "uint256[]",
          "name": "cardIDs",
          "type": "uint256[]"
        }
      ],
      "name": "addCardsToDeck",
      "outputs": [],
      "stateMutability": "nonpayable",
      "type": "function"
    },
    {
      "inputs": [
        {
          "internalType": "address",
          "name": "_sender",
          "type": "address"
        }
      ],
      "name": "getCardsFromDeck",
      "outputs": [
        {
          "internalType": "bytes",
          "name": "",
          "type": "bytes"
        }
      ],
      "stateMutability": "view",
      "type": "function",
      "constant": true
    },
    {
      "inputs": [
        {
          "internalType": "string",
          "name": "_playerName",
          "type": "string"
        }
      ],
      "name": "setPlayerName",
      "outputs": [],
      "stateMutability": "nonpayable",
      "type": "function"
    },
    {
      "inputs": [
        {
          "internalType": "address",
          "name": "_playerAddress",
          "type": "address"
        }
      ],
      "name": "getPlayerName",
      "outputs": [
        {
          "internalType": "string",
          "name": "",
          "type": "string"
        }
      ],
      "stateMutability": "view",
      "type": "function",
      "constant": true
    },
    {
      "inputs": [],
      "name": "findBattle",
      "outputs": [],
      "stateMutability": "nonpayable",
      "type": "function"
    },
    {
      "inputs": [
        {
          "internalType": "address",
          "name": "_sender",
          "type": "address"
        }
      ],
      "name": "getBattle",
      "outputs": [
        {
          "components": [
            {
              "internalType": "uint256",
              "name": "battleID",
              "type": "uint256"
            },
            {
              "components": [
                {
                  "internalType": "address",
                  "name": "playerAddress",
                  "type": "address"
                },
                {
                  "internalType": "uint256",
                  "name": "lifePoint",
                  "type": "uint256"
                },
                {
                  "internalType": "uint256",
                  "name": "manaPoint",
                  "type": "uint256"
                },
                {
                  "internalType": "uint256[]",
                  "name": "cardsInHand",
                  "type": "uint256[]"
                },
                {
                  "internalType": "uint256[]",
                  "name": "cardsInPlay",
                  "type": "uint256[]"
                },
                {
                  "internalType": "uint256[]",
                  "name": "cardsDeck",
                  "type": "uint256[]"
                }
              ],
              "internalType": "struct AngelAndDemonGame.BattlePlayer",
              "name": "player1",
              "type": "tuple"
            },
            {
              "components": [
                {
                  "internalType": "address",
                  "name": "playerAddress",
                  "type": "address"
                },
                {
                  "internalType": "uint256",
                  "name": "lifePoint",
                  "type": "uint256"
                },
                {
                  "internalType": "uint256",
                  "name": "manaPoint",
                  "type": "uint256"
                },
                {
                  "internalType": "uint256[]",
                  "name": "cardsInHand",
                  "type": "uint256[]"
                },
                {
                  "internalType": "uint256[]",
                  "name": "cardsInPlay",
                  "type": "uint256[]"
                },
                {
                  "internalType": "uint256[]",
                  "name": "cardsDeck",
                  "type": "uint256[]"
                }
              ],
              "internalType": "struct AngelAndDemonGame.BattlePlayer",
              "name": "player2",
              "type": "tuple"
            },
            {
              "internalType": "bool",
              "name": "isAccepted",
              "type": "bool"
            },
            {
              "internalType": "address",
              "name": "winner",
              "type": "address"
            },
            {
              "internalType": "uint256",
              "name": "createdAt",
              "type": "uint256"
            },
            {
              "internalType": "uint256",
              "name": "playerState",
              "type": "uint256"
            },
            {
              "internalType": "uint256",
              "name": "turn",
              "type": "uint256"
            },
            {
              "internalType": "uint256",
              "name": "isCalculated",
              "type": "uint256"
            }
          ],
          "internalType": "struct AngelAndDemonGame.Battle",
          "name": "",
          "type": "tuple"
        }
      ],
      "stateMutability": "view",
      "type": "function",
      "constant": true
    },
    {
      "inputs": [
        {
          "internalType": "address",
          "name": "_playerAddresss",
          "type": "address"
        },
        {
          "internalType": "uint256[]",
          "name": "_cards",
          "type": "uint256[]"
        }
      ],
      "name": "getSumOfCards",
      "outputs": [
        {
          "internalType": "uint256",
          "name": "",
          "type": "uint256"
        },
        {
          "internalType": "uint256",
          "name": "",
          "type": "uint256"
        },
        {
          "internalType": "uint256",
          "name": "",
          "type": "uint256"
        }
      ],
      "stateMutability": "view",
      "type": "function",
      "constant": true
    },
    {
      "inputs": [
        {
          "components": [
            {
              "internalType": "uint256",
              "name": "battleID",
              "type": "uint256"
            },
            {
              "components": [
                {
                  "internalType": "address",
                  "name": "playerAddress",
                  "type": "address"
                },
                {
                  "internalType": "uint256",
                  "name": "lifePoint",
                  "type": "uint256"
                },
                {
                  "internalType": "uint256",
                  "name": "manaPoint",
                  "type": "uint256"
                },
                {
                  "internalType": "uint256[]",
                  "name": "cardsInHand",
                  "type": "uint256[]"
                },
                {
                  "internalType": "uint256[]",
                  "name": "cardsInPlay",
                  "type": "uint256[]"
                },
                {
                  "internalType": "uint256[]",
                  "name": "cardsDeck",
                  "type": "uint256[]"
                }
              ],
              "internalType": "struct AngelAndDemonGame.BattlePlayer",
              "name": "player1",
              "type": "tuple"
            },
            {
              "components": [
                {
                  "internalType": "address",
                  "name": "playerAddress",
                  "type": "address"
                },
                {
                  "internalType": "uint256",
                  "name": "lifePoint",
                  "type": "uint256"
                },
                {
                  "internalType": "uint256",
                  "name": "manaPoint",
                  "type": "uint256"
                },
                {
                  "internalType": "uint256[]",
                  "name": "cardsInHand",
                  "type": "uint256[]"
                },
                {
                  "internalType": "uint256[]",
                  "name": "cardsInPlay",
                  "type": "uint256[]"
                },
                {
                  "internalType": "uint256[]",
                  "name": "cardsDeck",
                  "type": "uint256[]"
                }
              ],
              "internalType": "struct AngelAndDemonGame.BattlePlayer",
              "name": "player2",
              "type": "tuple"
            },
            {
              "internalType": "bool",
              "name": "isAccepted",
              "type": "bool"
            },
            {
              "internalType": "address",
              "name": "winner",
              "type": "address"
            },
            {
              "internalType": "uint256",
              "name": "createdAt",
              "type": "uint256"
            },
            {
              "internalType": "uint256",
              "name": "playerState",
              "type": "uint256"
            },
            {
              "internalType": "uint256",
              "name": "turn",
              "type": "uint256"
            },
            {
              "internalType": "uint256",
              "name": "isCalculated",
              "type": "uint256"
            }
          ],
          "internalType": "struct AngelAndDemonGame.Battle",
          "name": "_battle",
          "type": "tuple"
        }
      ],
      "name": "updateBattle",
      "outputs": [],
      "stateMutability": "nonpayable",
      "type": "function"
    },
    {
      "inputs": [],
      "name": "endTurn",
      "outputs": [],
      "stateMutability": "nonpayable",
      "type": "function"
    }
  ],
  "bytecode": "0x60806040523480156200001157600080fd5b506040516200441238038062004412833981016040819052620000349162000229565b6200003f3362000133565b601460015560646002556040805180820190915260138082527f416e67656c73416e6444656d6f6e7347616d650000000000000000000000000060209092019182526200008f9160049162000183565b506040805180820190915260148082527f414e47454c5f414e445f44454d4f4e5f47414d450000000000000000000000006020909201918252620000d69160059162000183565b50604051806060016040528060228152602001620043f0602291398051620001079160069160209091019062000183565b506001600355601380546001600160a01b0319166001600160a01b039290921691909117905562000298565b600080546001600160a01b038381166001600160a01b0319831681178455604051919092169283917f8be0079c531659141344cd1fd0a4f28419497f9722a3daafe3b4186f6b6457e09190a35050565b82805462000191906200025b565b90600052602060002090601f016020900481019282620001b5576000855562000200565b82601f10620001d057805160ff191683800117855562000200565b8280016001018555821562000200579182015b8281111562000200578251825591602001919060010190620001e3565b506200020e92915062000212565b5090565b5b808211156200020e576000815560010162000213565b6000602082840312156200023c57600080fd5b81516001600160a01b03811681146200025457600080fd5b9392505050565b600181811c908216806200027057607f821691505b602082108114156200029257634e487b7160e01b600052602260045260246000fd5b50919050565b61414880620002a86000396000f3fe608060405234801561001057600080fd5b50600436106100ea5760003560e01c8063a833b8bf1161008c578063b7c618a211610066578063b7c618a2146101d0578063d8177369146101e3578063e18d38ce146101f6578063f2fde38b1461020957600080fd5b8063a833b8bf146101ad578063a9f53bd5146101b5578063ad227f3c146101c857600080fd5b8063792cf535116100c8578063792cf5351461014c5780637d31e39b1461015f5780638da5cb5b146101725780639461b8ed1461018d57600080fd5b80632e78e714146100ef5780634fd375b714610122578063715018a614610142575b600080fd5b6101026100fd366004613581565b61021c565b604080519384526020840192909252908201526060015b60405180910390f35b6101356101303660046135d0565b61052f565b6040516101199190613650565b61014a610fbb565b005b61014a61015a366004613663565b611026565b61014a61016d36600461379c565b611229565b6000546040516001600160a01b039091168152602001610119565b6101a061019b3660046135d0565b611713565b6040516101199190613939565b61014a611ae4565b61014a6101c33660046139e1565b61241d565b61014a612499565b6101356101de3660046135d0565b612b44565b61014a6101f1366004613a95565b612b91565b6101356102043660046135d0565b612bb1565b61014a6102173660046135d0565b612c5d565b60008060008060076000876001600160a01b03166001600160a01b0316815260200190815260200160002060008660008151811061025c5761025c613ac9565b602002602001015181526020019081526020016000206040518060600160405290816000820154815260200160018201548152602001600282015481525050905060008060008751600214156104f1576001600160a01b0389166000908152600860205260408120895182908b9060019081106102db576102db613ac9565b602002602001015181526020019081526020016000206000015411156103f8576001600160a01b038916600090815260086020526040812089519091908a90600190811061032b5761032b613ac9565b60200260200101518152602001908152602001600020600001549250600860008a6001600160a01b03166001600160a01b0316815260200190815260200160002060008960018151811061038157610381613ac9565b60200260200101518152602001908152602001600020600101549150600860008a6001600160a01b03166001600160a01b031681526020019081526020016000206000896001815181106103d7576103d7613ac9565b602002602001015181526020019081526020016000206002015490506104f1565b6001600160a01b038916600090815260096020526040812089519091908a90600190811061042857610428613ac9565b60200260200101518152602001908152602001600020600001549250600960008a6001600160a01b03166001600160a01b0316815260200190815260200160002060008960018151811061047e5761047e613ac9565b60200260200101518152602001908152602001600020600101549150600960008a6001600160a01b03166001600160a01b031681526020019081526020016000206000896001815181106104d4576104d4613ac9565b602002602001015181526020019081526020016000206002015490505b83516104fe908490613af5565b82856020015161050e9190613af5565b82866040015161051e9190613af5565b965096509650505050509250925092565b6001600160a01b0381166000908152600a6020526040812054606091906001600160401b0381111561056357610563613462565b6040519080825280602002602001820160405280156105b857816020015b6105a560405180606001604052806000815260200160008152602001600081525090565b8152602001906001900390816105815790505b506001600160a01b0384166000908152600a6020526040812054919250906001600160401b038111156105ed576105ed613462565b60405190808252806020026020018201604052801561062057816020015b606081526020019060019003908161060b5790505b506001600160a01b0385166000908152600a6020526040812054919250906001600160401b0381111561065557610655613462565b60405190808252806020026020018201604052801561067e578160200160208202803683370190505b506001600160a01b0386166000908152600b6020526040812054919250906001600160401b038111156106b3576106b3613462565b60405190808252806020026020018201604052801561070857816020015b6106f560405180606001604052806000815260200160008152602001600081525090565b8152602001906001900390816106d15790505b506001600160a01b0387166000908152600b6020526040812054919250906001600160401b0381111561073d5761073d613462565b60405190808252806020026020018201604052801561077057816020015b606081526020019060019003908161075b5790505b506001600160a01b0388166000908152600b6020526040812054919250906001600160401b038111156107a5576107a5613462565b6040519080825280602002602001820160405280156107ce578160200160208202803683370190505b506001600160a01b0389166000908152600c6020526040812054919250906001600160401b0381111561080357610803613462565b60405190808252806020026020018201604052801561085857816020015b61084560405180606001604052806000815260200160008152602001600081525090565b8152602001906001900390816108215790505b506001600160a01b038a166000908152600c6020526040812054919250906001600160401b0381111561088d5761088d613462565b6040519080825280602002602001820160405280156108c057816020015b60608152602001906001900390816108ab5790505b506001600160a01b038b166000908152600c6020526040812054919250906001600160401b038111156108f5576108f5613462565b60405190808252806020026020018201604052801561091e578160200160208202803683370190505b50905060005b6001600160a01b038c166000908152600a6020526040902054811015610b3e576001600160a01b038c166000908152600760209081526040808320600a909252822080549192918490811061097b5761097b613ac9565b9060005260206000200154815260200190815260200160002060405180606001604052908160008201548152602001600182015481526020016002820154815250508a82815181106109cf576109cf613ac9565b6020026020010181905250601360009054906101000a90046001600160a01b03166001600160a01b031663c87b56dd600a60008f6001600160a01b03166001600160a01b031681526020019081526020016000208381548110610a3457610a34613ac9565b90600052602060002001546040518263ffffffff1660e01b8152600401610a5d91815260200190565b60006040518083038186803b158015610a7557600080fd5b505afa158015610a89573d6000803e3d6000fd5b505050506040513d6000823e601f3d908101601f19168201604052610ab19190810190613b0d565b898281518110610ac357610ac3613ac9565b6020026020010181905250600a60008d6001600160a01b03166001600160a01b031681526020019081526020016000208181548110610b0457610b04613ac9565b9060005260206000200154888281518110610b2157610b21613ac9565b602090810291909101015280610b3681613b7a565b915050610924565b5060005b6001600160a01b038c166000908152600b6020526040902054811015610d5c576001600160a01b038c166000908152600860209081526040808320600b9092528220805491929184908110610b9957610b99613ac9565b906000526020600020015481526020019081526020016000206040518060600160405290816000820154815260200160018201548152602001600282015481525050878281518110610bed57610bed613ac9565b6020026020010181905250601360009054906101000a90046001600160a01b03166001600160a01b031663c87b56dd600b60008f6001600160a01b03166001600160a01b031681526020019081526020016000208381548110610c5257610c52613ac9565b90600052602060002001546040518263ffffffff1660e01b8152600401610c7b91815260200190565b60006040518083038186803b158015610c9357600080fd5b505afa158015610ca7573d6000803e3d6000fd5b505050506040513d6000823e601f3d908101601f19168201604052610ccf9190810190613b0d565b868281518110610ce157610ce1613ac9565b6020026020010181905250600b60008d6001600160a01b03166001600160a01b031681526020019081526020016000208181548110610d2257610d22613ac9565b9060005260206000200154858281518110610d3f57610d3f613ac9565b602090810291909101015280610d5481613b7a565b915050610b42565b5060005b6001600160a01b038c166000908152600c6020526040902054811015610f7a576001600160a01b038c166000908152600960209081526040808320600c9092528220805491929184908110610db757610db7613ac9565b906000526020600020015481526020019081526020016000206040518060600160405290816000820154815260200160018201548152602001600282015481525050848281518110610e0b57610e0b613ac9565b6020026020010181905250601360009054906101000a90046001600160a01b03166001600160a01b031663c87b56dd600c60008f6001600160a01b03166001600160a01b031681526020019081526020016000208381548110610e7057610e70613ac9565b90600052602060002001546040518263ffffffff1660e01b8152600401610e9991815260200190565b60006040518083038186803b158015610eb157600080fd5b505afa158015610ec5573d6000803e3d6000fd5b505050506040513d6000823e601f3d908101601f19168201604052610eed9190810190613b0d565b838281518110610eff57610eff613ac9565b6020026020010181905250600c60008d6001600160a01b03166001600160a01b031681526020019081526020016000208181548110610f4057610f40613ac9565b9060005260206000200154828281518110610f5d57610f5d613ac9565b602090810291909101015280610f7281613b7a565b915050610d60565b50888888888888888888604051602001610f9c99989796959493929190613c30565b6040516020818303038152906040529950505050505050505050919050565b6000546001600160a01b0316331461101a5760405162461bcd60e51b815260206004820181905260248201527f4f776e61626c653a2063616c6c6572206973206e6f7420746865206f776e657260448201526064015b60405180910390fd5b6110246000612d28565b565b6000808080808080808061103c8a8c018c613e25565b98509850985098509850985098509850985060005b898110156110e7576110d589828151811061106e5761106e613ac9565b6020026020010151600001518a838151811061108c5761108c613ac9565b6020026020010151602001518b84815181106110aa576110aa613ac9565b6020026020010151604001518b85815181106110c8576110c8613ac9565b6020026020010151612d78565b806110df81613b7a565b915050611051565b5060005b868110156111815761116f86828151811061110857611108613ac9565b60200260200101516000015187838151811061112657611126613ac9565b60200260200101516020015188848151811061114457611144613ac9565b60200260200101516040015188858151811061116257611162613ac9565b6020026020010151612f1e565b8061117981613b7a565b9150506110eb565b5060005b8381101561121b576112098382815181106111a2576111a2613ac9565b6020026020010151600001518483815181106111c0576111c0613ac9565b6020026020010151602001518584815181106111de576111de613ac9565b6020026020010151604001518585815181106111fc576111fc613ac9565b60200260200101516130c4565b8061121381613b7a565b915050611185565b505050505050505050505050565b336000908152600f60205260409020546112555760405162461bcd60e51b815260040161101190613f38565b602081015160800151511580159061127557506040810151608001515115155b156114d257610100810151156112c55760405162461bcd60e51b8152602060048201526015602482015274283632b0b9b29032b732103cb7bab9103a3ab9371760591b6044820152606401611011565b60008060006112e484602001516000015185602001516080015161021c565b925092509250600080600061130987604001516000015188604001516080015161021c565b92509250925086602001516040015184111561135f5760405162461bcd60e51b8152602060048201526015602482015274283630bcb2b9189032bc31b2b2b2399036b0b7309760591b6044820152606401611011565b8660400151604001518111156113af5760405162461bcd60e51b8152602060048201526015602482015274283630bcb2b9191032bc31b2b2b2399036b0b7309760591b6044820152606401611011565b838760200151604001516113c39190613f65565b87602001516040018181525050808760400151604001516113e49190613f65565b604080890151015260c087015160011480156113ff57508186115b1561145b5761140e8287613f65565b8760400151602001511161142e57604087015160006020909101526114c3565b81868860400151602001516114439190613f65565b61144d9190613af5565b6040880151602001526114c3565b8660c00151600214801561146e57508483115b156114c35761147d8584613f65565b8760200151602001511161149b5760208088015160009101526114c3565b84838860200151602001516114b09190613f65565b6114ba9190613af5565b60208089015101525b50506001610100860152505050505b60005b60115481101561153257336000908152600f6020526040902054601180548390811061150357611503613ac9565b906000526020600020906012020160000154141561152057611532565b8061152a81613b7a565b9150506114d5565b6011548114156115545760405162461bcd60e51b815260040161101190613f38565b816011828154811061156857611568613ac9565b60009182526020918290208351601292909202019081558282015180516001830180546001600160a01b0319166001600160a01b0390921691909117815581840151600284015560408201516003840155606082015180519394929391926115d89260048701929091019061326a565b50608082015180516115f491600484019160209091019061326a565b5060a0820151805161161091600584019160209091019061326a565b50505060408281015180516007840180546001600160a01b0319166001600160a01b039092169190911781556020808301516008860155928201516009850155606082015180519293919261166b92600a870192019061326a565b506080820151805161168791600484019160209091019061326a565b5060a082015180516116a391600584019160209091019061326a565b5050506060820151600d8201805460808501516001600160a81b0319909116921515610100600160a81b031916929092176101006001600160a01b03909316830217905560a0830151600e83015560c0830151600f83015560e08301516010830155909101516011909101555050565b61171b6132b5565b6001600160a01b0382166000908152600f60205260409020546117505760405162461bcd60e51b815260040161101190613f38565b60005b6011548110156117b9576001600160a01b0383166000908152600f6020526040902054601180548390811061178a5761178a613ac9565b90600052602060002090601202016000015414156117a7576117b9565b806117b181613b7a565b915050611753565b6011548114156117db5760405162461bcd60e51b815260040161101190613f38565b601181815481106117ee576117ee613ac9565b60009182526020918290206040805161012081018252601290930290910180548352815160c0810183526001820180546001600160a01b0316825260028301548287015260038301548285015260048301805485518189028101890190965280865295969395878501959394929360608601939092919083018282801561189457602002820191906000526020600020905b815481526020019060010190808311611880575b50505050508152602001600482018054806020026020016040519081016040528092919081815260200182805480156118ec57602002820191906000526020600020905b8154815260200190600101908083116118d8575b505050505081526020016005820180548060200260200160405190810160405280929190818152602001828054801561194457602002820191906000526020600020905b815481526020019060010190808311611930575b5050509190925250505081526040805160c0810182526007840180546001600160a01b031682526008850154602083810191909152600986015483850152600a8601805485518184028101840190965280865295820195939492936060860193928301828280156119d457602002820191906000526020600020905b8154815260200190600101908083116119c0575b5050505050815260200160048201805480602002602001604051908101604052809291908181526020018280548015611a2c57602002820191906000526020600020905b815481526020019060010190808311611a18575b5050505050815260200160058201805480602002602001604051908101604052809291908181526020018280548015611a8457602002820191906000526020600020905b815481526020019060010190808311611a70575b505050919092525050508152600d82015460ff81161515602083015261010090046001600160a01b03166040820152600e8201546060820152600f8201546080820152601082015460a082015260119091015460c0909101529392505050565b336000908152600f6020526040902054611b105760405162461bcd60e51b815260040161101190613f38565b6000805b601154821015611b7157336000908152600f60205260409020546011805484908110611b4257611b42613ac9565b9060005260206000209060120201600001541415611b5f57611b71565b81611b6981613b7a565b925050611b14565b601154821415611b935760405162461bcd60e51b815260040161101190613f38565b60118281548110611ba657611ba6613ac9565b906000526020600020906012020190508060110154600114611c1c5760405162461bcd60e51b815260206004820152602960248201527f41747461636b20616e6420646566656e7365206973206e6f742063616c63756c60448201526830ba32b2103cb2ba1760b91b6064820152608401611011565b60028101541580611c2f57506008810154155b80611c4d575080600f01546002148015611c4d575080601001546005145b156121ae57600180820180546001600160a01b039081166000908152600f602090815260408083208390556007870180548516845281842084905585548516845260108352818420601280548254808b0184559287528587209092019190915590548516845290832081548154808901835591855292842001919091558054948501815590819052845493027fbb8a6a4669ba250d26cd7a459eca9d215f8307e33aebe50379bc5a3617ec3444810193845582547fbb8a6a4669ba250d26cd7a459eca9d215f8307e33aebe50379bc5a3617ec3445820180546001600160a01b0319169190931617825560028501547fbb8a6a4669ba250d26cd7a459eca9d215f8307e33aebe50379bc5a3617ec344682015560038501547fbb8a6a4669ba250d26cd7a459eca9d215f8307e33aebe50379bc5a3617ec34478201556004850180548695949392611dc2927fbb8a6a4669ba250d26cd7a459eca9d215f8307e33aebe50379bc5a3617ec344890910191613318565b5060048281018054611dd79284019190613318565b5060058281018054611dec9284019190613318565b5050506007828101805491830180546001600160a01b0319166001600160a01b039093169290921782556008808501549084015560098085015490840155600a8085018054929392611e419286019190613318565b5060048281018054611e569284019190613318565b5060058281018054611e6b9284019190613318565b505050600d8281018054918301805460ff909316151560ff1984168117825591546001600160a01b03610100918290041602610100600160a81b03199092166001600160a81b031990931692909217179055600e8083015490820155600f808301549082015560108083015490820155601191820154908201558054611ef390600190613f65565b81548110611f0357611f03613ac9565b906000526020600020906012020160118381548110611f2457611f24613ac9565b6000918252602090912082546012909202019081556001808301805491830180546001600160a01b0319166001600160a01b03909316929092178255600280850154908401556003808501549084015560048085018054929392611f8b9286019190613318565b5060048281018054611fa09284019190613318565b5060058281018054611fb59284019190613318565b5050506007828101805491830180546001600160a01b0319166001600160a01b039093169290921782556008808501549084015560098085015490840155600a808501805492939261200a9286019190613318565b506004828101805461201f9284019190613318565b50600582810180546120349284019190613318565b505050600d8281018054918301805460ff909316151560ff1984168117825591546001600160a01b03610100918290041602610100600160a81b03199092166001600160a81b031990931692909217179055600e8083015490820155600f8083015490820155601080830154908201556011918201549082015580546120bc90600190613f65565b815481106120cc576120cc613ac9565b6000918252602082206012909102018181556001810180546001600160a01b031916815560028201839055600382018390559091908161210f6004850182613358565b61211d600483016000613358565b61212b600583016000613358565b50506007820180546001600160a01b03191681556000600884018190556009840181905561215c600a850182613358565b61216a600483016000613358565b612178600583016000613358565b505050600d810180546001600160a81b03191690556000600e8201819055600f8201819055601082018190556011909101555050565b60006011820181905560408051918252602082019081905290516121d691600584019161326a565b5060408051600081526020810191829052516121f691600b84019161326a565b5080600f01546002141561227457604080516000815260208101918290525161222391600484019161326a565b50604080516000815260208101918290525161224391600a84019161326a565b506001600f8201819055601082015461225b91613af5565b601082015560015460038201819055600982015561227c565b6002600f8201555b806011838154811061229057612290613ac9565b6000918252602090912082546012909202019081556001808301805491830180546001600160a01b0319166001600160a01b039093169290921782556002808501549084015560038085015490840155600480850180549293926122f79286019190613318565b506004828101805461230c9284019190613318565b50600582810180546123219284019190613318565b5050506007828101805491830180546001600160a01b0319166001600160a01b039093169290921782556008808501549084015560098085015490840155600a80850180549293926123769286019190613318565b506004828101805461238b9284019190613318565b50600582810180546123a09284019190613318565b505050600d8281018054918301805460ff909316151560ff1984168117825591546001600160a01b03610100918290041602610100600160a81b03199092166001600160a81b031990931692909217179055600e8083015490820155600f8083015490820155601080830154908201556011918201549101555050565b336000908152600d6020526040812061243591613358565b60005b815181101561249557336000908152600d60205260409020825183908390811061246457612464613ac9565b602090810291909101810151825460018101845560009384529190922001558061248d81613b7a565b915050612438565b5050565b336000908152600f6020526040902054156124f65760405162461bcd60e51b815260206004820152601a60248201527f596f752061726520616c726561647920696e20626174746c652e0000000000006044820152606401611011565b336000908152600d602052604090205460281461254b5760405162461bcd60e51b8152602060048201526013602482015272283632b0b9b29039b2b632b1ba103232b1b59760691b6044820152606401611011565b60408051602880825261052082019092526000918291906020820161050080368337019050509050600091505b60288210156125dc57336000908152600d602052604090208054839081106125a2576125a2613ac9565b90600052602060002001548183815181106125bf576125bf613ac9565b6020908102919091010152816125d481613b7a565b925050612578565b600091505b60115482101561263057601182815481106125fe576125fe613ac9565b60009182526020909120600d601290920201015460ff1661261e57612630565b8161262881613b7a565b9250506125e1565b6011548214156129d057601160405180610120016040528060035481526020016040518060c00160405280336001600160a01b0316815260200160648152602001600a815260200160006001600160401b0381111561269157612691613462565b6040519080825280602002602001820160405280156126ba578160200160208202803683370190505b50815260200160006040519080825280602002602001820160405280156126eb578160200160208202803683370190505b5081526020018581525081526020016040518060c0016040528060006001600160a01b03168152602001600081526020016000815260200160006001600160401b0381111561273c5761273c613462565b604051908082528060200260200182016040528015612765578160200160208202803683370190505b5081526020016000604051908082528060200260200182016040528015612796578160200160208202803683370190505b50815260200160006040519080825280602002602001820160405280156127c7578160200160208202803683370190505b50905281526000602080830182905260408084018390524260608086019190915260016080860181905260a0860181905260c09095018490528654808601885596845292829020855160129097020195865584820151805194870180546001600160a01b0319166001600160a01b0390961695909517855580830151600288015590810151600387015591820151805194959492939261286d926004870192019061326a565b506080820151805161288991600484019160209091019061326a565b5060a082015180516128a591600584019160209091019061326a565b50505060408281015180516007840180546001600160a01b0319166001600160a01b039092169190911781556020808301516008860155928201516009850155606082015180519293919261290092600a870192019061326a565b506080820151805161291c91600484019160209091019061326a565b5060a0820151805161293891600584019160209091019061326a565b5050506060820151600d8201805460808501516001600160a81b0319909116921515610100600160a81b031916929092176101006001600160a01b03909316830217905560a0830151600e83015560c0830151600f8084019190915560e0840151601084015592015160119091015560035433600090815260209290925260409091208190556129c9906001613af5565b6003555050565b6040805160c0810182523381526064602080830191909152600a8284015282516000808252818301855260608401919091528351908152908101909252608081019190915260a081018290526011805484908110612a3057612a30613ac9565b60009182526020918290208351601292909202016007810180546001600160a01b0319166001600160a01b0390931692909217825583830151600882015560408401516009820155606084015180519293612a9393600a9093019291019061326a565b5060808201518051612aaf91600484019160209091019061326a565b5060a08201518051612acb91600584019160209091019061326a565b50905050600160118381548110612ae457612ae4613ac9565b9060005260206000209060120201600d0160006101000a81548160ff02191690831515021790555060118281548110612b1f57612b1f613ac9565b60009182526020808320601290920290910154338352600f9091526040909120555050565b6060600d6000836001600160a01b03166001600160a01b03168152602001908152602001600020604051602001612b7b9190613f7c565b6040516020818303038152906040529050919050565b336000908152600e60209081526040909120825161249592840190613376565b6001600160a01b0381166000908152600e60205260409020805460609190612bd890613fc3565b80601f0160208091040260200160405190810160405280929190818152602001828054612c0490613fc3565b8015612c515780601f10612c2657610100808354040283529160200191612c51565b820191906000526020600020905b815481529060010190602001808311612c3457829003601f168201915b50505050509050919050565b6000546001600160a01b03163314612cb75760405162461bcd60e51b815260206004820181905260248201527f4f776e61626c653a2063616c6c6572206973206e6f7420746865206f776e65726044820152606401611011565b6001600160a01b038116612d1c5760405162461bcd60e51b815260206004820152602660248201527f4f776e61626c653a206e6577206f776e657220697320746865207a65726f206160448201526564647265737360d01b6064820152608401611011565b612d2581612d28565b50565b600080546001600160a01b038381166001600160a01b0319831681178455604051919092169283917f8be0079c531659141344cd1fd0a4f28419497f9722a3daafe3b4186f6b6457e09190a35050565b6013546040516000916001600160a01b031690638ee507bb903390612da490600690879060200161401a565b6040516020818303038152906040526040518363ffffffff1660e01b8152600401612dd09291906140b8565b602060405180830381600087803b158015612dea57600080fd5b505af1158015612dfe573d6000803e3d6000fd5b505050506040513d601f19601f82011682018060405250810190612e2291906140dc565b6013546040516331a9108f60e11b81526004810183905291925033916001600160a01b0390911690636352211e9060240160206040518083038186803b158015612e6b57600080fd5b505afa158015612e7f573d6000803e3d6000fd5b505050506040513d601f19601f82011682018060405250810190612ea391906140f5565b6001600160a01b031614612eb657600080fd5b6040805160608101825295865260208087019586528682019485523360008181526007835283812085825283528381209851895596516001808a01919091559551600290980197909755958552600a8652842080549384018155845293909220019190915550565b6013546040516000916001600160a01b031690638ee507bb903390612f4a90600690879060200161401a565b6040516020818303038152906040526040518363ffffffff1660e01b8152600401612f769291906140b8565b602060405180830381600087803b158015612f9057600080fd5b505af1158015612fa4573d6000803e3d6000fd5b505050506040513d601f19601f82011682018060405250810190612fc891906140dc565b6013546040516331a9108f60e11b81526004810183905291925033916001600160a01b0390911690636352211e9060240160206040518083038186803b15801561301157600080fd5b505afa158015613025573d6000803e3d6000fd5b505050506040513d601f19601f8201168201806040525081019061304991906140f5565b6001600160a01b03161461305c57600080fd5b6040805160608101825295865260208087019586528682019485523360008181526008835283812085825283528381209851895596516001808a01919091559551600290980197909755958552600b8652842080549384018155845293909220019190915550565b6013546040516000916001600160a01b031690638ee507bb9033906130f090600690879060200161401a565b6040516020818303038152906040526040518363ffffffff1660e01b815260040161311c9291906140b8565b602060405180830381600087803b15801561313657600080fd5b505af115801561314a573d6000803e3d6000fd5b505050506040513d601f19601f8201168201806040525081019061316e91906140dc565b6013546040516331a9108f60e11b81526004810183905291925033916001600160a01b0390911690636352211e9060240160206040518083038186803b1580156131b757600080fd5b505afa1580156131cb573d6000803e3d6000fd5b505050506040513d601f19601f820116820180604052508101906131ef91906140f5565b6001600160a01b03161461320257600080fd5b6040805160608101825295865260208087019586528682019485523360008181526009835283812085825283528381209851895596516001808a01919091559551600290980197909755958552600c8652842080549384018155845293909220019190915550565b8280548282559060005260206000209081019282156132a5579160200282015b828111156132a557825182559160200191906001019061328a565b506132b19291506133e9565b5090565b604051806101200160405280600081526020016132d06133fe565b81526020016132dd6133fe565b815260200160001515815260200160006001600160a01b03168152602001600081526020016000815260200160008152602001600081525090565b8280548282559060005260206000209081019282156132a55760005260206000209182015b828111156132a557825482559160010191906001019061333d565b5080546000825590600052602060002090810190612d2591906133e9565b82805461338290613fc3565b90600052602060002090601f0160209004810192826133a457600085556132a5565b82601f106133bd57805160ff19168380011785556132a5565b828001600101855582156132a557918201828111156132a557825182559160200191906001019061328a565b5b808211156132b157600081556001016133ea565b6040518060c0016040528060006001600160a01b0316815260200160008152602001600081526020016060815260200160608152602001606081525090565b6001600160a01b0381168114612d2557600080fd5b803561345d8161343d565b919050565b634e487b7160e01b600052604160045260246000fd5b60405160c081016001600160401b038111828210171561349a5761349a613462565b60405290565b60405161012081016001600160401b038111828210171561349a5761349a613462565b604051601f8201601f191681016001600160401b03811182821017156134eb576134eb613462565b604052919050565b60006001600160401b0382111561350c5761350c613462565b5060051b60200190565b600082601f83011261352757600080fd5b8135602061353c613537836134f3565b6134c3565b82815260059290921b8401810191818101908684111561355b57600080fd5b8286015b84811015613576578035835291830191830161355f565b509695505050505050565b6000806040838503121561359457600080fd5b823561359f8161343d565b915060208301356001600160401b038111156135ba57600080fd5b6135c685828601613516565b9150509250929050565b6000602082840312156135e257600080fd5b81356135ed8161343d565b9392505050565b60005b8381101561360f5781810151838201526020016135f7565b8381111561361e576000848401525b50505050565b6000815180845261363c8160208601602086016135f4565b601f01601f19169290920160200192915050565b6020815260006135ed6020830184613624565b6000806020838503121561367657600080fd5b82356001600160401b038082111561368d57600080fd5b818501915085601f8301126136a157600080fd5b8135818111156136b057600080fd5b8660208285010111156136c257600080fd5b60209290920196919550909350505050565b600060c082840312156136e657600080fd5b6136ee613478565b90506136f982613452565b8152602082013560208201526040820135604082015260608201356001600160401b038082111561372957600080fd5b61373585838601613516565b6060840152608084013591508082111561374e57600080fd5b61375a85838601613516565b608084015260a084013591508082111561377357600080fd5b5061378084828501613516565b60a08301525092915050565b8035801515811461345d57600080fd5b6000602082840312156137ae57600080fd5b81356001600160401b03808211156137c557600080fd5b9083019061012082860312156137da57600080fd5b6137e26134a0565b823581526020830135828111156137f857600080fd5b613804878286016136d4565b60208301525060408301358281111561381c57600080fd5b613828878286016136d4565b60408301525061383a6060840161378c565b606082015261384b60808401613452565b608082015260a083013560a082015260c083013560c082015260e083013560e08201526101009150818301358282015280935050505092915050565b600081518084526020808501945080840160005b838110156138b75781518752958201959082019060010161389b565b509495945050505050565b60018060a01b03815116825260208101516020830152604081015160408301526000606082015160c060608501526138fd60c0850182613887565b9050608083015184820360808601526139168282613887565b91505060a083015184820360a08601526139308282613887565b95945050505050565b6020815281516020820152600060208301516101208060408501526139626101408501836138c2565b91506040850151601f1985840301606086015261397f83826138c2565b9250506060850151613995608086018215159052565b5060808501516001600160a01b03811660a08601525060a085015160c085015260c085015160e085015260e0850151610100818187015280870151838701525050508091505092915050565b6000602082840312156139f357600080fd5b81356001600160401b03811115613a0957600080fd5b613a1584828501613516565b949350505050565b60006001600160401b03821115613a3657613a36613462565b50601f01601f191660200190565b600082601f830112613a5557600080fd5b8135613a6361353782613a1d565b818152846020838601011115613a7857600080fd5b816020850160208301376000918101602001919091529392505050565b600060208284031215613aa757600080fd5b81356001600160401b03811115613abd57600080fd5b613a1584828501613a44565b634e487b7160e01b600052603260045260246000fd5b634e487b7160e01b600052601160045260246000fd5b60008219821115613b0857613b08613adf565b500190565b600060208284031215613b1f57600080fd5b81516001600160401b03811115613b3557600080fd5b8201601f81018413613b4657600080fd5b8051613b5461353782613a1d565b818152856020838501011115613b6957600080fd5b6139308260208301602086016135f4565b6000600019821415613b8e57613b8e613adf565b5060010190565b600081518084526020808501945080840160005b838110156138b75781518051885283810151848901526040908101519088015260609096019590820190600101613ba9565b600081518084526020808501808196508360051b8101915082860160005b85811015613c23578284038952613c11848351613624565b98850198935090840190600101613bf9565b5091979650505050505050565b6000610120808352613c448184018d613b95565b90508281036020840152613c58818c613bdb565b90508281036040840152613c6c818b613887565b90508281036060840152613c80818a613b95565b90508281036080840152613c948189613bdb565b905082810360a0840152613ca88188613887565b905082810360c0840152613cbc8187613b95565b905082810360e0840152613cd08186613bdb565b9050828103610100840152613ce58185613887565b9c9b505050505050505050505050565b600082601f830112613d0657600080fd5b81356020613d16613537836134f3565b82815260609283028501820192828201919087851115613d3557600080fd5b8387015b85811015613d995781818a031215613d515760008081fd5b604080518381018181106001600160401b0382111715613d7357613d73613462565b825282358152868301358782015282820135918101919091528452928401928101613d39565b5090979650505050505050565b600082601f830112613db757600080fd5b81356020613dc7613537836134f3565b82815260059290921b84018101918181019086841115613de657600080fd5b8286015b848110156135765780356001600160401b03811115613e095760008081fd5b613e178986838b0101613a44565b845250918301918301613dea565b60008060008060008060008060006101208a8c031215613e4457600080fd5b8935985060208a01356001600160401b0380821115613e6257600080fd5b613e6e8d838e01613cf5565b995060408c0135915080821115613e8457600080fd5b613e908d838e01613da6565b985060608c0135975060808c0135915080821115613ead57600080fd5b613eb98d838e01613cf5565b965060a08c0135915080821115613ecf57600080fd5b613edb8d838e01613da6565b955060c08c0135945060e08c0135915080821115613ef857600080fd5b613f048d838e01613cf5565b93506101008c0135915080821115613f1b57600080fd5b50613f288c828d01613da6565b9150509295985092959850929598565b6020808252601390820152722cb7ba903430bb32903737903130ba3a36329760691b604082015260600190565b600082821015613f7757613f77613adf565b500390565b6020808252825482820181905260008481528281209092916040850190845b81811015613fb757835483526001938401939285019201613f9b565b50909695505050505050565b600181811c90821680613fd757607f821691505b60208210811415613ff857634e487b7160e01b600052602260045260246000fd5b50919050565b600081516140108185602086016135f4565b9290920192915050565b600080845481600182811c91508083168061403657607f831692505b602080841082141561405657634e487b7160e01b86526022600452602486fd5b81801561406a576001811461407b576140a8565b60ff198616895284890196506140a8565b60008b81526020902060005b868110156140a05781548b820152908501908301614087565b505084890196505b5050505050506139308185613ffe565b6001600160a01b0383168152604060208201819052600090613a1590830184613624565b6000602082840312156140ee57600080fd5b5051919050565b60006020828403121561410757600080fd5b81516135ed8161343d56fea2646970667358221220f586b96e43a788f1f30946f5e25db901dc563779e67ceae53ae678ab892a4dd764736f6c63430008090033687474703a2f2f3136372e38362e3132302e3139373a333030302f696d616765732f",
  "immutableReferences": {},
  "source": "// SPDX-License-Identifier: MIT\r\n\r\npragma solidity ^0.8.0;\r\n\r\nimport \"@openzeppelin/contracts/access/Ownable.sol\";\r\nimport './AngelAndDemonToken.sol';\r\n\r\ncontract AngelAndDemonGame is Ownable {\r\n    uint private _manaPoint;\r\n    uint private _lifePoint;\r\n    uint private _curBattleCounter;\r\n    string private _name;\r\n    string private _symbol;\r\n    string private _baseURL;\r\n\r\n    struct Monster {\r\n        uint attackPoint;\r\n        uint defensePoint;\r\n        uint manaCost;\r\n    }\r\n\r\n    struct Spell {\r\n        uint attackPoint;\r\n        uint defensePoint;\r\n        uint manaCost;\r\n    }\r\n\r\n    struct Equip {\r\n        uint attackPoint;\r\n        uint defensePoint;\r\n        uint manaCost;\r\n    }\r\n\r\n    struct BattlePlayer {\r\n        address playerAddress;\r\n        uint lifePoint;\r\n        uint manaPoint;\r\n        uint[] cardsInHand;\r\n        uint[] cardsInPlay;\r\n        uint[] cardsDeck;\r\n    }\r\n\r\n    struct Battle {\r\n        uint battleID;\r\n        BattlePlayer player1;\r\n        BattlePlayer player2;\r\n        bool isAccepted;\r\n        address winner;\r\n        uint createdAt;\r\n        uint playerState; //1 -> player1 attack, 2 -> player2 attack\r\n        uint turn;\r\n        uint isCalculated;\r\n    }\r\n\r\n    mapping (address => mapping (uint => Monster)) monsters;\r\n    mapping (address => mapping (uint => Spell)) spells;\r\n    mapping (address => mapping (uint => Equip)) equips;\r\n    mapping (address => uint[]) monsterList;\r\n    mapping (address => uint[]) spellList;\r\n    mapping (address => uint[]) equipList;\r\n    mapping (address => uint[]) deckList;\r\n    mapping (address => string) playerNames;\r\n    mapping (address => uint) currentBattles; //Battle.battleID\r\n    mapping (address => uint[]) endedBattles; //Battle Index\r\n    Battle[] currentBattleList;\r\n    Battle[] endedBattleList;\r\n\r\n    AngelAndDemonToken angelAndDemonToken;\r\n\r\n    constructor(address andToken) {\r\n        _manaPoint = 20;\r\n        _lifePoint = 100;\r\n        _name = \"AngelsAndDemonsGame\";\r\n        _symbol = \"ANGEL_AND_DEMON_GAME\";\r\n        _baseURL = \"http://167.86.120.197:3000/images/\";\r\n        _curBattleCounter = 1;\r\n        angelAndDemonToken = AngelAndDemonToken(andToken);\r\n    }\r\n\r\n    function addMonster(\r\n        uint attackPoint,\r\n        uint defensePoint,\r\n        uint manaCost,\r\n        string memory cardURL\r\n    ) private {\r\n        uint _monsterId = angelAndDemonToken.safeMintTo(msg.sender, string(abi.encodePacked(_baseURL, cardURL)));\r\n        require(angelAndDemonToken.ownerOf(_monsterId) == msg.sender);\r\n        monsters[msg.sender][_monsterId] = Monster(attackPoint, defensePoint, manaCost);\r\n        monsterList[msg.sender].push(_monsterId);\r\n    }\r\n\r\n    function addSpell(\r\n        uint attackPoint,\r\n        uint defensePoint,\r\n        uint manaCost,\r\n        string memory cardURL\r\n    ) private {\r\n        uint _spellId = angelAndDemonToken.safeMintTo(msg.sender, string(abi.encodePacked(_baseURL, cardURL)));\r\n        require(angelAndDemonToken.ownerOf(_spellId) == msg.sender);\r\n        spells[msg.sender][_spellId] = Spell(attackPoint, defensePoint, manaCost);\r\n        spellList[msg.sender].push(_spellId);\r\n    }\r\n\r\n    function addEquip(\r\n        uint attackPoint,\r\n        uint defensePoint,\r\n        uint manaCost,\r\n        string memory cardURL\r\n    ) private {\r\n        uint _equipId = angelAndDemonToken.safeMintTo(msg.sender, string(abi.encodePacked(_baseURL, cardURL)));\r\n        require(angelAndDemonToken.ownerOf(_equipId) == msg.sender);\r\n        equips[msg.sender][_equipId] = Equip(attackPoint, defensePoint, manaCost);\r\n        equipList[msg.sender].push(_equipId);\r\n    }\r\n\r\n    function addCardsToPlayer(\r\n        bytes calldata params\r\n    ) public {\r\n        (uint _monsterCount,\r\n        Monster[] memory _monsters,\r\n        string[] memory _monsterURLs,\r\n        uint _sepllCount,\r\n        Spell[] memory _spells,\r\n        string[] memory _spellURLs,\r\n        uint _equipCount,\r\n        Equip[] memory _equips,\r\n        string[] memory _equipURLs) = abi.decode(params, (uint, Monster[], string[], uint, Spell[], string[], uint, Equip[], string[]));\r\n        \r\n        for (uint i = 0; i < _monsterCount; i ++) {\r\n            addMonster(_monsters[i].attackPoint, _monsters[i].defensePoint, _monsters[i].manaCost, _monsterURLs[i]);\r\n        }\r\n\r\n        for (uint i = 0; i < _sepllCount; i ++) {\r\n            addSpell(_spells[i].attackPoint, _spells[i].defensePoint, _spells[i].manaCost, _spellURLs[i]);\r\n        }\r\n\r\n        for (uint i = 0; i < _equipCount; i ++) {\r\n            addEquip(_equips[i].attackPoint, _equips[i].defensePoint, _equips[i].manaCost, _equipURLs[i]);\r\n        }\r\n    }\r\n\r\n    function getCardsOfPlayer(address _sender) public view returns(bytes memory) {\r\n        // uint constant mLen = monsterList[_sender].length;\r\n        // uint balance[] = new uint[](size);\r\n        Monster[] memory _monsters = new Monster[](monsterList[_sender].length);\r\n        string[] memory _monsterURLs = new string[](monsterList[_sender].length);\r\n        uint[] memory _monsterIDs = new uint[](monsterList[_sender].length);\r\n        Spell[] memory _spells = new Spell[](spellList[_sender].length);\r\n        string[] memory _spellURLs = new string[](spellList[_sender].length);\r\n        uint[] memory _spellIDs = new uint[](spellList[_sender].length);\r\n        Equip[] memory _equips = new Equip[](equipList[_sender].length);\r\n        string[] memory _equipURLs = new string[](equipList[_sender].length);\r\n        uint[] memory _equipIDs = new uint[](equipList[_sender].length);\r\n\r\n        for (uint i = 0; i < monsterList[_sender].length; i ++) {\r\n            _monsters[i] = monsters[_sender][monsterList[_sender][i]];\r\n            _monsterURLs[i] = angelAndDemonToken.tokenURI(monsterList[_sender][i]);\r\n            _monsterIDs[i] = monsterList[_sender][i];\r\n        }\r\n\r\n        for (uint i = 0; i < spellList[_sender].length; i ++) {\r\n            _spells[i] = spells[_sender][spellList[_sender][i]];\r\n            _spellURLs[i] = angelAndDemonToken.tokenURI(spellList[_sender][i]);\r\n            _spellIDs[i] = spellList[_sender][i];\r\n        }\r\n\r\n        for (uint i = 0; i < equipList[_sender].length; i ++) {\r\n            _equips[i] = equips[_sender][equipList[_sender][i]];\r\n            _equipURLs[i] = angelAndDemonToken.tokenURI(equipList[_sender][i]);\r\n            _equipIDs[i] = equipList[_sender][i];\r\n        }\r\n\r\n        return abi.encode(_monsters, _monsterURLs, _monsterIDs, _spells, _spellURLs, _spellIDs, _equips, _equipURLs, _equipIDs);\r\n    }\r\n\r\n    function addCardsToDeck(uint[] memory cardIDs) public {\r\n        delete deckList[msg.sender];\r\n\r\n        for (uint i = 0; i < cardIDs.length; i ++) {\r\n            deckList[msg.sender].push(cardIDs[i]);\r\n        }\r\n    }\r\n\r\n    function getCardsFromDeck(address _sender) public view returns(bytes memory) {\r\n        return abi.encode(deckList[_sender]);\r\n    }\r\n\r\n    function setPlayerName(string memory _playerName) public {\r\n        playerNames[msg.sender] = _playerName;\r\n    }\r\n\r\n    function getPlayerName(address _playerAddress) public view returns(string memory) { \r\n        return playerNames[_playerAddress];\r\n    }\r\n\r\n    function findBattle() public {\r\n        require(currentBattles[msg.sender] == 0, 'You are already in battle.');\r\n        require(deckList[msg.sender].length == 40, 'Please select deck.');\r\n\r\n        uint i;\r\n        uint[] memory cardsDeck = new uint[](40);\r\n\r\n        for (i = 0; i < 40; i ++) {\r\n            cardsDeck[i] = deckList[msg.sender][i];\r\n        }\r\n\r\n        for (i = 0; i < currentBattleList.length; i ++) {\r\n            if (currentBattleList[i].isAccepted == false) {\r\n                break;\r\n            }\r\n        }\r\n\r\n        if (i == currentBattleList.length) {\r\n            currentBattleList.push(Battle(\r\n                _curBattleCounter,\r\n                BattlePlayer(\r\n                    msg.sender,\r\n                    100,\r\n                    10,\r\n                    new uint[](0),\r\n                    new uint[](0),\r\n                    cardsDeck\r\n                ),\r\n                BattlePlayer(\r\n                    address(0),\r\n                    0,\r\n                    0,\r\n                    new uint[](0),\r\n                    new uint[](0),\r\n                    new uint[](0)\r\n                ),\r\n                false,\r\n                address(0),\r\n                block.timestamp,\r\n                1,\r\n                1,\r\n                0\r\n            ));\r\n\r\n            currentBattles[msg.sender] = _curBattleCounter;\r\n            _curBattleCounter = _curBattleCounter + 1;\r\n        } else {\r\n            currentBattleList[i].player2 = BattlePlayer(\r\n                msg.sender,\r\n                100,\r\n                10,\r\n                new uint[](0),\r\n                new uint[](0),\r\n                cardsDeck\r\n            );\r\n            currentBattleList[i].isAccepted = true;\r\n            currentBattles[msg.sender] = currentBattleList[i].battleID;\r\n        }\r\n    }\r\n\r\n    function getBattle(address _sender) public view returns(Battle memory) {\r\n        require(currentBattles[_sender] != 0, 'You have no battle.');\r\n\r\n        uint i;\r\n\r\n        for (i = 0; i < currentBattleList.length; i ++) {\r\n            if (currentBattleList[i].battleID == currentBattles[_sender]) break;\r\n        }\r\n\r\n        require(i != currentBattleList.length, 'You have no battle.');\r\n\r\n        return currentBattleList[i];\r\n    }\r\n\r\n    function getSumOfCards(address _playerAddresss, uint[] memory _cards) public view returns(uint, uint, uint) {\r\n        Monster memory monster = monsters[_playerAddresss][_cards[0]];\r\n        uint attack = 0;\r\n        uint defense = 0;\r\n        uint mana = 0;\r\n\r\n        if (_cards.length == 2) {\r\n            if (spells[_playerAddresss][_cards[1]].attackPoint > 0) {\r\n                attack = spells[_playerAddresss][_cards[1]].attackPoint;\r\n                defense = spells[_playerAddresss][_cards[1]].defensePoint;\r\n                mana = spells[_playerAddresss][_cards[1]].manaCost;\r\n            } else {\r\n                attack = equips[_playerAddresss][_cards[1]].attackPoint;\r\n                defense = equips[_playerAddresss][_cards[1]].defensePoint;\r\n                mana = equips[_playerAddresss][_cards[1]].manaCost;\r\n            }\r\n        }\r\n        \r\n        return (monster.attackPoint + attack, monster.defensePoint + defense, monster.manaCost + mana);\r\n    }\r\n\r\n    function updateBattle(Battle memory _battle) public {\r\n        require(currentBattles[msg.sender] != 0, 'You have no battle.');\r\n\r\n        if (_battle.player1.cardsInPlay.length != 0 && _battle.player2.cardsInPlay.length != 0) {\r\n            require(_battle.isCalculated == 0, 'Please end your turn.');\r\n\r\n            (uint attack1, uint defense1, uint mana1) = getSumOfCards(_battle.player1.playerAddress, _battle.player1.cardsInPlay);\r\n            (uint attack2, uint defense2, uint mana2) = getSumOfCards(_battle.player2.playerAddress, _battle.player2.cardsInPlay);\r\n\r\n            require(mana1 <= _battle.player1.manaPoint, 'Player1 exceeds mana.');\r\n            require(mana2 <= _battle.player2.manaPoint, 'Player2 exceeds mana.');\r\n\r\n            _battle.player1.manaPoint = _battle.player1.manaPoint - mana1;\r\n            _battle.player2.manaPoint = _battle.player2.manaPoint - mana2;\r\n\r\n            if (_battle.playerState == 1 && attack1 > defense2) {\r\n                if (_battle.player2.lifePoint <= (attack1 - defense2)) {\r\n                    _battle.player2.lifePoint = 0;\r\n                } else {\r\n                    _battle.player2.lifePoint = _battle.player2.lifePoint - attack1 + defense2;\r\n                }\r\n            } else if (_battle.playerState == 2 && attack2 > defense1) {\r\n                if (_battle.player1.lifePoint <= (attack2 - defense1)) {\r\n                    _battle.player1.lifePoint = 0;\r\n                } else {\r\n                    _battle.player1.lifePoint = _battle.player1.lifePoint - attack2 + defense1;\r\n                }\r\n            }\r\n\r\n            _battle.isCalculated = 1;\r\n        }\r\n\r\n        uint i;\r\n\r\n        for (i = 0; i < currentBattleList.length; i ++) {\r\n            if (currentBattleList[i].battleID == currentBattles[msg.sender]) break;\r\n        }\r\n\r\n        require(i != currentBattleList.length, 'You have no battle.');\r\n\r\n        currentBattleList[i] = _battle;\r\n    }\r\n\r\n    function endTurn() public {\r\n        require(currentBattles[msg.sender] != 0, 'You have no battle.');\r\n\r\n        uint i;\r\n        Battle storage _battle;\r\n\r\n        for (i = 0; i < currentBattleList.length; i ++) {\r\n            if (currentBattleList[i].battleID == currentBattles[msg.sender]) break;\r\n        }\r\n\r\n        require(i != currentBattleList.length, 'You have no battle.');\r\n\r\n        _battle = currentBattleList[i];\r\n\r\n        require(_battle.isCalculated == 1, 'Attack and defense is not calculated yet.');\r\n\r\n        if (_battle.player1.lifePoint == 0 || _battle.player2.lifePoint == 0 || (_battle.playerState == 2 && _battle.turn == 5)) {\r\n            currentBattles[_battle.player1.playerAddress] = 0;\r\n            currentBattles[_battle.player2.playerAddress] = 0;\r\n            endedBattles[_battle.player1.playerAddress].push(endedBattleList.length);\r\n            endedBattles[_battle.player2.playerAddress].push(endedBattleList.length);\r\n            endedBattleList.push(_battle);\r\n            currentBattleList[i] = currentBattleList[currentBattleList.length - 1];\r\n            delete currentBattleList[currentBattleList.length - 1];\r\n            return;\r\n        }\r\n\r\n        _battle.isCalculated = 0;\r\n        _battle.player1.cardsInPlay = new uint[](0);\r\n        _battle.player2.cardsInPlay = new uint[](0);\r\n\r\n        if (_battle.playerState == 2) {\r\n            _battle.player1.cardsInHand = new uint[](0);\r\n            _battle.player2.cardsInHand = new uint[](0);\r\n            _battle.playerState = 1;\r\n            _battle.turn = _battle.turn + 1;\r\n            _battle.player1.manaPoint = _manaPoint;\r\n            _battle.player2.manaPoint = _manaPoint;\r\n        } else {\r\n            _battle.playerState = 2;\r\n        }\r\n\r\n        currentBattleList[i] = _battle;\r\n    }\r\n}",
  "sourcePath": "D:\\JCJ\\Solidity\\calm_card_game\\contracts\\AngelAndDemonGame.sol",
  "compiler": {
    "name": "solc",
    "version": "0.8.9+commit.e5eed63a.Emscripten.clang"
  },
  "schemaVersion": "3.4.3",
  "updatedAt": "2022-02-12T20:52:14.527Z",
  "networkType": "ethereum",
  "devdoc": {
    "kind": "dev",
    "methods": {
      "owner()": {
        "details": "Returns the address of the current owner."
      },
      "renounceOwnership()": {
        "details": "Leaves the contract without owner. It will not be possible to call `onlyOwner` functions anymore. Can only be called by the current owner. NOTE: Renouncing ownership will leave the contract without an owner, thereby removing any functionality that is only available to the owner."
      },
      "transferOwnership(address)": {
        "details": "Transfers ownership of the contract to a new account (`newOwner`). Can only be called by the current owner."
      }
    },
    "version": 1
  },
  "userdoc": {
    "kind": "user",
    "methods": {},
    "version": 1
  }
}