{
  "contractName": "AngelAndDemonGame",
  "abi": [
    {
      "inputs": [
        {
          "internalType": "address",
          "name": "andToken",
          "type": "address"
        }
      ],
      "stateMutability": "nonpayable",
      "type": "constructor"
    },
    {
      "anonymous": false,
      "inputs": [
        {
          "indexed": true,
          "internalType": "address",
          "name": "previousOwner",
          "type": "address"
        },
        {
          "indexed": true,
          "internalType": "address",
          "name": "newOwner",
          "type": "address"
        }
      ],
      "name": "OwnershipTransferred",
      "type": "event"
    },
    {
      "inputs": [],
      "name": "owner",
      "outputs": [
        {
          "internalType": "address",
          "name": "",
          "type": "address"
        }
      ],
      "stateMutability": "view",
      "type": "function",
      "constant": true
    },
    {
      "inputs": [],
      "name": "renounceOwnership",
      "outputs": [],
      "stateMutability": "nonpayable",
      "type": "function"
    },
    {
      "inputs": [
        {
          "internalType": "address",
          "name": "newOwner",
          "type": "address"
        }
      ],
      "name": "transferOwnership",
      "outputs": [],
      "stateMutability": "nonpayable",
      "type": "function"
    },
    {
      "inputs": [
        {
          "internalType": "bytes",
          "name": "params",
          "type": "bytes"
        }
      ],
      "name": "addCardsToPlayer",
      "outputs": [],
      "stateMutability": "nonpayable",
      "type": "function"
    },
    {
      "inputs": [
        {
          "internalType": "address",
          "name": "_sender",
          "type": "address"
        }
      ],
      "name": "getCardsOfPlayer",
      "outputs": [
        {
          "internalType": "bytes",
          "name": "",
          "type": "bytes"
        }
      ],
      "stateMutability": "view",
      "type": "function",
      "constant": true
    },
    {
      "inputs": [
        {
          "internalType": "uint256[]",
          "name": "cardIDs",
          "type": "uint256[]"
        }
      ],
      "name": "addCardsToDeck",
      "outputs": [],
      "stateMutability": "nonpayable",
      "type": "function"
    },
    {
      "inputs": [
        {
          "internalType": "address",
          "name": "_sender",
          "type": "address"
        }
      ],
      "name": "getCardsFromDeck",
      "outputs": [
        {
          "internalType": "bytes",
          "name": "",
          "type": "bytes"
        }
      ],
      "stateMutability": "view",
      "type": "function",
      "constant": true
    },
    {
      "inputs": [
        {
          "internalType": "string",
          "name": "_playerName",
          "type": "string"
        }
      ],
      "name": "setPlayerName",
      "outputs": [],
      "stateMutability": "nonpayable",
      "type": "function"
    },
    {
      "inputs": [
        {
          "internalType": "address",
          "name": "_playerAddress",
          "type": "address"
        }
      ],
      "name": "getPlayerName",
      "outputs": [
        {
          "internalType": "string",
          "name": "",
          "type": "string"
        }
      ],
      "stateMutability": "view",
      "type": "function",
      "constant": true
    },
    {
      "inputs": [],
      "name": "findBattle",
      "outputs": [],
      "stateMutability": "nonpayable",
      "type": "function"
    },
    {
      "inputs": [
        {
          "internalType": "address",
          "name": "_sender",
          "type": "address"
        }
      ],
      "name": "getBattle",
      "outputs": [
        {
          "components": [
            {
              "internalType": "uint256",
              "name": "battleID",
              "type": "uint256"
            },
            {
              "components": [
                {
                  "internalType": "address",
                  "name": "playerAddress",
                  "type": "address"
                },
                {
                  "internalType": "uint256",
                  "name": "lifePoint",
                  "type": "uint256"
                },
                {
                  "internalType": "uint256",
                  "name": "manaPoint",
                  "type": "uint256"
                },
                {
                  "internalType": "uint256[]",
                  "name": "cardsInHand",
                  "type": "uint256[]"
                },
                {
                  "internalType": "uint256[]",
                  "name": "cardsInPlay",
                  "type": "uint256[]"
                },
                {
                  "internalType": "uint256[]",
                  "name": "cardsDeck",
                  "type": "uint256[]"
                }
              ],
              "internalType": "struct AngelAndDemonGame.BattlePlayer",
              "name": "player1",
              "type": "tuple"
            },
            {
              "components": [
                {
                  "internalType": "address",
                  "name": "playerAddress",
                  "type": "address"
                },
                {
                  "internalType": "uint256",
                  "name": "lifePoint",
                  "type": "uint256"
                },
                {
                  "internalType": "uint256",
                  "name": "manaPoint",
                  "type": "uint256"
                },
                {
                  "internalType": "uint256[]",
                  "name": "cardsInHand",
                  "type": "uint256[]"
                },
                {
                  "internalType": "uint256[]",
                  "name": "cardsInPlay",
                  "type": "uint256[]"
                },
                {
                  "internalType": "uint256[]",
                  "name": "cardsDeck",
                  "type": "uint256[]"
                }
              ],
              "internalType": "struct AngelAndDemonGame.BattlePlayer",
              "name": "player2",
              "type": "tuple"
            },
            {
              "internalType": "bool",
              "name": "isAccepted",
              "type": "bool"
            },
            {
              "internalType": "address",
              "name": "winner",
              "type": "address"
            },
            {
              "internalType": "uint256",
              "name": "createdAt",
              "type": "uint256"
            },
            {
              "internalType": "uint256",
              "name": "playerState",
              "type": "uint256"
            },
            {
              "internalType": "uint256",
              "name": "turn",
              "type": "uint256"
            },
            {
              "internalType": "uint256",
              "name": "isCalculated",
              "type": "uint256"
            }
          ],
          "internalType": "struct AngelAndDemonGame.Battle",
          "name": "",
          "type": "tuple"
        }
      ],
      "stateMutability": "view",
      "type": "function",
      "constant": true
    },
    {
      "inputs": [
        {
          "internalType": "address",
          "name": "_playerAddresss",
          "type": "address"
        },
        {
          "internalType": "uint256[]",
          "name": "_cards",
          "type": "uint256[]"
        }
      ],
      "name": "getSumOfCards",
      "outputs": [
        {
          "internalType": "uint256",
          "name": "",
          "type": "uint256"
        },
        {
          "internalType": "uint256",
          "name": "",
          "type": "uint256"
        },
        {
          "internalType": "uint256",
          "name": "",
          "type": "uint256"
        }
      ],
      "stateMutability": "view",
      "type": "function",
      "constant": true
    },
    {
      "inputs": [
        {
          "components": [
            {
              "internalType": "uint256",
              "name": "battleID",
              "type": "uint256"
            },
            {
              "components": [
                {
                  "internalType": "address",
                  "name": "playerAddress",
                  "type": "address"
                },
                {
                  "internalType": "uint256",
                  "name": "lifePoint",
                  "type": "uint256"
                },
                {
                  "internalType": "uint256",
                  "name": "manaPoint",
                  "type": "uint256"
                },
                {
                  "internalType": "uint256[]",
                  "name": "cardsInHand",
                  "type": "uint256[]"
                },
                {
                  "internalType": "uint256[]",
                  "name": "cardsInPlay",
                  "type": "uint256[]"
                },
                {
                  "internalType": "uint256[]",
                  "name": "cardsDeck",
                  "type": "uint256[]"
                }
              ],
              "internalType": "struct AngelAndDemonGame.BattlePlayer",
              "name": "player1",
              "type": "tuple"
            },
            {
              "components": [
                {
                  "internalType": "address",
                  "name": "playerAddress",
                  "type": "address"
                },
                {
                  "internalType": "uint256",
                  "name": "lifePoint",
                  "type": "uint256"
                },
                {
                  "internalType": "uint256",
                  "name": "manaPoint",
                  "type": "uint256"
                },
                {
                  "internalType": "uint256[]",
                  "name": "cardsInHand",
                  "type": "uint256[]"
                },
                {
                  "internalType": "uint256[]",
                  "name": "cardsInPlay",
                  "type": "uint256[]"
                },
                {
                  "internalType": "uint256[]",
                  "name": "cardsDeck",
                  "type": "uint256[]"
                }
              ],
              "internalType": "struct AngelAndDemonGame.BattlePlayer",
              "name": "player2",
              "type": "tuple"
            },
            {
              "internalType": "bool",
              "name": "isAccepted",
              "type": "bool"
            },
            {
              "internalType": "address",
              "name": "winner",
              "type": "address"
            },
            {
              "internalType": "uint256",
              "name": "createdAt",
              "type": "uint256"
            },
            {
              "internalType": "uint256",
              "name": "playerState",
              "type": "uint256"
            },
            {
              "internalType": "uint256",
              "name": "turn",
              "type": "uint256"
            },
            {
              "internalType": "uint256",
              "name": "isCalculated",
              "type": "uint256"
            }
          ],
          "internalType": "struct AngelAndDemonGame.Battle",
          "name": "_battle",
          "type": "tuple"
        },
        {
          "internalType": "uint256",
          "name": "isPlayer1",
          "type": "uint256"
        }
      ],
      "name": "updateBattle",
      "outputs": [],
      "stateMutability": "nonpayable",
      "type": "function"
    },
    {
      "inputs": [],
      "name": "endTurn",
      "outputs": [],
      "stateMutability": "nonpayable",
      "type": "function"
    }
  ],
  "bytecode": "0x60806040523480156200001157600080fd5b50604051620046ef380380620046ef833981016040819052620000349162000229565b6200003f3362000133565b601460015560646002556040805180820190915260138082527f416e67656c73416e6444656d6f6e7347616d650000000000000000000000000060209092019182526200008f9160049162000183565b506040805180820190915260148082527f414e47454c5f414e445f44454d4f4e5f47414d450000000000000000000000006020909201918252620000d69160059162000183565b50604051806060016040528060228152602001620046cd602291398051620001079160069160209091019062000183565b506001600355601380546001600160a01b0319166001600160a01b039290921691909117905562000298565b600080546001600160a01b038381166001600160a01b0319831681178455604051919092169283917f8be0079c531659141344cd1fd0a4f28419497f9722a3daafe3b4186f6b6457e09190a35050565b82805462000191906200025b565b90600052602060002090601f016020900481019282620001b5576000855562000200565b82601f10620001d057805160ff191683800117855562000200565b8280016001018555821562000200579182015b8281111562000200578251825591602001919060010190620001e3565b506200020e92915062000212565b5090565b5b808211156200020e576000815560010162000213565b6000602082840312156200023c57600080fd5b81516001600160a01b03811681146200025457600080fd5b9392505050565b600181811c908216806200027057607f821691505b602082108114156200029257634e487b7160e01b600052602260045260246000fd5b50919050565b61442580620002a86000396000f3fe608060405234801561001057600080fd5b50600436106100ea5760003560e01c8063a833b8bf1161008c578063b7c618a211610066578063b7c618a2146101d0578063d8177369146101e3578063e18d38ce146101f6578063f2fde38b1461020957600080fd5b8063a833b8bf146101ad578063a9f53bd5146101b5578063ad227f3c146101c857600080fd5b8063715018a6116100c8578063715018a614610157578063792cf5351461015f5780638da5cb5b146101725780639461b8ed1461018d57600080fd5b80632e78e714146100ef5780634fd375b714610122578063538bded814610142575b600080fd5b6101026100fd366004613859565b61021c565b604080519384526020840192909252908201526060015b60405180910390f35b6101356101303660046138a8565b61052f565b6040516101199190613928565b610155610150366004613a03565b610fbb565b005b61015561177e565b61015561016d366004613af3565b6117e4565b6000546040516001600160a01b039091168152602001610119565b6101a061019b3660046138a8565b6119e7565b6040516101199190613c16565b610155611db8565b6101556101c3366004613cbe565b6126f1565b61015561276d565b6101356101de3660046138a8565b612e1c565b6101556101f1366004613d72565b612e69565b6101356102043660046138a8565b612e89565b6101556102173660046138a8565b612f35565b60008060008060076000876001600160a01b03166001600160a01b0316815260200190815260200160002060008660008151811061025c5761025c613da6565b602002602001015181526020019081526020016000206040518060600160405290816000820154815260200160018201548152602001600282015481525050905060008060008751600214156104f1576001600160a01b0389166000908152600860205260408120895182908b9060019081106102db576102db613da6565b602002602001015181526020019081526020016000206000015411156103f8576001600160a01b038916600090815260086020526040812089519091908a90600190811061032b5761032b613da6565b60200260200101518152602001908152602001600020600001549250600860008a6001600160a01b03166001600160a01b0316815260200190815260200160002060008960018151811061038157610381613da6565b60200260200101518152602001908152602001600020600101549150600860008a6001600160a01b03166001600160a01b031681526020019081526020016000206000896001815181106103d7576103d7613da6565b602002602001015181526020019081526020016000206002015490506104f1565b6001600160a01b038916600090815260096020526040812089519091908a90600190811061042857610428613da6565b60200260200101518152602001908152602001600020600001549250600960008a6001600160a01b03166001600160a01b0316815260200190815260200160002060008960018151811061047e5761047e613da6565b60200260200101518152602001908152602001600020600101549150600960008a6001600160a01b03166001600160a01b031681526020019081526020016000206000896001815181106104d4576104d4613da6565b602002602001015181526020019081526020016000206002015490505b83516104fe908490613dd2565b82856020015161050e9190613dd2565b82866040015161051e9190613dd2565b965096509650505050509250925092565b6001600160a01b0381166000908152600a6020526040812054606091906001600160401b038111156105635761056361373a565b6040519080825280602002602001820160405280156105b857816020015b6105a560405180606001604052806000815260200160008152602001600081525090565b8152602001906001900390816105815790505b506001600160a01b0384166000908152600a6020526040812054919250906001600160401b038111156105ed576105ed61373a565b60405190808252806020026020018201604052801561062057816020015b606081526020019060019003908161060b5790505b506001600160a01b0385166000908152600a6020526040812054919250906001600160401b038111156106555761065561373a565b60405190808252806020026020018201604052801561067e578160200160208202803683370190505b506001600160a01b0386166000908152600b6020526040812054919250906001600160401b038111156106b3576106b361373a565b60405190808252806020026020018201604052801561070857816020015b6106f560405180606001604052806000815260200160008152602001600081525090565b8152602001906001900390816106d15790505b506001600160a01b0387166000908152600b6020526040812054919250906001600160401b0381111561073d5761073d61373a565b60405190808252806020026020018201604052801561077057816020015b606081526020019060019003908161075b5790505b506001600160a01b0388166000908152600b6020526040812054919250906001600160401b038111156107a5576107a561373a565b6040519080825280602002602001820160405280156107ce578160200160208202803683370190505b506001600160a01b0389166000908152600c6020526040812054919250906001600160401b038111156108035761080361373a565b60405190808252806020026020018201604052801561085857816020015b61084560405180606001604052806000815260200160008152602001600081525090565b8152602001906001900390816108215790505b506001600160a01b038a166000908152600c6020526040812054919250906001600160401b0381111561088d5761088d61373a565b6040519080825280602002602001820160405280156108c057816020015b60608152602001906001900390816108ab5790505b506001600160a01b038b166000908152600c6020526040812054919250906001600160401b038111156108f5576108f561373a565b60405190808252806020026020018201604052801561091e578160200160208202803683370190505b50905060005b6001600160a01b038c166000908152600a6020526040902054811015610b3e576001600160a01b038c166000908152600760209081526040808320600a909252822080549192918490811061097b5761097b613da6565b9060005260206000200154815260200190815260200160002060405180606001604052908160008201548152602001600182015481526020016002820154815250508a82815181106109cf576109cf613da6565b6020026020010181905250601360009054906101000a90046001600160a01b03166001600160a01b031663c87b56dd600a60008f6001600160a01b03166001600160a01b031681526020019081526020016000208381548110610a3457610a34613da6565b90600052602060002001546040518263ffffffff1660e01b8152600401610a5d91815260200190565b60006040518083038186803b158015610a7557600080fd5b505afa158015610a89573d6000803e3d6000fd5b505050506040513d6000823e601f3d908101601f19168201604052610ab19190810190613dea565b898281518110610ac357610ac3613da6565b6020026020010181905250600a60008d6001600160a01b03166001600160a01b031681526020019081526020016000208181548110610b0457610b04613da6565b9060005260206000200154888281518110610b2157610b21613da6565b602090810291909101015280610b3681613e57565b915050610924565b5060005b6001600160a01b038c166000908152600b6020526040902054811015610d5c576001600160a01b038c166000908152600860209081526040808320600b9092528220805491929184908110610b9957610b99613da6565b906000526020600020015481526020019081526020016000206040518060600160405290816000820154815260200160018201548152602001600282015481525050878281518110610bed57610bed613da6565b6020026020010181905250601360009054906101000a90046001600160a01b03166001600160a01b031663c87b56dd600b60008f6001600160a01b03166001600160a01b031681526020019081526020016000208381548110610c5257610c52613da6565b90600052602060002001546040518263ffffffff1660e01b8152600401610c7b91815260200190565b60006040518083038186803b158015610c9357600080fd5b505afa158015610ca7573d6000803e3d6000fd5b505050506040513d6000823e601f3d908101601f19168201604052610ccf9190810190613dea565b868281518110610ce157610ce1613da6565b6020026020010181905250600b60008d6001600160a01b03166001600160a01b031681526020019081526020016000208181548110610d2257610d22613da6565b9060005260206000200154858281518110610d3f57610d3f613da6565b602090810291909101015280610d5481613e57565b915050610b42565b5060005b6001600160a01b038c166000908152600c6020526040902054811015610f7a576001600160a01b038c166000908152600960209081526040808320600c9092528220805491929184908110610db757610db7613da6565b906000526020600020015481526020019081526020016000206040518060600160405290816000820154815260200160018201548152602001600282015481525050848281518110610e0b57610e0b613da6565b6020026020010181905250601360009054906101000a90046001600160a01b03166001600160a01b031663c87b56dd600c60008f6001600160a01b03166001600160a01b031681526020019081526020016000208381548110610e7057610e70613da6565b90600052602060002001546040518263ffffffff1660e01b8152600401610e9991815260200190565b60006040518083038186803b158015610eb157600080fd5b505afa158015610ec5573d6000803e3d6000fd5b505050506040513d6000823e601f3d908101601f19168201604052610eed9190810190613dea565b838281518110610eff57610eff613da6565b6020026020010181905250600c60008d6001600160a01b03166001600160a01b031681526020019081526020016000208181548110610f4057610f40613da6565b9060005260206000200154828281518110610f5d57610f5d613da6565b602090810291909101015280610f7281613e57565b915050610d60565b50888888888888888888604051602001610f9c99989796959493929190613f0d565b6040516020818303038152906040529950505050505050505050919050565b336000908152600f6020526040902054610ff05760405162461bcd60e51b8152600401610fe790613fd2565b60405180910390fd5b60005b60115481101561105057336000908152600f6020526040902054601180548390811061102157611021613da6565b906000526020600020906012020160000154141561103e57611050565b8061104881613e57565b915050610ff3565b6011548114156110725760405162461bcd60e51b8152600401610fe790613fd2565b81600114156111e0576011818154811061108e5761108e613da6565b60009182526020918290206040805160c0810182526007601290940290920192830180546001600160a01b03168352600884015483860152600984015483830152600a9093018054825181870281018701909352808352929460608601939083018282801561111c57602002820191906000526020600020905b815481526020019060010190808311611108575b505050505081526020016004820180548060200260200160405190810160405280929190818152602001828054801561117457602002820191906000526020600020905b815481526020019060010190808311611160575b50505050508152602001600582018054806020026020016040519081016040528092919081815260200182805480156111cc57602002820191906000526020600020905b8154815260200190600101908083116111b8575b505050919092525050506040840152611341565b601181815481106111f3576111f3613da6565b60009182526020918290206040805160c0810182526001601290940290920192830180546001600160a01b0316835260028401548386015260038401548383015260049093018054825181870281018701909352808352929460608601939083018282801561128157602002820191906000526020600020905b81548152602001906001019080831161126d575b50505050508152602001600482018054806020026020016040519081016040528092919081815260200182805480156112d957602002820191906000526020600020905b8154815260200190600101908083116112c5575b505050505081526020016005820180548060200260200160405190810160405280929190818152602001828054801561133157602002820191906000526020600020905b81548152602001906001019080831161131d575b5050509190925250505060208401525b602083015160800151511580159061136157506040830151608001515115155b156115be57610100830151156113b15760405162461bcd60e51b8152602060048201526015602482015274283632b0b9b29032b732103cb7bab9103a3ab9371760591b6044820152606401610fe7565b60008060006113d086602001516000015187602001516080015161021c565b92509250925060008060006113f58960400151600001518a604001516080015161021c565b92509250925088602001516040015184111561144b5760405162461bcd60e51b8152602060048201526015602482015274283630bcb2b9189032bc31b2b2b2399036b0b7309760591b6044820152606401610fe7565b88604001516040015181111561149b5760405162461bcd60e51b8152602060048201526015602482015274283630bcb2b9191032bc31b2b2b2399036b0b7309760591b6044820152606401610fe7565b838960200151604001516114af9190613fff565b89602001516040018181525050808960400151604001516114d09190613fff565b6040808b0151015260c089015160011480156114eb57508186115b15611547576114fa8287613fff565b8960400151602001511161151a57604089015160006020909101526115af565b81868a604001516020015161152f9190613fff565b6115399190613dd2565b60408a0151602001526115af565b8860c00151600214801561155a57508483115b156115af576115698584613fff565b89602001516020015111611587576020808a015160009101526115af565b84838a602001516020015161159c9190613fff565b6115a69190613dd2565b6020808b015101525b50506001610100880152505050505b82601182815481106115d2576115d2613da6565b60009182526020918290208351601292909202019081558282015180516001830180546001600160a01b0319166001600160a01b03909216919091178155818401516002840155604082015160038401556060820151805193949293919261164292600487019290910190613542565b506080820151805161165e916004840191602090910190613542565b5060a0820151805161167a916005840191602090910190613542565b50505060408281015180516007840180546001600160a01b0319166001600160a01b03909216919091178155602080830151600886015592820151600985015560608201518051929391926116d592600a8701920190613542565b50608082015180516116f1916004840191602090910190613542565b5060a0820151805161170d916005840191602090910190613542565b5050506060820151600d8201805460808501516001600160a81b0319909116921515610100600160a81b031916929092176101006001600160a01b03909316830217905560a0830151600e83015560c0830151600f83015560e0830151601083015590910151601190910155505050565b6000546001600160a01b031633146117d85760405162461bcd60e51b815260206004820181905260248201527f4f776e61626c653a2063616c6c6572206973206e6f7420746865206f776e65726044820152606401610fe7565b6117e26000613000565b565b600080808080808080806117fa8a8c018c614146565b98509850985098509850985098509850985060005b898110156118a55761189389828151811061182c5761182c613da6565b6020026020010151600001518a838151811061184a5761184a613da6565b6020026020010151602001518b848151811061186857611868613da6565b6020026020010151604001518b858151811061188657611886613da6565b6020026020010151613050565b8061189d81613e57565b91505061180f565b5060005b8681101561193f5761192d8682815181106118c6576118c6613da6565b6020026020010151600001518783815181106118e4576118e4613da6565b60200260200101516020015188848151811061190257611902613da6565b60200260200101516040015188858151811061192057611920613da6565b60200260200101516131f6565b8061193781613e57565b9150506118a9565b5060005b838110156119d9576119c783828151811061196057611960613da6565b60200260200101516000015184838151811061197e5761197e613da6565b60200260200101516020015185848151811061199c5761199c613da6565b6020026020010151604001518585815181106119ba576119ba613da6565b602002602001015161339c565b806119d181613e57565b915050611943565b505050505050505050505050565b6119ef61358d565b6001600160a01b0382166000908152600f6020526040902054611a245760405162461bcd60e51b8152600401610fe790613fd2565b60005b601154811015611a8d576001600160a01b0383166000908152600f60205260409020546011805483908110611a5e57611a5e613da6565b9060005260206000209060120201600001541415611a7b57611a8d565b80611a8581613e57565b915050611a27565b601154811415611aaf5760405162461bcd60e51b8152600401610fe790613fd2565b60118181548110611ac257611ac2613da6565b60009182526020918290206040805161012081018252601290930290910180548352815160c0810183526001820180546001600160a01b03168252600283015482870152600383015482850152600483018054855181890281018901909652808652959693958785019593949293606086019390929190830182828015611b6857602002820191906000526020600020905b815481526020019060010190808311611b54575b5050505050815260200160048201805480602002602001604051908101604052809291908181526020018280548015611bc057602002820191906000526020600020905b815481526020019060010190808311611bac575b5050505050815260200160058201805480602002602001604051908101604052809291908181526020018280548015611c1857602002820191906000526020600020905b815481526020019060010190808311611c04575b5050509190925250505081526040805160c0810182526007840180546001600160a01b031682526008850154602083810191909152600986015483850152600a860180548551818402810184019096528086529582019593949293606086019392830182828015611ca857602002820191906000526020600020905b815481526020019060010190808311611c94575b5050505050815260200160048201805480602002602001604051908101604052809291908181526020018280548015611d0057602002820191906000526020600020905b815481526020019060010190808311611cec575b5050505050815260200160058201805480602002602001604051908101604052809291908181526020018280548015611d5857602002820191906000526020600020905b815481526020019060010190808311611d44575b505050919092525050508152600d82015460ff81161515602083015261010090046001600160a01b03166040820152600e8201546060820152600f8201546080820152601082015460a082015260119091015460c0909101529392505050565b336000908152600f6020526040902054611de45760405162461bcd60e51b8152600401610fe790613fd2565b6000805b601154821015611e4557336000908152600f60205260409020546011805484908110611e1657611e16613da6565b9060005260206000209060120201600001541415611e3357611e45565b81611e3d81613e57565b925050611de8565b601154821415611e675760405162461bcd60e51b8152600401610fe790613fd2565b60118281548110611e7a57611e7a613da6565b906000526020600020906012020190508060110154600114611ef05760405162461bcd60e51b815260206004820152602960248201527f41747461636b20616e6420646566656e7365206973206e6f742063616c63756c60448201526830ba32b2103cb2ba1760b91b6064820152608401610fe7565b60028101541580611f0357506008810154155b80611f21575080600f01546002148015611f21575080601001546005145b1561248257600180820180546001600160a01b039081166000908152600f602090815260408083208390556007870180548516845281842084905585548516845260108352818420601280548254808b0184559287528587209092019190915590548516845290832081548154808901835591855292842001919091558054948501815590819052845493027fbb8a6a4669ba250d26cd7a459eca9d215f8307e33aebe50379bc5a3617ec3444810193845582547fbb8a6a4669ba250d26cd7a459eca9d215f8307e33aebe50379bc5a3617ec3445820180546001600160a01b0319169190931617825560028501547fbb8a6a4669ba250d26cd7a459eca9d215f8307e33aebe50379bc5a3617ec344682015560038501547fbb8a6a4669ba250d26cd7a459eca9d215f8307e33aebe50379bc5a3617ec34478201556004850180548695949392612096927fbb8a6a4669ba250d26cd7a459eca9d215f8307e33aebe50379bc5a3617ec3448909101916135f0565b50600482810180546120ab92840191906135f0565b50600582810180546120c092840191906135f0565b5050506007828101805491830180546001600160a01b0319166001600160a01b039093169290921782556008808501549084015560098085015490840155600a808501805492939261211592860191906135f0565b506004828101805461212a92840191906135f0565b506005828101805461213f92840191906135f0565b505050600d8281018054918301805460ff909316151560ff1984168117825591546001600160a01b03610100918290041602610100600160a81b03199092166001600160a81b031990931692909217179055600e8083015490820155600f8083015490820155601080830154908201556011918201549082015580546121c790600190613fff565b815481106121d7576121d7613da6565b9060005260206000209060120201601183815481106121f8576121f8613da6565b6000918252602090912082546012909202019081556001808301805491830180546001600160a01b0319166001600160a01b0390931692909217825560028085015490840155600380850154908401556004808501805492939261225f92860191906135f0565b506004828101805461227492840191906135f0565b506005828101805461228992840191906135f0565b5050506007828101805491830180546001600160a01b0319166001600160a01b039093169290921782556008808501549084015560098085015490840155600a80850180549293926122de92860191906135f0565b50600482810180546122f392840191906135f0565b506005828101805461230892840191906135f0565b505050600d8281018054918301805460ff909316151560ff1984168117825591546001600160a01b03610100918290041602610100600160a81b03199092166001600160a81b031990931692909217179055600e8083015490820155600f80830154908201556010808301549082015560119182015490820155805461239090600190613fff565b815481106123a0576123a0613da6565b6000918252602082206012909102018181556001810180546001600160a01b03191681556002820183905560038201839055909190816123e36004850182613630565b6123f1600483016000613630565b6123ff600583016000613630565b50506007820180546001600160a01b031916815560006008840181905560098401819055612430600a850182613630565b61243e600483016000613630565b61244c600583016000613630565b505050600d810180546001600160a81b03191690556000600e8201819055600f8201819055601082018190556011909101555050565b60006011820181905560408051918252602082019081905290516124aa916005840191613542565b5060408051600081526020810191829052516124ca91600b840191613542565b5080600f0154600214156125485760408051600081526020810191829052516124f7916004840191613542565b50604080516000815260208101918290525161251791600a840191613542565b506001600f8201819055601082015461252f91613dd2565b6010820155600154600382018190556009820155612550565b6002600f8201555b806011838154811061256457612564613da6565b6000918252602090912082546012909202019081556001808301805491830180546001600160a01b0319166001600160a01b039093169290921782556002808501549084015560038085015490840155600480850180549293926125cb92860191906135f0565b50600482810180546125e092840191906135f0565b50600582810180546125f592840191906135f0565b5050506007828101805491830180546001600160a01b0319166001600160a01b039093169290921782556008808501549084015560098085015490840155600a808501805492939261264a92860191906135f0565b506004828101805461265f92840191906135f0565b506005828101805461267492840191906135f0565b505050600d8281018054918301805460ff909316151560ff1984168117825591546001600160a01b03610100918290041602610100600160a81b03199092166001600160a81b031990931692909217179055600e8083015490820155600f8083015490820155601080830154908201556011918201549101555050565b336000908152600d6020526040812061270991613630565b60005b815181101561276957336000908152600d60205260409020825183908390811061273857612738613da6565b602090810291909101810151825460018101845560009384529190922001558061276181613e57565b91505061270c565b5050565b336000908152600f6020526040902054156127ca5760405162461bcd60e51b815260206004820152601a60248201527f596f752061726520616c726561647920696e20626174746c652e0000000000006044820152606401610fe7565b336000908152600d602052604090205460281461281f5760405162461bcd60e51b8152602060048201526013602482015272283632b0b9b29039b2b632b1ba103232b1b59760691b6044820152606401610fe7565b60408051602880825261052082019092526000918291906020820161050080368337019050509050600091505b60288210156128b057336000908152600d6020526040902080548390811061287657612876613da6565b906000526020600020015481838151811061289357612893613da6565b6020908102919091010152816128a881613e57565b92505061284c565b600091505b60115482101561290457601182815481106128d2576128d2613da6565b60009182526020909120600d601290920201015460ff166128f257612904565b816128fc81613e57565b9250506128b5565b601154821415612ca657601160405180610120016040528060035481526020016040518060c00160405280336001600160a01b031681526020016002548152602001600154815260200160006001600160401b038111156129675761296761373a565b604051908082528060200260200182016040528015612990578160200160208202803683370190505b50815260200160006040519080825280602002602001820160405280156129c1578160200160208202803683370190505b5081526020018581525081526020016040518060c0016040528060006001600160a01b03168152602001600081526020016000815260200160006001600160401b03811115612a1257612a1261373a565b604051908082528060200260200182016040528015612a3b578160200160208202803683370190505b5081526020016000604051908082528060200260200182016040528015612a6c578160200160208202803683370190505b5081526020016000604051908082528060200260200182016040528015612a9d578160200160208202803683370190505b50905281526000602080830182905260408084018390524260608086019190915260016080860181905260a0860181905260c09095018490528654808601885596845292829020855160129097020195865584820151805194870180546001600160a01b0319166001600160a01b03909616959095178555808301516002880155908101516003870155918201518051949594929392612b439260048701920190613542565b5060808201518051612b5f916004840191602090910190613542565b5060a08201518051612b7b916005840191602090910190613542565b50505060408281015180516007840180546001600160a01b0319166001600160a01b0390921691909117815560208083015160088601559282015160098501556060820151805192939192612bd692600a8701920190613542565b5060808201518051612bf2916004840191602090910190613542565b5060a08201518051612c0e916005840191602090910190613542565b5050506060820151600d8201805460808501516001600160a81b0319909116921515610100600160a81b031916929092176101006001600160a01b03909316830217905560a0830151600e83015560c0830151600f8084019190915560e084015160108401559201516011909101556003543360009081526020929092526040909120819055612c9f906001613dd2565b6003555050565b6040805160c0810182523381526002546020808301919091526001548284015282516000808252818301855260608401919091528351908152908101909252608081019190915260a081018290526011805484908110612d0857612d08613da6565b60009182526020918290208351601292909202016007810180546001600160a01b0319166001600160a01b0390931692909217825583830151600882015560408401516009820155606084015180519293612d6b93600a90930192910190613542565b5060808201518051612d87916004840191602090910190613542565b5060a08201518051612da3916005840191602090910190613542565b50905050600160118381548110612dbc57612dbc613da6565b9060005260206000209060120201600d0160006101000a81548160ff02191690831515021790555060118281548110612df757612df7613da6565b60009182526020808320601290920290910154338352600f9091526040909120555050565b6060600d6000836001600160a01b03166001600160a01b03168152602001908152602001600020604051602001612e539190614259565b6040516020818303038152906040529050919050565b336000908152600e6020908152604090912082516127699284019061364e565b6001600160a01b0381166000908152600e60205260409020805460609190612eb0906142a0565b80601f0160208091040260200160405190810160405280929190818152602001828054612edc906142a0565b8015612f295780601f10612efe57610100808354040283529160200191612f29565b820191906000526020600020905b815481529060010190602001808311612f0c57829003601f168201915b50505050509050919050565b6000546001600160a01b03163314612f8f5760405162461bcd60e51b815260206004820181905260248201527f4f776e61626c653a2063616c6c6572206973206e6f7420746865206f776e65726044820152606401610fe7565b6001600160a01b038116612ff45760405162461bcd60e51b815260206004820152602660248201527f4f776e61626c653a206e6577206f776e657220697320746865207a65726f206160448201526564647265737360d01b6064820152608401610fe7565b612ffd81613000565b50565b600080546001600160a01b038381166001600160a01b0319831681178455604051919092169283917f8be0079c531659141344cd1fd0a4f28419497f9722a3daafe3b4186f6b6457e09190a35050565b6013546040516000916001600160a01b031690638ee507bb90339061307c9060069087906020016142f7565b6040516020818303038152906040526040518363ffffffff1660e01b81526004016130a8929190614395565b602060405180830381600087803b1580156130c257600080fd5b505af11580156130d6573d6000803e3d6000fd5b505050506040513d601f19601f820116820180604052508101906130fa91906143b9565b6013546040516331a9108f60e11b81526004810183905291925033916001600160a01b0390911690636352211e9060240160206040518083038186803b15801561314357600080fd5b505afa158015613157573d6000803e3d6000fd5b505050506040513d601f19601f8201168201806040525081019061317b91906143d2565b6001600160a01b03161461318e57600080fd5b6040805160608101825295865260208087019586528682019485523360008181526007835283812085825283528381209851895596516001808a01919091559551600290980197909755958552600a8652842080549384018155845293909220019190915550565b6013546040516000916001600160a01b031690638ee507bb9033906132229060069087906020016142f7565b6040516020818303038152906040526040518363ffffffff1660e01b815260040161324e929190614395565b602060405180830381600087803b15801561326857600080fd5b505af115801561327c573d6000803e3d6000fd5b505050506040513d601f19601f820116820180604052508101906132a091906143b9565b6013546040516331a9108f60e11b81526004810183905291925033916001600160a01b0390911690636352211e9060240160206040518083038186803b1580156132e957600080fd5b505afa1580156132fd573d6000803e3d6000fd5b505050506040513d601f19601f8201168201806040525081019061332191906143d2565b6001600160a01b03161461333457600080fd5b6040805160608101825295865260208087019586528682019485523360008181526008835283812085825283528381209851895596516001808a01919091559551600290980197909755958552600b8652842080549384018155845293909220019190915550565b6013546040516000916001600160a01b031690638ee507bb9033906133c89060069087906020016142f7565b6040516020818303038152906040526040518363ffffffff1660e01b81526004016133f4929190614395565b602060405180830381600087803b15801561340e57600080fd5b505af1158015613422573d6000803e3d6000fd5b505050506040513d601f19601f8201168201806040525081019061344691906143b9565b6013546040516331a9108f60e11b81526004810183905291925033916001600160a01b0390911690636352211e9060240160206040518083038186803b15801561348f57600080fd5b505afa1580156134a3573d6000803e3d6000fd5b505050506040513d601f19601f820116820180604052508101906134c791906143d2565b6001600160a01b0316146134da57600080fd5b6040805160608101825295865260208087019586528682019485523360008181526009835283812085825283528381209851895596516001808a01919091559551600290980197909755958552600c8652842080549384018155845293909220019190915550565b82805482825590600052602060002090810192821561357d579160200282015b8281111561357d578251825591602001919060010190613562565b506135899291506136c1565b5090565b604051806101200160405280600081526020016135a86136d6565b81526020016135b56136d6565b815260200160001515815260200160006001600160a01b03168152602001600081526020016000815260200160008152602001600081525090565b82805482825590600052602060002090810192821561357d5760005260206000209182015b8281111561357d578254825591600101919060010190613615565b5080546000825590600052602060002090810190612ffd91906136c1565b82805461365a906142a0565b90600052602060002090601f01602090048101928261367c576000855561357d565b82601f1061369557805160ff191683800117855561357d565b8280016001018555821561357d579182018281111561357d578251825591602001919060010190613562565b5b8082111561358957600081556001016136c2565b6040518060c0016040528060006001600160a01b0316815260200160008152602001600081526020016060815260200160608152602001606081525090565b6001600160a01b0381168114612ffd57600080fd5b803561373581613715565b919050565b634e487b7160e01b600052604160045260246000fd5b60405160c081016001600160401b03811182821017156137725761377261373a565b60405290565b60405161012081016001600160401b03811182821017156137725761377261373a565b604051601f8201601f191681016001600160401b03811182821017156137c3576137c361373a565b604052919050565b60006001600160401b038211156137e4576137e461373a565b5060051b60200190565b600082601f8301126137ff57600080fd5b8135602061381461380f836137cb565b61379b565b82815260059290921b8401810191818101908684111561383357600080fd5b8286015b8481101561384e5780358352918301918301613837565b509695505050505050565b6000806040838503121561386c57600080fd5b823561387781613715565b915060208301356001600160401b0381111561389257600080fd5b61389e858286016137ee565b9150509250929050565b6000602082840312156138ba57600080fd5b81356138c581613715565b9392505050565b60005b838110156138e75781810151838201526020016138cf565b838111156138f6576000848401525b50505050565b600081518084526139148160208601602086016138cc565b601f01601f19169290920160200192915050565b6020815260006138c560208301846138fc565b600060c0828403121561394d57600080fd5b613955613750565b90506139608261372a565b8152602082013560208201526040820135604082015260608201356001600160401b038082111561399057600080fd5b61399c858386016137ee565b606084015260808401359150808211156139b557600080fd5b6139c1858386016137ee565b608084015260a08401359150808211156139da57600080fd5b506139e7848285016137ee565b60a08301525092915050565b8035801515811461373557600080fd5b60008060408385031215613a1657600080fd5b82356001600160401b0380821115613a2d57600080fd5b908401906101208287031215613a4257600080fd5b613a4a613778565b82358152602083013582811115613a6057600080fd5b613a6c8882860161393b565b602083015250604083013582811115613a8457600080fd5b613a908882860161393b565b604083015250613aa2606084016139f3565b6060820152613ab36080840161372a565b608082015260a0838101359082015260c0808401359082015260e08084013590820152610100928301359281019290925250946020939093013593505050565b60008060208385031215613b0657600080fd5b82356001600160401b0380821115613b1d57600080fd5b818501915085601f830112613b3157600080fd5b813581811115613b4057600080fd5b866020828501011115613b5257600080fd5b60209290920196919550909350505050565b600081518084526020808501945080840160005b83811015613b9457815187529582019590820190600101613b78565b509495945050505050565b60018060a01b03815116825260208101516020830152604081015160408301526000606082015160c06060850152613bda60c0850182613b64565b905060808301518482036080860152613bf38282613b64565b91505060a083015184820360a0860152613c0d8282613b64565b95945050505050565b602081528151602082015260006020830151610120806040850152613c3f610140850183613b9f565b91506040850151601f19858403016060860152613c5c8382613b9f565b9250506060850151613c72608086018215159052565b5060808501516001600160a01b03811660a08601525060a085015160c085015260c085015160e085015260e0850151610100818187015280870151838701525050508091505092915050565b600060208284031215613cd057600080fd5b81356001600160401b03811115613ce657600080fd5b613cf2848285016137ee565b949350505050565b60006001600160401b03821115613d1357613d1361373a565b50601f01601f191660200190565b600082601f830112613d3257600080fd5b8135613d4061380f82613cfa565b818152846020838601011115613d5557600080fd5b816020850160208301376000918101602001919091529392505050565b600060208284031215613d8457600080fd5b81356001600160401b03811115613d9a57600080fd5b613cf284828501613d21565b634e487b7160e01b600052603260045260246000fd5b634e487b7160e01b600052601160045260246000fd5b60008219821115613de557613de5613dbc565b500190565b600060208284031215613dfc57600080fd5b81516001600160401b03811115613e1257600080fd5b8201601f81018413613e2357600080fd5b8051613e3161380f82613cfa565b818152856020838501011115613e4657600080fd5b613c0d8260208301602086016138cc565b6000600019821415613e6b57613e6b613dbc565b5060010190565b600081518084526020808501945080840160005b83811015613b945781518051885283810151848901526040908101519088015260609096019590820190600101613e86565b600081518084526020808501808196508360051b8101915082860160005b85811015613f00578284038952613eee8483516138fc565b98850198935090840190600101613ed6565b5091979650505050505050565b6000610120808352613f218184018d613e72565b90508281036020840152613f35818c613eb8565b90508281036040840152613f49818b613b64565b90508281036060840152613f5d818a613e72565b90508281036080840152613f718189613eb8565b905082810360a0840152613f858188613b64565b905082810360c0840152613f998187613e72565b905082810360e0840152613fad8186613eb8565b9050828103610100840152613fc28185613b64565b9c9b505050505050505050505050565b6020808252601390820152722cb7ba903430bb32903737903130ba3a36329760691b604082015260600190565b60008282101561401157614011613dbc565b500390565b600082601f83011261402757600080fd5b8135602061403761380f836137cb565b8281526060928302850182019282820191908785111561405657600080fd5b8387015b858110156140ba5781818a0312156140725760008081fd5b604080518381018181106001600160401b03821117156140945761409461373a565b82528235815286830135878201528282013591810191909152845292840192810161405a565b5090979650505050505050565b600082601f8301126140d857600080fd5b813560206140e861380f836137cb565b82815260059290921b8401810191818101908684111561410757600080fd5b8286015b8481101561384e5780356001600160401b0381111561412a5760008081fd5b6141388986838b0101613d21565b84525091830191830161410b565b60008060008060008060008060006101208a8c03121561416557600080fd5b8935985060208a01356001600160401b038082111561418357600080fd5b61418f8d838e01614016565b995060408c01359150808211156141a557600080fd5b6141b18d838e016140c7565b985060608c0135975060808c01359150808211156141ce57600080fd5b6141da8d838e01614016565b965060a08c01359150808211156141f057600080fd5b6141fc8d838e016140c7565b955060c08c0135945060e08c013591508082111561421957600080fd5b6142258d838e01614016565b93506101008c013591508082111561423c57600080fd5b506142498c828d016140c7565b9150509295985092959850929598565b6020808252825482820181905260008481528281209092916040850190845b8181101561429457835483526001938401939285019201614278565b50909695505050505050565b600181811c908216806142b457607f821691505b602082108114156142d557634e487b7160e01b600052602260045260246000fd5b50919050565b600081516142ed8185602086016138cc565b9290920192915050565b600080845481600182811c91508083168061431357607f831692505b602080841082141561433357634e487b7160e01b86526022600452602486fd5b818015614347576001811461435857614385565b60ff19861689528489019650614385565b60008b81526020902060005b8681101561437d5781548b820152908501908301614364565b505084890196505b505050505050613c0d81856142db565b6001600160a01b0383168152604060208201819052600090613cf2908301846138fc565b6000602082840312156143cb57600080fd5b5051919050565b6000602082840312156143e457600080fd5b81516138c58161371556fea2646970667358221220c8693210cc7e8701f11c62fb4da00116612b4af1c9057401d50bee31d127b3ad64736f6c63430008090033687474703a2f2f3136372e38362e3132302e3139373a333030302f696d616765732f",
  "immutableReferences": {},
  "source": "// SPDX-License-Identifier: MIT\r\n\r\npragma solidity ^0.8.0;\r\n\r\nimport \"@openzeppelin/contracts/access/Ownable.sol\";\r\nimport './AngelAndDemonToken.sol';\r\n\r\ncontract AngelAndDemonGame is Ownable {\r\n    uint private _manaPoint;\r\n    uint private _lifePoint;\r\n    uint private _curBattleCounter;\r\n    string private _name;\r\n    string private _symbol;\r\n    string private _baseURL;\r\n\r\n    struct Monster {\r\n        uint attackPoint;\r\n        uint defensePoint;\r\n        uint manaCost;\r\n    }\r\n\r\n    struct Spell {\r\n        uint attackPoint;\r\n        uint defensePoint;\r\n        uint manaCost;\r\n    }\r\n\r\n    struct Equip {\r\n        uint attackPoint;\r\n        uint defensePoint;\r\n        uint manaCost;\r\n    }\r\n\r\n    struct BattlePlayer {\r\n        address playerAddress;\r\n        uint lifePoint;\r\n        uint manaPoint;\r\n        uint[] cardsInHand;\r\n        uint[] cardsInPlay;\r\n        uint[] cardsDeck;\r\n    }\r\n\r\n    struct Battle {\r\n        uint battleID;\r\n        BattlePlayer player1;\r\n        BattlePlayer player2;\r\n        bool isAccepted;\r\n        address winner;\r\n        uint createdAt;\r\n        uint playerState; //1 -> player1 attack, 2 -> player2 attack\r\n        uint turn;\r\n        uint isCalculated;\r\n    }\r\n\r\n    mapping (address => mapping (uint => Monster)) monsters;\r\n    mapping (address => mapping (uint => Spell)) spells;\r\n    mapping (address => mapping (uint => Equip)) equips;\r\n    mapping (address => uint[]) monsterList;\r\n    mapping (address => uint[]) spellList;\r\n    mapping (address => uint[]) equipList;\r\n    mapping (address => uint[]) deckList;\r\n    mapping (address => string) playerNames;\r\n    mapping (address => uint) currentBattles; //Battle.battleID\r\n    mapping (address => uint[]) endedBattles; //Battle Index\r\n    Battle[] currentBattleList;\r\n    Battle[] endedBattleList;\r\n\r\n    AngelAndDemonToken angelAndDemonToken;\r\n\r\n    constructor(address andToken) {\r\n        _manaPoint = 20;\r\n        _lifePoint = 100;\r\n        _name = \"AngelsAndDemonsGame\";\r\n        _symbol = \"ANGEL_AND_DEMON_GAME\";\r\n        _baseURL = \"http://167.86.120.197:3000/images/\";\r\n        _curBattleCounter = 1;\r\n        angelAndDemonToken = AngelAndDemonToken(andToken);\r\n    }\r\n\r\n    function addMonster(\r\n        uint attackPoint,\r\n        uint defensePoint,\r\n        uint manaCost,\r\n        string memory cardURL\r\n    ) private {\r\n        uint _monsterId = angelAndDemonToken.safeMintTo(msg.sender, string(abi.encodePacked(_baseURL, cardURL)));\r\n        require(angelAndDemonToken.ownerOf(_monsterId) == msg.sender);\r\n        monsters[msg.sender][_monsterId] = Monster(attackPoint, defensePoint, manaCost);\r\n        monsterList[msg.sender].push(_monsterId);\r\n    }\r\n\r\n    function addSpell(\r\n        uint attackPoint,\r\n        uint defensePoint,\r\n        uint manaCost,\r\n        string memory cardURL\r\n    ) private {\r\n        uint _spellId = angelAndDemonToken.safeMintTo(msg.sender, string(abi.encodePacked(_baseURL, cardURL)));\r\n        require(angelAndDemonToken.ownerOf(_spellId) == msg.sender);\r\n        spells[msg.sender][_spellId] = Spell(attackPoint, defensePoint, manaCost);\r\n        spellList[msg.sender].push(_spellId);\r\n    }\r\n\r\n    function addEquip(\r\n        uint attackPoint,\r\n        uint defensePoint,\r\n        uint manaCost,\r\n        string memory cardURL\r\n    ) private {\r\n        uint _equipId = angelAndDemonToken.safeMintTo(msg.sender, string(abi.encodePacked(_baseURL, cardURL)));\r\n        require(angelAndDemonToken.ownerOf(_equipId) == msg.sender);\r\n        equips[msg.sender][_equipId] = Equip(attackPoint, defensePoint, manaCost);\r\n        equipList[msg.sender].push(_equipId);\r\n    }\r\n\r\n    function addCardsToPlayer(\r\n        bytes calldata params\r\n    ) public {\r\n        (uint _monsterCount,\r\n        Monster[] memory _monsters,\r\n        string[] memory _monsterURLs,\r\n        uint _sepllCount,\r\n        Spell[] memory _spells,\r\n        string[] memory _spellURLs,\r\n        uint _equipCount,\r\n        Equip[] memory _equips,\r\n        string[] memory _equipURLs) = abi.decode(params, (uint, Monster[], string[], uint, Spell[], string[], uint, Equip[], string[]));\r\n        \r\n        for (uint i = 0; i < _monsterCount; i ++) {\r\n            addMonster(_monsters[i].attackPoint, _monsters[i].defensePoint, _monsters[i].manaCost, _monsterURLs[i]);\r\n        }\r\n\r\n        for (uint i = 0; i < _sepllCount; i ++) {\r\n            addSpell(_spells[i].attackPoint, _spells[i].defensePoint, _spells[i].manaCost, _spellURLs[i]);\r\n        }\r\n\r\n        for (uint i = 0; i < _equipCount; i ++) {\r\n            addEquip(_equips[i].attackPoint, _equips[i].defensePoint, _equips[i].manaCost, _equipURLs[i]);\r\n        }\r\n    }\r\n\r\n    function getCardsOfPlayer(address _sender) public view returns(bytes memory) {\r\n        // uint constant mLen = monsterList[_sender].length;\r\n        // uint balance[] = new uint[](size);\r\n        Monster[] memory _monsters = new Monster[](monsterList[_sender].length);\r\n        string[] memory _monsterURLs = new string[](monsterList[_sender].length);\r\n        uint[] memory _monsterIDs = new uint[](monsterList[_sender].length);\r\n        Spell[] memory _spells = new Spell[](spellList[_sender].length);\r\n        string[] memory _spellURLs = new string[](spellList[_sender].length);\r\n        uint[] memory _spellIDs = new uint[](spellList[_sender].length);\r\n        Equip[] memory _equips = new Equip[](equipList[_sender].length);\r\n        string[] memory _equipURLs = new string[](equipList[_sender].length);\r\n        uint[] memory _equipIDs = new uint[](equipList[_sender].length);\r\n\r\n        for (uint i = 0; i < monsterList[_sender].length; i ++) {\r\n            _monsters[i] = monsters[_sender][monsterList[_sender][i]];\r\n            _monsterURLs[i] = angelAndDemonToken.tokenURI(monsterList[_sender][i]);\r\n            _monsterIDs[i] = monsterList[_sender][i];\r\n        }\r\n\r\n        for (uint i = 0; i < spellList[_sender].length; i ++) {\r\n            _spells[i] = spells[_sender][spellList[_sender][i]];\r\n            _spellURLs[i] = angelAndDemonToken.tokenURI(spellList[_sender][i]);\r\n            _spellIDs[i] = spellList[_sender][i];\r\n        }\r\n\r\n        for (uint i = 0; i < equipList[_sender].length; i ++) {\r\n            _equips[i] = equips[_sender][equipList[_sender][i]];\r\n            _equipURLs[i] = angelAndDemonToken.tokenURI(equipList[_sender][i]);\r\n            _equipIDs[i] = equipList[_sender][i];\r\n        }\r\n\r\n        return abi.encode(_monsters, _monsterURLs, _monsterIDs, _spells, _spellURLs, _spellIDs, _equips, _equipURLs, _equipIDs);\r\n    }\r\n\r\n    function addCardsToDeck(uint[] memory cardIDs) public {\r\n        delete deckList[msg.sender];\r\n\r\n        for (uint i = 0; i < cardIDs.length; i ++) {\r\n            deckList[msg.sender].push(cardIDs[i]);\r\n        }\r\n    }\r\n\r\n    function getCardsFromDeck(address _sender) public view returns(bytes memory) {\r\n        return abi.encode(deckList[_sender]);\r\n    }\r\n\r\n    function setPlayerName(string memory _playerName) public {\r\n        playerNames[msg.sender] = _playerName;\r\n    }\r\n\r\n    function getPlayerName(address _playerAddress) public view returns(string memory) { \r\n        return playerNames[_playerAddress];\r\n    }\r\n\r\n    function findBattle() public {\r\n        require(currentBattles[msg.sender] == 0, 'You are already in battle.');\r\n        require(deckList[msg.sender].length == 40, 'Please select deck.');\r\n\r\n        uint i;\r\n        uint[] memory cardsDeck = new uint[](40);\r\n\r\n        for (i = 0; i < 40; i ++) {\r\n            cardsDeck[i] = deckList[msg.sender][i];\r\n        }\r\n\r\n        for (i = 0; i < currentBattleList.length; i ++) {\r\n            if (currentBattleList[i].isAccepted == false) {\r\n                break;\r\n            }\r\n        }\r\n\r\n        if (i == currentBattleList.length) {\r\n            currentBattleList.push(Battle(\r\n                _curBattleCounter,\r\n                BattlePlayer(\r\n                    msg.sender,\r\n                    _lifePoint,\r\n                    _manaPoint,\r\n                    new uint[](0),\r\n                    new uint[](0),\r\n                    cardsDeck\r\n                ),\r\n                BattlePlayer(\r\n                    address(0),\r\n                    0,\r\n                    0,\r\n                    new uint[](0),\r\n                    new uint[](0),\r\n                    new uint[](0)\r\n                ),\r\n                false,\r\n                address(0),\r\n                block.timestamp,\r\n                1,\r\n                1,\r\n                0\r\n            ));\r\n\r\n            currentBattles[msg.sender] = _curBattleCounter;\r\n            _curBattleCounter = _curBattleCounter + 1;\r\n        } else {\r\n            currentBattleList[i].player2 = BattlePlayer(\r\n                msg.sender,\r\n                _lifePoint,\r\n                _manaPoint,\r\n                new uint[](0),\r\n                new uint[](0),\r\n                cardsDeck\r\n            );\r\n            currentBattleList[i].isAccepted = true;\r\n            currentBattles[msg.sender] = currentBattleList[i].battleID;\r\n        }\r\n    }\r\n\r\n    function getBattle(address _sender) public view returns(Battle memory) {\r\n        require(currentBattles[_sender] != 0, 'You have no battle.');\r\n\r\n        uint i;\r\n\r\n        for (i = 0; i < currentBattleList.length; i ++) {\r\n            if (currentBattleList[i].battleID == currentBattles[_sender]) break;\r\n        }\r\n\r\n        require(i != currentBattleList.length, 'You have no battle.');\r\n\r\n        return currentBattleList[i];\r\n    }\r\n\r\n    function getSumOfCards(address _playerAddresss, uint[] memory _cards) public view returns(uint, uint, uint) {\r\n        Monster memory monster = monsters[_playerAddresss][_cards[0]];\r\n        uint attack = 0;\r\n        uint defense = 0;\r\n        uint mana = 0;\r\n\r\n        if (_cards.length == 2) {\r\n            if (spells[_playerAddresss][_cards[1]].attackPoint > 0) {\r\n                attack = spells[_playerAddresss][_cards[1]].attackPoint;\r\n                defense = spells[_playerAddresss][_cards[1]].defensePoint;\r\n                mana = spells[_playerAddresss][_cards[1]].manaCost;\r\n            } else {\r\n                attack = equips[_playerAddresss][_cards[1]].attackPoint;\r\n                defense = equips[_playerAddresss][_cards[1]].defensePoint;\r\n                mana = equips[_playerAddresss][_cards[1]].manaCost;\r\n            }\r\n        }\r\n        \r\n        return (monster.attackPoint + attack, monster.defensePoint + defense, monster.manaCost + mana);\r\n    }\r\n\r\n    function updateBattle(Battle memory _battle, uint isPlayer1) public {\r\n        require(currentBattles[msg.sender] != 0, 'You have no battle.');\r\n\r\n        uint i;\r\n\r\n        for (i = 0; i < currentBattleList.length; i ++) {\r\n            if (currentBattleList[i].battleID == currentBattles[msg.sender]) break;\r\n        }\r\n\r\n        require(i != currentBattleList.length, 'You have no battle.');\r\n\r\n        if (isPlayer1 == 1) {\r\n            _battle.player2 = currentBattleList[i].player2;\r\n        } else {\r\n            _battle.player1 = currentBattleList[i].player1;\r\n        }\r\n\r\n        if (_battle.player1.cardsInPlay.length != 0 && _battle.player2.cardsInPlay.length != 0) {\r\n            require(_battle.isCalculated == 0, 'Please end your turn.');\r\n\r\n            (uint attack1, uint defense1, uint mana1) = getSumOfCards(_battle.player1.playerAddress, _battle.player1.cardsInPlay);\r\n            (uint attack2, uint defense2, uint mana2) = getSumOfCards(_battle.player2.playerAddress, _battle.player2.cardsInPlay);\r\n\r\n            require(mana1 <= _battle.player1.manaPoint, 'Player1 exceeds mana.');\r\n            require(mana2 <= _battle.player2.manaPoint, 'Player2 exceeds mana.');\r\n\r\n            _battle.player1.manaPoint = _battle.player1.manaPoint - mana1;\r\n            _battle.player2.manaPoint = _battle.player2.manaPoint - mana2;\r\n\r\n            if (_battle.playerState == 1 && attack1 > defense2) {\r\n                if (_battle.player2.lifePoint <= (attack1 - defense2)) {\r\n                    _battle.player2.lifePoint = 0;\r\n                } else {\r\n                    _battle.player2.lifePoint = _battle.player2.lifePoint - attack1 + defense2;\r\n                }\r\n            } else if (_battle.playerState == 2 && attack2 > defense1) {\r\n                if (_battle.player1.lifePoint <= (attack2 - defense1)) {\r\n                    _battle.player1.lifePoint = 0;\r\n                } else {\r\n                    _battle.player1.lifePoint = _battle.player1.lifePoint - attack2 + defense1;\r\n                }\r\n            }\r\n\r\n            _battle.isCalculated = 1;\r\n        }\r\n\r\n        currentBattleList[i] = _battle;\r\n    }\r\n\r\n    function endTurn() public {\r\n        require(currentBattles[msg.sender] != 0, 'You have no battle.');\r\n\r\n        uint i;\r\n        Battle storage _battle;\r\n\r\n        for (i = 0; i < currentBattleList.length; i ++) {\r\n            if (currentBattleList[i].battleID == currentBattles[msg.sender]) break;\r\n        }\r\n\r\n        require(i != currentBattleList.length, 'You have no battle.');\r\n\r\n        _battle = currentBattleList[i];\r\n\r\n        require(_battle.isCalculated == 1, 'Attack and defense is not calculated yet.');\r\n\r\n        if (_battle.player1.lifePoint == 0 || _battle.player2.lifePoint == 0 || (_battle.playerState == 2 && _battle.turn == 5)) {\r\n            currentBattles[_battle.player1.playerAddress] = 0;\r\n            currentBattles[_battle.player2.playerAddress] = 0;\r\n            endedBattles[_battle.player1.playerAddress].push(endedBattleList.length);\r\n            endedBattles[_battle.player2.playerAddress].push(endedBattleList.length);\r\n            endedBattleList.push(_battle);\r\n            currentBattleList[i] = currentBattleList[currentBattleList.length - 1];\r\n            delete currentBattleList[currentBattleList.length - 1];\r\n            return;\r\n        }\r\n\r\n        _battle.isCalculated = 0;\r\n        _battle.player1.cardsInPlay = new uint[](0);\r\n        _battle.player2.cardsInPlay = new uint[](0);\r\n\r\n        if (_battle.playerState == 2) {\r\n            _battle.player1.cardsInHand = new uint[](0);\r\n            _battle.player2.cardsInHand = new uint[](0);\r\n            _battle.playerState = 1;\r\n            _battle.turn = _battle.turn + 1;\r\n            _battle.player1.manaPoint = _manaPoint;\r\n            _battle.player2.manaPoint = _manaPoint;\r\n        } else {\r\n            _battle.playerState = 2;\r\n        }\r\n\r\n        currentBattleList[i] = _battle;\r\n    }\r\n}",
  "sourcePath": "D:\\JCJ\\Solidity\\calm_card_game\\contracts\\AngelAndDemonGame.sol",
  "compiler": {
    "name": "solc",
    "version": "0.8.9+commit.e5eed63a.Emscripten.clang"
  },
  "schemaVersion": "3.4.3",
  "updatedAt": "2022-02-13T02:15:40.002Z",
  "networkType": "ethereum",
  "devdoc": {
    "kind": "dev",
    "methods": {
      "owner()": {
        "details": "Returns the address of the current owner."
      },
      "renounceOwnership()": {
        "details": "Leaves the contract without owner. It will not be possible to call `onlyOwner` functions anymore. Can only be called by the current owner. NOTE: Renouncing ownership will leave the contract without an owner, thereby removing any functionality that is only available to the owner."
      },
      "transferOwnership(address)": {
        "details": "Transfers ownership of the contract to a new account (`newOwner`). Can only be called by the current owner."
      }
    },
    "version": 1
  },
  "userdoc": {
    "kind": "user",
    "methods": {},
    "version": 1
  }
}