{
  "contractName": "AngelAndDemonToken",
  "abi": [
    {
      "inputs": [],
      "stateMutability": "nonpayable",
      "type": "constructor"
    },
    {
      "anonymous": false,
      "inputs": [
        {
          "indexed": true,
          "internalType": "address",
          "name": "owner",
          "type": "address"
        },
        {
          "indexed": true,
          "internalType": "address",
          "name": "approved",
          "type": "address"
        },
        {
          "indexed": true,
          "internalType": "uint256",
          "name": "tokenId",
          "type": "uint256"
        }
      ],
      "name": "Approval",
      "type": "event"
    },
    {
      "anonymous": false,
      "inputs": [
        {
          "indexed": true,
          "internalType": "address",
          "name": "owner",
          "type": "address"
        },
        {
          "indexed": true,
          "internalType": "address",
          "name": "operator",
          "type": "address"
        },
        {
          "indexed": false,
          "internalType": "bool",
          "name": "approved",
          "type": "bool"
        }
      ],
      "name": "ApprovalForAll",
      "type": "event"
    },
    {
      "anonymous": false,
      "inputs": [
        {
          "indexed": true,
          "internalType": "address",
          "name": "previousOwner",
          "type": "address"
        },
        {
          "indexed": true,
          "internalType": "address",
          "name": "newOwner",
          "type": "address"
        }
      ],
      "name": "OwnershipTransferred",
      "type": "event"
    },
    {
      "anonymous": false,
      "inputs": [
        {
          "indexed": true,
          "internalType": "address",
          "name": "from",
          "type": "address"
        },
        {
          "indexed": true,
          "internalType": "address",
          "name": "to",
          "type": "address"
        },
        {
          "indexed": true,
          "internalType": "uint256",
          "name": "tokenId",
          "type": "uint256"
        }
      ],
      "name": "Transfer",
      "type": "event"
    },
    {
      "inputs": [
        {
          "internalType": "address",
          "name": "to",
          "type": "address"
        },
        {
          "internalType": "uint256",
          "name": "tokenId",
          "type": "uint256"
        }
      ],
      "name": "approve",
      "outputs": [],
      "stateMutability": "nonpayable",
      "type": "function"
    },
    {
      "inputs": [
        {
          "internalType": "address",
          "name": "owner",
          "type": "address"
        }
      ],
      "name": "balanceOf",
      "outputs": [
        {
          "internalType": "uint256",
          "name": "",
          "type": "uint256"
        }
      ],
      "stateMutability": "view",
      "type": "function"
    },
    {
      "inputs": [],
      "name": "devAddress",
      "outputs": [
        {
          "internalType": "address",
          "name": "",
          "type": "address"
        }
      ],
      "stateMutability": "view",
      "type": "function"
    },
    {
      "inputs": [
        {
          "internalType": "uint256",
          "name": "tokenId",
          "type": "uint256"
        }
      ],
      "name": "getApproved",
      "outputs": [
        {
          "internalType": "address",
          "name": "",
          "type": "address"
        }
      ],
      "stateMutability": "view",
      "type": "function"
    },
    {
      "inputs": [
        {
          "internalType": "address",
          "name": "owner",
          "type": "address"
        },
        {
          "internalType": "address",
          "name": "operator",
          "type": "address"
        }
      ],
      "name": "isApprovedForAll",
      "outputs": [
        {
          "internalType": "bool",
          "name": "",
          "type": "bool"
        }
      ],
      "stateMutability": "view",
      "type": "function"
    },
    {
      "inputs": [],
      "name": "name",
      "outputs": [
        {
          "internalType": "string",
          "name": "",
          "type": "string"
        }
      ],
      "stateMutability": "view",
      "type": "function"
    },
    {
      "inputs": [],
      "name": "owner",
      "outputs": [
        {
          "internalType": "address",
          "name": "",
          "type": "address"
        }
      ],
      "stateMutability": "view",
      "type": "function"
    },
    {
      "inputs": [
        {
          "internalType": "uint256",
          "name": "tokenId",
          "type": "uint256"
        }
      ],
      "name": "ownerOf",
      "outputs": [
        {
          "internalType": "address",
          "name": "",
          "type": "address"
        }
      ],
      "stateMutability": "view",
      "type": "function"
    },
    {
      "inputs": [],
      "name": "renounceOwnership",
      "outputs": [],
      "stateMutability": "nonpayable",
      "type": "function"
    },
    {
      "inputs": [
        {
          "internalType": "address",
          "name": "from",
          "type": "address"
        },
        {
          "internalType": "address",
          "name": "to",
          "type": "address"
        },
        {
          "internalType": "uint256",
          "name": "tokenId",
          "type": "uint256"
        }
      ],
      "name": "safeTransferFrom",
      "outputs": [],
      "stateMutability": "nonpayable",
      "type": "function"
    },
    {
      "inputs": [
        {
          "internalType": "address",
          "name": "from",
          "type": "address"
        },
        {
          "internalType": "address",
          "name": "to",
          "type": "address"
        },
        {
          "internalType": "uint256",
          "name": "tokenId",
          "type": "uint256"
        },
        {
          "internalType": "bytes",
          "name": "_data",
          "type": "bytes"
        }
      ],
      "name": "safeTransferFrom",
      "outputs": [],
      "stateMutability": "nonpayable",
      "type": "function"
    },
    {
      "inputs": [
        {
          "internalType": "address",
          "name": "operator",
          "type": "address"
        },
        {
          "internalType": "bool",
          "name": "approved",
          "type": "bool"
        }
      ],
      "name": "setApprovalForAll",
      "outputs": [],
      "stateMutability": "nonpayable",
      "type": "function"
    },
    {
      "inputs": [
        {
          "internalType": "bytes4",
          "name": "interfaceId",
          "type": "bytes4"
        }
      ],
      "name": "supportsInterface",
      "outputs": [
        {
          "internalType": "bool",
          "name": "",
          "type": "bool"
        }
      ],
      "stateMutability": "view",
      "type": "function"
    },
    {
      "inputs": [],
      "name": "symbol",
      "outputs": [
        {
          "internalType": "string",
          "name": "",
          "type": "string"
        }
      ],
      "stateMutability": "view",
      "type": "function"
    },
    {
      "inputs": [
        {
          "internalType": "address",
          "name": "from",
          "type": "address"
        },
        {
          "internalType": "address",
          "name": "to",
          "type": "address"
        },
        {
          "internalType": "uint256",
          "name": "tokenId",
          "type": "uint256"
        }
      ],
      "name": "transferFrom",
      "outputs": [],
      "stateMutability": "nonpayable",
      "type": "function"
    },
    {
      "inputs": [
        {
          "internalType": "address",
          "name": "newOwner",
          "type": "address"
        }
      ],
      "name": "transferOwnership",
      "outputs": [],
      "stateMutability": "nonpayable",
      "type": "function"
    },
    {
      "inputs": [
        {
          "internalType": "string",
          "name": "tokenURI_",
          "type": "string"
        }
      ],
      "name": "safeMint",
      "outputs": [],
      "stateMutability": "payable",
      "type": "function"
    },
    {
      "inputs": [
        {
          "internalType": "address",
          "name": "_to",
          "type": "address"
        },
        {
          "internalType": "string",
          "name": "tokenURI_",
          "type": "string"
        }
      ],
      "name": "safeMintTo",
      "outputs": [],
      "stateMutability": "payable",
      "type": "function"
    },
    {
      "inputs": [
        {
          "internalType": "string",
          "name": "tokenURI_",
          "type": "string"
        },
        {
          "internalType": "uint256",
          "name": "Noftokens",
          "type": "uint256"
        }
      ],
      "name": "safeMintBulk",
      "outputs": [],
      "stateMutability": "payable",
      "type": "function"
    },
    {
      "inputs": [
        {
          "internalType": "string",
          "name": "tokenURI_",
          "type": "string"
        },
        {
          "internalType": "uint256",
          "name": "Noftokens",
          "type": "uint256"
        },
        {
          "internalType": "address",
          "name": "to_",
          "type": "address"
        }
      ],
      "name": "safeMintBulkTo",
      "outputs": [],
      "stateMutability": "payable",
      "type": "function"
    },
    {
      "inputs": [
        {
          "internalType": "uint256",
          "name": "Noftokens",
          "type": "uint256"
        },
        {
          "internalType": "address",
          "name": "to_",
          "type": "address"
        },
        {
          "internalType": "string",
          "name": "uri1",
          "type": "string"
        },
        {
          "internalType": "string",
          "name": "uri2",
          "type": "string"
        },
        {
          "internalType": "string",
          "name": "uri3",
          "type": "string"
        },
        {
          "internalType": "string",
          "name": "uri4",
          "type": "string"
        }
      ],
      "name": "safeMintBulkRandomTo4",
      "outputs": [],
      "stateMutability": "payable",
      "type": "function"
    },
    {
      "inputs": [
        {
          "internalType": "uint256",
          "name": "Noftokens",
          "type": "uint256"
        },
        {
          "internalType": "address",
          "name": "to_",
          "type": "address"
        },
        {
          "internalType": "string",
          "name": "uri1",
          "type": "string"
        },
        {
          "internalType": "string",
          "name": "uri2",
          "type": "string"
        },
        {
          "internalType": "string",
          "name": "uri3",
          "type": "string"
        },
        {
          "internalType": "string",
          "name": "uri4",
          "type": "string"
        },
        {
          "internalType": "string",
          "name": "uri5",
          "type": "string"
        },
        {
          "internalType": "string",
          "name": "uri6",
          "type": "string"
        },
        {
          "internalType": "string",
          "name": "uri7",
          "type": "string"
        },
        {
          "internalType": "string",
          "name": "uri8",
          "type": "string"
        }
      ],
      "name": "safeMintBulkRandomTo8",
      "outputs": [],
      "stateMutability": "payable",
      "type": "function"
    },
    {
      "inputs": [
        {
          "internalType": "uint256",
          "name": "tokenId",
          "type": "uint256"
        }
      ],
      "name": "burn",
      "outputs": [],
      "stateMutability": "nonpayable",
      "type": "function"
    },
    {
      "inputs": [
        {
          "internalType": "uint256",
          "name": "tokenId",
          "type": "uint256"
        }
      ],
      "name": "tokenURI",
      "outputs": [
        {
          "internalType": "string",
          "name": "",
          "type": "string"
        }
      ],
      "stateMutability": "view",
      "type": "function"
    },
    {
      "inputs": [],
      "name": "getCounter",
      "outputs": [
        {
          "internalType": "uint256",
          "name": "",
          "type": "uint256"
        }
      ],
      "stateMutability": "view",
      "type": "function"
    },
    {
      "inputs": [],
      "name": "withdrawAll",
      "outputs": [],
      "stateMutability": "nonpayable",
      "type": "function"
    },
    {
      "inputs": [
        {
          "internalType": "uint256",
          "name": "tokenId",
          "type": "uint256"
        },
        {
          "internalType": "string",
          "name": "_tokenURI",
          "type": "string"
        }
      ],
      "name": "setTokenURI",
      "outputs": [],
      "stateMutability": "nonpayable",
      "type": "function"
    }
  ],
  "bytecode": "0x60806040526608e1bc9bf040006009553480156200001c57600080fd5b50604080518082018252600e81526d416e67656c616e6444656d6f6e7360901b60208083019182528351808501909452600384526210539160ea1b9084015281519192916200006e91600091620000fd565b50805162000084906001906020840190620000fd565b505050620000a16200009b620000a760201b60201c565b620000ab565b620001e0565b3390565b600780546001600160a01b038381166001600160a01b0319831681179093556040519116919082907f8be0079c531659141344cd1fd0a4f28419497f9722a3daafe3b4186f6b6457e090600090a35050565b8280546200010b90620001a3565b90600052602060002090601f0160209004810192826200012f57600085556200017a565b82601f106200014a57805160ff19168380011785556200017a565b828001600101855582156200017a579182015b828111156200017a5782518255916020019190600101906200015d565b50620001889291506200018c565b5090565b5b808211156200018857600081556001016200018d565b600181811c90821680620001b857607f821691505b60208210811415620001da57634e487b7160e01b600052602260045260246000fd5b50919050565b61223c80620001f06000396000f3fe60806040526004361061019c5760003560e01c806370a08231116100ec57806395d89b411161008a578063c87b56dd11610064578063c87b56dd14610459578063e4d83d7614610479578063e985e9c51461048c578063f2fde38b146104d557600080fd5b806395d89b4114610404578063a22cb46514610419578063b88d4fde1461043957600080fd5b80638ada066e116100c65780638ada066e146103ab5780638da5cb5b146103c05780638ee507bb146103de5780638f90f1d5146103f157600080fd5b806370a0823114610353578063715018a614610381578063853828b61461039657600080fd5b8063162094c41161015957806342842e0e1161013357806342842e0e146102e057806342966c68146103005780636352211e14610320578063695850fb1461034057600080fd5b8063162094c41461027857806323b872dd146102985780633ad10ef6146102b857600080fd5b806301ffc9a7146101a157806306fdde03146101d657806307118b11146101f8578063081812fc1461020d578063095ea7b3146102455780631611694b14610265575b600080fd5b3480156101ad57600080fd5b506101c16101bc36600461196f565b6104f5565b60405190151581526020015b60405180910390f35b3480156101e257600080fd5b506101eb610547565b6040516101cd91906119e4565b61020b610206366004611abf565b6105d9565b005b34801561021957600080fd5b5061022d610228366004611b85565b610609565b6040516001600160a01b0390911681526020016101cd565b34801561025157600080fd5b5061020b610260366004611b9e565b610696565b61020b610273366004611bc8565b6107ac565b34801561028457600080fd5b5061020b610293366004611d24565b610808565b3480156102a457600080fd5b5061020b6102b3366004611d6b565b61083d565b3480156102c457600080fd5b5061022d73c5a2fc2a14d72a5d55b3972b8963a048629ea8d081565b3480156102ec57600080fd5b5061020b6102fb366004611d6b565b61086e565b34801561030c57600080fd5b5061020b61031b366004611b85565b610889565b34801561032c57600080fd5b5061022d61033b366004611b85565b6108bf565b61020b61034e366004611da7565b610936565b34801561035f57600080fd5b5061037361036e366004611ddc565b610968565b6040519081526020016101cd565b34801561038d57600080fd5b5061020b6109ef565b3480156103a257600080fd5b5061020b610a25565b3480156103b757600080fd5b50610373610a4e565b3480156103cc57600080fd5b506007546001600160a01b031661022d565b61020b6103ec366004611df7565b610a5e565b61020b6103ff366004611e2f565b610a85565b34801561041057600080fd5b506101eb610af4565b34801561042557600080fd5b5061020b610434366004611e86565b610b03565b34801561044557600080fd5b5061020b610454366004611ec2565b610b0e565b34801561046557600080fd5b506101eb610474366004611b85565b610b3f565b61020b610487366004611f3e565b610b4a565b34801561049857600080fd5b506101c16104a7366004611f83565b6001600160a01b03918216600090815260056020908152604080832093909416825291909152205460ff1690565b3480156104e157600080fd5b5061020b6104f0366004611ddc565b610bb2565b60006001600160e01b031982166380ac58cd60e01b148061052657506001600160e01b03198216635b5e139f60e01b145b8061054157506301ffc9a760e01b6001600160e01b03198316145b92915050565b60606000805461055690611fb6565b80601f016020809104026020016040519081016040528092919081815260200182805461058290611fb6565b80156105cf5780601f106105a4576101008083540402835291602001916105cf565b820191906000526020600020905b8154815290600101906020018083116105b257829003601f168201915b5050505050905090565b6105e38585610a5e565b6105ed8584610a5e565b6105f78583610a5e565b6106018582610a5e565b505050505050565b600061061482610c4a565b61067a5760405162461bcd60e51b815260206004820152602c60248201527f4552433732313a20617070726f76656420717565727920666f72206e6f6e657860448201526b34b9ba32b73a103a37b5b2b760a11b60648201526084015b60405180910390fd5b506000908152600460205260409020546001600160a01b031690565b60006106a1826108bf565b9050806001600160a01b0316836001600160a01b0316141561070f5760405162461bcd60e51b815260206004820152602160248201527f4552433732313a20617070726f76616c20746f2063757272656e74206f776e656044820152603960f91b6064820152608401610671565b336001600160a01b038216148061072b575061072b81336104a7565b61079d5760405162461bcd60e51b815260206004820152603860248201527f4552433732313a20617070726f76652063616c6c6572206973206e6f74206f7760448201527f6e6572206e6f7220617070726f76656420666f7220616c6c00000000000000006064820152608401610671565b6107a78383610c67565b505050565b6107b68989610a5e565b6107c08988610a5e565b6107ca8987610a5e565b6107d48986610a5e565b6107de8985610a5e565b6107e88984610a5e565b6107f28983610a5e565b6107fc8982610a5e565b50505050505050505050565b610813335b83610cd5565b61082f5760405162461bcd60e51b815260040161067190611ff1565b6108398282610dbf565b5050565b6108473382610cd5565b6108635760405162461bcd60e51b815260040161067190611ff1565b6107a7838383610e4a565b6107a783838360405180602001604052806000815250610b0e565b6007546001600160a01b031633146108b35760405162461bcd60e51b815260040161067190612042565b6108bc81610fea565b50565b6000818152600260205260408120546001600160a01b0316806105415760405162461bcd60e51b815260206004820152602960248201527f4552433732313a206f776e657220717565727920666f72206e6f6e657869737460448201526832b73a103a37b5b2b760b91b6064820152608401610671565b6109483361094360085490565b610ff3565b61095a61095460085490565b82610dbf565b6108bc600880546001019055565b60006001600160a01b0382166109d35760405162461bcd60e51b815260206004820152602a60248201527f4552433732313a2062616c616e636520717565727920666f7220746865207a65604482015269726f206164647265737360b01b6064820152608401610671565b506001600160a01b031660009081526003602052604090205490565b6007546001600160a01b03163314610a195760405162461bcd60e51b815260040161067190612042565b610a23600061100d565b565b4780610a3057600080fd5b6108bc73c5a2fc2a14d72a5d55b3972b8963a048629ea8d08261105f565b6000610a5960085490565b905090565b610a6b8261094360085490565b610a7761095460085490565b610839600880546001019055565b60fa8210610ac75760405162461bcd60e51b815260206004820152600f60248201526e2a37b7903434b3b410373ab6b132b960891b6044820152606401610671565b60005b82811015610aee57610adc8285610a5e565b80610ae68161208d565b915050610aca565b50505050565b60606001805461055690611fb6565b6108393383836110f5565b610b173361080d565b610b335760405162461bcd60e51b815260040161067190611ff1565b610aee848484846111c4565b6060610541826111f7565b60fa8110610b8c5760405162461bcd60e51b815260206004820152600f60248201526e2a37b7903434b3b410373ab6b132b960891b6044820152606401610671565b60005b818110156107a757610ba083610936565b80610baa8161208d565b915050610b8f565b6007546001600160a01b03163314610bdc5760405162461bcd60e51b815260040161067190612042565b6001600160a01b038116610c415760405162461bcd60e51b815260206004820152602660248201527f4f776e61626c653a206e6577206f776e657220697320746865207a65726f206160448201526564647265737360d01b6064820152608401610671565b6108bc8161100d565b6000908152600260205260409020546001600160a01b0316151590565b600081815260046020526040902080546001600160a01b0319166001600160a01b0384169081179091558190610c9c826108bf565b6001600160a01b03167f8c5be1e5ebec7d5bd14f71427d1e84f3dd0314c0f7b2291e5b200ac8c7c3b92560405160405180910390a45050565b6000610ce082610c4a565b610d415760405162461bcd60e51b815260206004820152602c60248201527f4552433732313a206f70657261746f7220717565727920666f72206e6f6e657860448201526b34b9ba32b73a103a37b5b2b760a11b6064820152608401610671565b6000610d4c836108bf565b9050806001600160a01b0316846001600160a01b03161480610d875750836001600160a01b0316610d7c84610609565b6001600160a01b0316145b80610db757506001600160a01b0380821660009081526005602090815260408083209388168352929052205460ff165b949350505050565b610dc882610c4a565b610e2b5760405162461bcd60e51b815260206004820152602e60248201527f45524337323155524953746f726167653a2055524920736574206f66206e6f6e60448201526d32bc34b9ba32b73a103a37b5b2b760911b6064820152608401610671565b600082815260066020908152604090912082516107a79284019061188a565b826001600160a01b0316610e5d826108bf565b6001600160a01b031614610ec55760405162461bcd60e51b815260206004820152602960248201527f4552433732313a207472616e73666572206f6620746f6b656e2074686174206960448201526839903737ba1037bbb760b91b6064820152608401610671565b6001600160a01b038216610f275760405162461bcd60e51b8152602060048201526024808201527f4552433732313a207472616e7366657220746f20746865207a65726f206164646044820152637265737360e01b6064820152608401610671565b610f32600082610c67565b6001600160a01b0383166000908152600360205260408120805460019290610f5b9084906120a8565b90915550506001600160a01b0382166000908152600360205260408120805460019290610f899084906120bf565b909155505060008181526002602052604080822080546001600160a01b0319166001600160a01b0386811691821790925591518493918716917fddf252ad1be2c89b69c2b068fc378daa952ba7f163c4a11628f55a4df523b3ef91a4505050565b6108bc81611366565b6108398282604051806020016040528060008152506113a6565b600780546001600160a01b038381166001600160a01b0319831681179093556040519116919082907f8be0079c531659141344cd1fd0a4f28419497f9722a3daafe3b4186f6b6457e090600090a35050565b6000826001600160a01b03168260405160006040518083038185875af1925050503d80600081146110ac576040519150601f19603f3d011682016040523d82523d6000602084013e6110b1565b606091505b50509050806107a75760405162461bcd60e51b815260206004820152601060248201526f2a3930b739b332b9103330b4b632b21760811b6044820152606401610671565b816001600160a01b0316836001600160a01b031614156111575760405162461bcd60e51b815260206004820152601960248201527f4552433732313a20617070726f766520746f2063616c6c6572000000000000006044820152606401610671565b6001600160a01b03838116600081815260056020908152604080832094871680845294825291829020805460ff191686151590811790915591519182527f17307eab39ab6107e8899845ad3d59bd9653f200f220920489ca2b5937696c31910160405180910390a3505050565b6111cf848484610e4a565b6111db848484846113d9565b610aee5760405162461bcd60e51b8152600401610671906120d7565b606061120282610c4a565b6112685760405162461bcd60e51b815260206004820152603160248201527f45524337323155524953746f726167653a2055524920717565727920666f72206044820152703737b732bc34b9ba32b73a103a37b5b2b760791b6064820152608401610671565b6000828152600660205260408120805461128190611fb6565b80601f01602080910402602001604051908101604052809291908181526020018280546112ad90611fb6565b80156112fa5780601f106112cf576101008083540402835291602001916112fa565b820191906000526020600020905b8154815290600101906020018083116112dd57829003601f168201915b50505050509050600061131860408051602081019091526000815290565b905080516000141561132b575092915050565b81511561135d578082604051602001611345929190612129565b60405160208183030381529060405292505050919050565b610db7846114e6565b61136f816115be565b6000818152600660205260409020805461138890611fb6565b1590506108bc5760008181526006602052604081206108bc9161190e565b6113b08383611659565b6113bd60008484846113d9565b6107a75760405162461bcd60e51b8152600401610671906120d7565b60006001600160a01b0384163b156114db57604051630a85bd0160e11b81526001600160a01b0385169063150b7a029061141d903390899088908890600401612158565b602060405180830381600087803b15801561143757600080fd5b505af1925050508015611467575060408051601f3d908101601f1916820190925261146491810190612195565b60015b6114c1573d808015611495576040519150601f19603f3d011682016040523d82523d6000602084013e61149a565b606091505b5080516114b95760405162461bcd60e51b8152600401610671906120d7565b805181602001fd5b6001600160e01b031916630a85bd0160e11b149050610db7565b506001949350505050565b60606114f182610c4a565b6115555760405162461bcd60e51b815260206004820152602f60248201527f4552433732314d657461646174613a2055524920717565727920666f72206e6f60448201526e3732bc34b9ba32b73a103a37b5b2b760891b6064820152608401610671565b600061156c60408051602081019091526000815290565b9050600081511161158c57604051806020016040528060008152506115b7565b806115968461178c565b6040516020016115a7929190612129565b6040516020818303038152906040525b9392505050565b60006115c9826108bf565b90506115d6600083610c67565b6001600160a01b03811660009081526003602052604081208054600192906115ff9084906120a8565b909155505060008281526002602052604080822080546001600160a01b0319169055518391906001600160a01b038416907fddf252ad1be2c89b69c2b068fc378daa952ba7f163c4a11628f55a4df523b3ef908390a45050565b6001600160a01b0382166116af5760405162461bcd60e51b815260206004820181905260248201527f4552433732313a206d696e7420746f20746865207a65726f20616464726573736044820152606401610671565b6116b881610c4a565b156117055760405162461bcd60e51b815260206004820152601c60248201527f4552433732313a20746f6b656e20616c7265616479206d696e746564000000006044820152606401610671565b6001600160a01b038216600090815260036020526040812080546001929061172e9084906120bf565b909155505060008181526002602052604080822080546001600160a01b0319166001600160a01b03861690811790915590518392907fddf252ad1be2c89b69c2b068fc378daa952ba7f163c4a11628f55a4df523b3ef908290a45050565b6060816117b05750506040805180820190915260018152600360fc1b602082015290565b8160005b81156117da57806117c48161208d565b91506117d39050600a836121c8565b91506117b4565b60008167ffffffffffffffff8111156117f5576117f5611a13565b6040519080825280601f01601f19166020018201604052801561181f576020820181803683370190505b5090505b8415610db7576118346001836120a8565b9150611841600a866121dc565b61184c9060306120bf565b60f81b818381518110611861576118616121f0565b60200101906001600160f81b031916908160001a905350611883600a866121c8565b9450611823565b82805461189690611fb6565b90600052602060002090601f0160209004810192826118b857600085556118fe565b82601f106118d157805160ff19168380011785556118fe565b828001600101855582156118fe579182015b828111156118fe5782518255916020019190600101906118e3565b5061190a929150611944565b5090565b50805461191a90611fb6565b6000825580601f1061192a575050565b601f0160209004906000526020600020908101906108bc91905b5b8082111561190a5760008155600101611945565b6001600160e01b0319811681146108bc57600080fd5b60006020828403121561198157600080fd5b81356115b781611959565b60005b838110156119a757818101518382015260200161198f565b83811115610aee5750506000910152565b600081518084526119d081602086016020860161198c565b601f01601f19169290920160200192915050565b6020815260006115b760208301846119b8565b80356001600160a01b0381168114611a0e57600080fd5b919050565b634e487b7160e01b600052604160045260246000fd5b600067ffffffffffffffff80841115611a4457611a44611a13565b604051601f8501601f19908116603f01168101908282118183101715611a6c57611a6c611a13565b81604052809350858152868686011115611a8557600080fd5b858560208301376000602087830101525050509392505050565b600082601f830112611ab057600080fd5b6115b783833560208501611a29565b60008060008060008060c08789031215611ad857600080fd5b86359550611ae8602088016119f7565b9450604087013567ffffffffffffffff80821115611b0557600080fd5b611b118a838b01611a9f565b95506060890135915080821115611b2757600080fd5b611b338a838b01611a9f565b94506080890135915080821115611b4957600080fd5b611b558a838b01611a9f565b935060a0890135915080821115611b6b57600080fd5b50611b7889828a01611a9f565b9150509295509295509295565b600060208284031215611b9757600080fd5b5035919050565b60008060408385031215611bb157600080fd5b611bba836119f7565b946020939093013593505050565b6000806000806000806000806000806101408b8d031215611be857600080fd5b8a359950611bf860208c016119f7565b985060408b013567ffffffffffffffff80821115611c1557600080fd5b611c218e838f01611a9f565b995060608d0135915080821115611c3757600080fd5b611c438e838f01611a9f565b985060808d0135915080821115611c5957600080fd5b611c658e838f01611a9f565b975060a08d0135915080821115611c7b57600080fd5b611c878e838f01611a9f565b965060c08d0135915080821115611c9d57600080fd5b611ca98e838f01611a9f565b955060e08d0135915080821115611cbf57600080fd5b611ccb8e838f01611a9f565b94506101008d0135915080821115611ce257600080fd5b611cee8e838f01611a9f565b93506101208d0135915080821115611d0557600080fd5b50611d128d828e01611a9f565b9150509295989b9194979a5092959850565b60008060408385031215611d3757600080fd5b82359150602083013567ffffffffffffffff811115611d5557600080fd5b611d6185828601611a9f565b9150509250929050565b600080600060608486031215611d8057600080fd5b611d89846119f7565b9250611d97602085016119f7565b9150604084013590509250925092565b600060208284031215611db957600080fd5b813567ffffffffffffffff811115611dd057600080fd5b610db784828501611a9f565b600060208284031215611dee57600080fd5b6115b7826119f7565b60008060408385031215611e0a57600080fd5b611e13836119f7565b9150602083013567ffffffffffffffff811115611d5557600080fd5b600080600060608486031215611e4457600080fd5b833567ffffffffffffffff811115611e5b57600080fd5b611e6786828701611a9f565b93505060208401359150611e7d604085016119f7565b90509250925092565b60008060408385031215611e9957600080fd5b611ea2836119f7565b915060208301358015158114611eb757600080fd5b809150509250929050565b60008060008060808587031215611ed857600080fd5b611ee1856119f7565b9350611eef602086016119f7565b925060408501359150606085013567ffffffffffffffff811115611f1257600080fd5b8501601f81018713611f2357600080fd5b611f3287823560208401611a29565b91505092959194509250565b60008060408385031215611f5157600080fd5b823567ffffffffffffffff811115611f6857600080fd5b611f7485828601611a9f565b95602094909401359450505050565b60008060408385031215611f9657600080fd5b611f9f836119f7565b9150611fad602084016119f7565b90509250929050565b600181811c90821680611fca57607f821691505b60208210811415611feb57634e487b7160e01b600052602260045260246000fd5b50919050565b60208082526031908201527f4552433732313a207472616e736665722063616c6c6572206973206e6f74206f6040820152701ddb995c881b9bdc88185c1c1c9bdd9959607a1b606082015260800190565b6020808252818101527f4f776e61626c653a2063616c6c6572206973206e6f7420746865206f776e6572604082015260600190565b634e487b7160e01b600052601160045260246000fd5b60006000198214156120a1576120a1612077565b5060010190565b6000828210156120ba576120ba612077565b500390565b600082198211156120d2576120d2612077565b500190565b60208082526032908201527f4552433732313a207472616e7366657220746f206e6f6e20455243373231526560408201527131b2b4bb32b91034b6b83632b6b2b73a32b960711b606082015260800190565b6000835161213b81846020880161198c565b83519083019061214f81836020880161198c565b01949350505050565b6001600160a01b038581168252841660208201526040810183905260806060820181905260009061218b908301846119b8565b9695505050505050565b6000602082840312156121a757600080fd5b81516115b781611959565b634e487b7160e01b600052601260045260246000fd5b6000826121d7576121d76121b2565b500490565b6000826121eb576121eb6121b2565b500690565b634e487b7160e01b600052603260045260246000fdfea264697066735822122022f9436d188b1b60e4717ece942f1f5f5e6fe67692f64d49bbf231f5853801cb64736f6c63430008090033",
  "immutableReferences": {},
  "source": "pragma solidity ^0.8.2;\r\n\r\nimport \"@openzeppelin/contracts/token/ERC721/ERC721.sol\";\r\nimport \"@openzeppelin/contracts/token/ERC721/extensions/ERC721URIStorage.sol\";\r\nimport \"@openzeppelin/contracts/access/Ownable.sol\";\r\nimport \"@openzeppelin/contracts/utils/Counters.sol\";\r\n\r\ncontract AngelAndDemonToken is ERC721, ERC721URIStorage, Ownable {\r\n    using Counters for Counters.Counter;\r\n\r\n    Counters.Counter private _tokenIdCounter;\r\n\t//uint256 MAX_TOKENS=10000;\r\n\tuint256 FEE=2500000000000000;\r\n\taddress public constant devAddress = 0xc5A2fC2A14D72a5d55B3972b8963a048629eA8d0;\r\n\tstring[] tokenuris;\r\n\r\n    constructor() ERC721(\"AngelandDemons\", \"AND\") {\r\n\t\t\r\n\t}\r\n\r\n    function safeMint(string memory tokenURI_) public payable {\r\n\t\t//require(isSaleActive, \"Sale is currently not active\");\r\n\t\t//require(MAX_TOKENS > _tokenIdCounter.current() + 1, \"Not enough tokens left to buy.\");\r\n\t\t//require(msg.value >= FEE , \"Amount of ether sent not correct.\");\r\n\t\t\r\n\t\t_safeMint(msg.sender, _tokenIdCounter.current());\r\n\t\t_setTokenURI(_tokenIdCounter.current(), tokenURI_);\r\n\t\t_tokenIdCounter.increment();\r\n\t}\r\n\t\r\n\tfunction safeMintTo(address _to, string memory tokenURI_) public payable {\r\n\t\t//require(isSaleActive, \"Sale is currently not active\");\r\n\t\t//require(MAX_TOKENS > _tokenIdCounter.current() + 1, \"Not enough tokens left to buy.\");\r\n\t\t//require(msg.value >= FEE, \"Value below price\");\r\n\r\n\t\t_safeMint(_to, _tokenIdCounter.current());\r\n\t\t_setTokenURI(_tokenIdCounter.current(), tokenURI_);\r\n\t\t_tokenIdCounter.increment();\t\t\r\n\t}\r\n\t\r\n\tfunction safeMintBulk(string memory tokenURI_, uint Noftokens) public payable {\r\n\t\t//require(isSaleActive, \"Sale is currently not active\");\r\n\t\t//require(MAX_TOKENS > _tokenIdCounter.current() + 1, \"Not enough tokens left to buy.\");\r\n\t\trequire(Noftokens < 250,'Too high number'); //let's try a limit of 250\r\n\t\t\r\n\t\tfor (uint i = 0; i < Noftokens; i ++) {\r\n\t\t\tsafeMint(tokenURI_);\r\n\t\t}\r\n\t}\r\n\t\r\n\tfunction safeMintBulkTo(string memory tokenURI_, uint Noftokens, address to_) public payable {\r\n\t\t//require(isSaleActive, \"Sale is currently not active\");\r\n\t\t//require(MAX_TOKENS > _tokenIdCounter.current() + 1, \"Not enough tokens left to buy.\");\r\n\t\trequire(Noftokens < 250,'Too high number'); //let's try a limit of 250\r\n\t\t\r\n\t\tfor (uint i = 0; i < Noftokens; i ++) {\r\n\t\t\tsafeMintTo(to_,tokenURI_);\r\n\t\t}\r\n\t}\r\n\t\r\n\tfunction safeMintBulkRandomTo4(uint Noftokens, address to_, string memory uri1, string memory uri2, string memory uri3, string memory uri4) public payable {\r\n\t\t//require(isSaleActive, \"Sale is currently not active\");\r\n\t\t//require(MAX_TOKENS > _tokenIdCounter.current() + 1, \"Not enough tokens left to buy.\");\r\n\t\t//require (Noftokens < 250,'Too high number'); //let's try a limit of 250\r\n\t\t\t\t\t\t\r\n\t\tsafeMintTo(to_,uri1);\r\n\t\tsafeMintTo(to_,uri2);\r\n\t\tsafeMintTo(to_,uri3);\r\n\t\tsafeMintTo(to_,uri4);\r\n\t}\r\n\t\r\n\tfunction safeMintBulkRandomTo8(uint Noftokens, address to_, string memory uri1, string memory uri2, string memory uri3, string memory uri4,string memory uri5, string memory uri6, string memory uri7, string memory uri8) public payable {\r\n\t\t//require(isSaleActive, \"Sale is currently not active\");\r\n\t\t//require(MAX_TOKENS > _tokenIdCounter.current() + 1, \"Not enough tokens left to buy.\");\r\n\t\t//require (Noftokens < 250,'Too high number'); //let's try a limit of 250\r\n\t\t\t\t\t\t\r\n\t\tsafeMintTo(to_,uri1);\r\n\t\tsafeMintTo(to_,uri2);\r\n\t\tsafeMintTo(to_,uri3);\r\n\t\tsafeMintTo(to_,uri4);\r\n\t\tsafeMintTo(to_,uri5);\r\n\t\tsafeMintTo(to_,uri6);\r\n\t\tsafeMintTo(to_,uri7);\r\n\t\tsafeMintTo(to_,uri8);\r\n\t}\r\n\t\r\n\r\n    // The following functions are overrides required by Solidity.\r\n\r\n    function _burn(uint256 tokenId) internal override(ERC721, ERC721URIStorage) {\r\n        super._burn(tokenId);\r\n    }\r\n\t\r\n\tfunction burn(uint256 tokenId) public onlyOwner{\r\n        _burn(tokenId);\r\n    }\r\n\r\n    function tokenURI(uint256 tokenId)\r\n        public\r\n        view\r\n        override(ERC721, ERC721URIStorage)\r\n        returns (string memory)\r\n    {\r\n        return super.tokenURI(tokenId);\r\n    }\r\n\t\r\n\t//Return current counter value\r\n\tfunction getCounter()\r\n        public\r\n        view\r\n        returns (uint256)\r\n    {\r\n        return _tokenIdCounter.current();\r\n    }\r\n\t\r\n\tfunction withdrawAll() public {\r\n        uint256 balance = address(this).balance;\r\n        require(balance > 0);\r\n        _widthdraw(devAddress, balance);\r\n    }\r\n\t\r\n\tfunction _widthdraw(address _address, uint256 _amount) private {\r\n        (bool success, ) = _address.call{value: _amount}(\"\");\r\n        require(success, \"Transfer failed.\");\r\n    }\r\n\t\r\n\tfunction setTokenURI(uint256 tokenId, string memory _tokenURI) public {\r\n        require(\r\n            _isApprovedOrOwner(_msgSender(), tokenId),\r\n            \"ERC721: transfer caller is not owner nor approved\"\r\n        );\r\n        _setTokenURI(tokenId, _tokenURI);\r\n    }\r\n}",
  "sourcePath": "D:\\JCJ\\Solidity\\calm_card_game\\contracts\\AngelAndDemonToken.sol",
  "compiler": {
    "name": "solc",
    "version": "0.8.9+commit.e5eed63a.Emscripten.clang"
  },
  "schemaVersion": "3.4.3",
  "updatedAt": "2022-02-04T02:23:44.448Z",
  "devdoc": {
    "kind": "dev",
    "methods": {
      "approve(address,uint256)": {
        "details": "See {IERC721-approve}."
      },
      "balanceOf(address)": {
        "details": "See {IERC721-balanceOf}."
      },
      "getApproved(uint256)": {
        "details": "See {IERC721-getApproved}."
      },
      "isApprovedForAll(address,address)": {
        "details": "See {IERC721-isApprovedForAll}."
      },
      "name()": {
        "details": "See {IERC721Metadata-name}."
      },
      "owner()": {
        "details": "Returns the address of the current owner."
      },
      "ownerOf(uint256)": {
        "details": "See {IERC721-ownerOf}."
      },
      "renounceOwnership()": {
        "details": "Leaves the contract without owner. It will not be possible to call `onlyOwner` functions anymore. Can only be called by the current owner. NOTE: Renouncing ownership will leave the contract without an owner, thereby removing any functionality that is only available to the owner."
      },
      "safeTransferFrom(address,address,uint256)": {
        "details": "See {IERC721-safeTransferFrom}."
      },
      "safeTransferFrom(address,address,uint256,bytes)": {
        "details": "See {IERC721-safeTransferFrom}."
      },
      "setApprovalForAll(address,bool)": {
        "details": "See {IERC721-setApprovalForAll}."
      },
      "supportsInterface(bytes4)": {
        "details": "See {IERC165-supportsInterface}."
      },
      "symbol()": {
        "details": "See {IERC721Metadata-symbol}."
      },
      "transferFrom(address,address,uint256)": {
        "details": "See {IERC721-transferFrom}."
      },
      "transferOwnership(address)": {
        "details": "Transfers ownership of the contract to a new account (`newOwner`). Can only be called by the current owner."
      }
    },
    "version": 1
  },
  "userdoc": {
    "kind": "user",
    "methods": {},
    "version": 1
  }
}