{
  "contractName": "AngelAndDemonGame",
  "abi": [
    {
      "inputs": [
        {
          "internalType": "address",
          "name": "andToken",
          "type": "address"
        }
      ],
      "stateMutability": "nonpayable",
      "type": "constructor"
    },
    {
      "anonymous": false,
      "inputs": [
        {
          "indexed": true,
          "internalType": "address",
          "name": "previousOwner",
          "type": "address"
        },
        {
          "indexed": true,
          "internalType": "address",
          "name": "newOwner",
          "type": "address"
        }
      ],
      "name": "OwnershipTransferred",
      "type": "event"
    },
    {
      "inputs": [],
      "name": "owner",
      "outputs": [
        {
          "internalType": "address",
          "name": "",
          "type": "address"
        }
      ],
      "stateMutability": "view",
      "type": "function"
    },
    {
      "inputs": [],
      "name": "renounceOwnership",
      "outputs": [],
      "stateMutability": "nonpayable",
      "type": "function"
    },
    {
      "inputs": [
        {
          "internalType": "address",
          "name": "newOwner",
          "type": "address"
        }
      ],
      "name": "transferOwnership",
      "outputs": [],
      "stateMutability": "nonpayable",
      "type": "function"
    },
    {
      "inputs": [
        {
          "internalType": "bytes",
          "name": "params",
          "type": "bytes"
        }
      ],
      "name": "addCardsToPlayer",
      "outputs": [],
      "stateMutability": "nonpayable",
      "type": "function"
    },
    {
      "inputs": [
        {
          "internalType": "address",
          "name": "_sender",
          "type": "address"
        }
      ],
      "name": "getCardsOfPlayer",
      "outputs": [
        {
          "internalType": "bytes",
          "name": "",
          "type": "bytes"
        }
      ],
      "stateMutability": "view",
      "type": "function"
    },
    {
      "inputs": [
        {
          "internalType": "uint256[]",
          "name": "cardIDs",
          "type": "uint256[]"
        }
      ],
      "name": "addCardsToDeck",
      "outputs": [],
      "stateMutability": "nonpayable",
      "type": "function"
    },
    {
      "inputs": [
        {
          "internalType": "address",
          "name": "_sender",
          "type": "address"
        }
      ],
      "name": "getCardsFromDeck",
      "outputs": [
        {
          "internalType": "bytes",
          "name": "",
          "type": "bytes"
        }
      ],
      "stateMutability": "view",
      "type": "function"
    },
    {
      "inputs": [
        {
          "internalType": "string",
          "name": "_playerName",
          "type": "string"
        }
      ],
      "name": "setPlayerName",
      "outputs": [],
      "stateMutability": "nonpayable",
      "type": "function"
    },
    {
      "inputs": [
        {
          "internalType": "address",
          "name": "_playerAddress",
          "type": "address"
        }
      ],
      "name": "getPlayerName",
      "outputs": [
        {
          "internalType": "string",
          "name": "",
          "type": "string"
        }
      ],
      "stateMutability": "view",
      "type": "function"
    },
    {
      "inputs": [],
      "name": "findBattle",
      "outputs": [],
      "stateMutability": "nonpayable",
      "type": "function"
    },
    {
      "inputs": [
        {
          "internalType": "address",
          "name": "_sender",
          "type": "address"
        }
      ],
      "name": "getBattle",
      "outputs": [
        {
          "components": [
            {
              "internalType": "uint256",
              "name": "battleID",
              "type": "uint256"
            },
            {
              "components": [
                {
                  "internalType": "address",
                  "name": "playerAddress",
                  "type": "address"
                },
                {
                  "internalType": "uint256",
                  "name": "lifePoint",
                  "type": "uint256"
                },
                {
                  "internalType": "uint256",
                  "name": "manaPoint",
                  "type": "uint256"
                },
                {
                  "internalType": "uint256[]",
                  "name": "cardsInHand",
                  "type": "uint256[]"
                },
                {
                  "internalType": "uint256[]",
                  "name": "cardsInPlay",
                  "type": "uint256[]"
                },
                {
                  "internalType": "uint256[]",
                  "name": "cardsDeck",
                  "type": "uint256[]"
                }
              ],
              "internalType": "struct AngelAndDemonGame.BattlePlayer",
              "name": "player1",
              "type": "tuple"
            },
            {
              "components": [
                {
                  "internalType": "address",
                  "name": "playerAddress",
                  "type": "address"
                },
                {
                  "internalType": "uint256",
                  "name": "lifePoint",
                  "type": "uint256"
                },
                {
                  "internalType": "uint256",
                  "name": "manaPoint",
                  "type": "uint256"
                },
                {
                  "internalType": "uint256[]",
                  "name": "cardsInHand",
                  "type": "uint256[]"
                },
                {
                  "internalType": "uint256[]",
                  "name": "cardsInPlay",
                  "type": "uint256[]"
                },
                {
                  "internalType": "uint256[]",
                  "name": "cardsDeck",
                  "type": "uint256[]"
                }
              ],
              "internalType": "struct AngelAndDemonGame.BattlePlayer",
              "name": "player2",
              "type": "tuple"
            },
            {
              "internalType": "bool",
              "name": "isAccepted",
              "type": "bool"
            },
            {
              "internalType": "address",
              "name": "winner",
              "type": "address"
            },
            {
              "internalType": "uint256",
              "name": "createdAt",
              "type": "uint256"
            },
            {
              "internalType": "uint256",
              "name": "playerState",
              "type": "uint256"
            },
            {
              "internalType": "uint256",
              "name": "turn",
              "type": "uint256"
            },
            {
              "internalType": "uint256[]",
              "name": "player1MonsterCards",
              "type": "uint256[]"
            },
            {
              "internalType": "uint256[]",
              "name": "player1SpellCards",
              "type": "uint256[]"
            },
            {
              "internalType": "uint256[]",
              "name": "player2MonsterCards",
              "type": "uint256[]"
            },
            {
              "internalType": "uint256[]",
              "name": "player2SpellCards",
              "type": "uint256[]"
            }
          ],
          "internalType": "struct AngelAndDemonGame.Battle",
          "name": "",
          "type": "tuple"
        }
      ],
      "stateMutability": "view",
      "type": "function"
    },
    {
      "inputs": [
        {
          "internalType": "address",
          "name": "_playerAddresss",
          "type": "address"
        },
        {
          "internalType": "uint256[]",
          "name": "_cards",
          "type": "uint256[]"
        }
      ],
      "name": "getSumOfCards",
      "outputs": [
        {
          "internalType": "uint256",
          "name": "",
          "type": "uint256"
        },
        {
          "internalType": "uint256",
          "name": "",
          "type": "uint256"
        },
        {
          "internalType": "uint256",
          "name": "",
          "type": "uint256"
        }
      ],
      "stateMutability": "view",
      "type": "function"
    },
    {
      "inputs": [
        {
          "components": [
            {
              "internalType": "uint256",
              "name": "battleID",
              "type": "uint256"
            },
            {
              "components": [
                {
                  "internalType": "address",
                  "name": "playerAddress",
                  "type": "address"
                },
                {
                  "internalType": "uint256",
                  "name": "lifePoint",
                  "type": "uint256"
                },
                {
                  "internalType": "uint256",
                  "name": "manaPoint",
                  "type": "uint256"
                },
                {
                  "internalType": "uint256[]",
                  "name": "cardsInHand",
                  "type": "uint256[]"
                },
                {
                  "internalType": "uint256[]",
                  "name": "cardsInPlay",
                  "type": "uint256[]"
                },
                {
                  "internalType": "uint256[]",
                  "name": "cardsDeck",
                  "type": "uint256[]"
                }
              ],
              "internalType": "struct AngelAndDemonGame.BattlePlayer",
              "name": "player1",
              "type": "tuple"
            },
            {
              "components": [
                {
                  "internalType": "address",
                  "name": "playerAddress",
                  "type": "address"
                },
                {
                  "internalType": "uint256",
                  "name": "lifePoint",
                  "type": "uint256"
                },
                {
                  "internalType": "uint256",
                  "name": "manaPoint",
                  "type": "uint256"
                },
                {
                  "internalType": "uint256[]",
                  "name": "cardsInHand",
                  "type": "uint256[]"
                },
                {
                  "internalType": "uint256[]",
                  "name": "cardsInPlay",
                  "type": "uint256[]"
                },
                {
                  "internalType": "uint256[]",
                  "name": "cardsDeck",
                  "type": "uint256[]"
                }
              ],
              "internalType": "struct AngelAndDemonGame.BattlePlayer",
              "name": "player2",
              "type": "tuple"
            },
            {
              "internalType": "bool",
              "name": "isAccepted",
              "type": "bool"
            },
            {
              "internalType": "address",
              "name": "winner",
              "type": "address"
            },
            {
              "internalType": "uint256",
              "name": "createdAt",
              "type": "uint256"
            },
            {
              "internalType": "uint256",
              "name": "playerState",
              "type": "uint256"
            },
            {
              "internalType": "uint256",
              "name": "turn",
              "type": "uint256"
            },
            {
              "internalType": "uint256[]",
              "name": "player1MonsterCards",
              "type": "uint256[]"
            },
            {
              "internalType": "uint256[]",
              "name": "player1SpellCards",
              "type": "uint256[]"
            },
            {
              "internalType": "uint256[]",
              "name": "player2MonsterCards",
              "type": "uint256[]"
            },
            {
              "internalType": "uint256[]",
              "name": "player2SpellCards",
              "type": "uint256[]"
            }
          ],
          "internalType": "struct AngelAndDemonGame.Battle",
          "name": "_battle",
          "type": "tuple"
        },
        {
          "internalType": "uint256",
          "name": "isPlayer1",
          "type": "uint256"
        }
      ],
      "name": "updateBattle",
      "outputs": [],
      "stateMutability": "nonpayable",
      "type": "function"
    }
  ],
  "bytecode": "0x60806040523480156200001157600080fd5b5060405162004bcc38038062004bcc833981016040819052620000349162000229565b6200003f3362000133565b601460015560646002556040805180820190915260138082527f416e67656c73416e6444656d6f6e7347616d650000000000000000000000000060209092019182526200008f9160049162000183565b506040805180820190915260148082527f414e47454c5f414e445f44454d4f4e5f47414d450000000000000000000000006020909201918252620000d69160059162000183565b5060405180606001604052806022815260200162004baa602291398051620001079160069160209091019062000183565b506001600355601380546001600160a01b0319166001600160a01b039290921691909117905562000298565b600080546001600160a01b038381166001600160a01b0319831681178455604051919092169283917f8be0079c531659141344cd1fd0a4f28419497f9722a3daafe3b4186f6b6457e09190a35050565b82805462000191906200025b565b90600052602060002090601f016020900481019282620001b5576000855562000200565b82601f10620001d057805160ff191683800117855562000200565b8280016001018555821562000200579182015b8281111562000200578251825591602001919060010190620001e3565b506200020e92915062000212565b5090565b5b808211156200020e576000815560010162000213565b6000602082840312156200023c57600080fd5b81516001600160a01b03811681146200025457600080fd5b9392505050565b600181811c908216806200027057607f821691505b602082108114156200029257634e487b7160e01b600052602260045260246000fd5b50919050565b61490280620002a86000396000f3fe608060405234801561001057600080fd5b50600436106100cf5760003560e01c8063a9f53bd51161008c578063d817736911610066578063d8177369146101ad578063da8bc639146101c0578063e18d38ce146101d3578063f2fde38b146101e657600080fd5b8063a9f53bd51461017f578063ad227f3c14610192578063b7c618a21461019a57600080fd5b80632e78e714146100d45780634fd375b714610107578063715018a614610127578063792cf535146101315780638da5cb5b146101445780639461b8ed1461015f575b600080fd5b6100e76100e2366004613c4d565b6101f9565b604080519384526020840192909252908201526060015b60405180910390f35b61011a610115366004613c9c565b61050c565b6040516100fe9190613d18565b61012f610f98565b005b61012f61013f366004613d2b565b611003565b6000546040516001600160a01b0390911681526020016100fe565b61017261016d366004613c9c565b611206565b6040516100fe9190613e4e565b61012f61018d366004613f66565b611735565b61012f6117b1565b61011a6101a8366004613c9c565b611f03565b61012f6101bb36600461401a565b611f50565b61012f6101ce366004614116565b611f70565b61011a6101e1366004613c9c565b612748565b61012f6101f4366004613c9c565b6127f4565b60008060008060076000876001600160a01b03166001600160a01b0316815260200190815260200160002060008660008151811061023957610239614293565b602002602001015181526020019081526020016000206040518060600160405290816000820154815260200160018201548152602001600282015481525050905060008060008751600214156104ce576001600160a01b0389166000908152600860205260408120895182908b9060019081106102b8576102b8614293565b602002602001015181526020019081526020016000206000015411156103d5576001600160a01b038916600090815260086020526040812089519091908a90600190811061030857610308614293565b60200260200101518152602001908152602001600020600001549250600860008a6001600160a01b03166001600160a01b0316815260200190815260200160002060008960018151811061035e5761035e614293565b60200260200101518152602001908152602001600020600101549150600860008a6001600160a01b03166001600160a01b031681526020019081526020016000206000896001815181106103b4576103b4614293565b602002602001015181526020019081526020016000206002015490506104ce565b6001600160a01b038916600090815260096020526040812089519091908a90600190811061040557610405614293565b60200260200101518152602001908152602001600020600001549250600960008a6001600160a01b03166001600160a01b0316815260200190815260200160002060008960018151811061045b5761045b614293565b60200260200101518152602001908152602001600020600101549150600960008a6001600160a01b03166001600160a01b031681526020019081526020016000206000896001815181106104b1576104b1614293565b602002602001015181526020019081526020016000206002015490505b83516104db9084906142bf565b8285602001516104eb91906142bf565b8286604001516104fb91906142bf565b965096509650505050509250925092565b6001600160a01b0381166000908152600a6020526040812054606091906001600160401b0381111561054057610540613b2e565b60405190808252806020026020018201604052801561059557816020015b61058260405180606001604052806000815260200160008152602001600081525090565b81526020019060019003908161055e5790505b506001600160a01b0384166000908152600a6020526040812054919250906001600160401b038111156105ca576105ca613b2e565b6040519080825280602002602001820160405280156105fd57816020015b60608152602001906001900390816105e85790505b506001600160a01b0385166000908152600a6020526040812054919250906001600160401b0381111561063257610632613b2e565b60405190808252806020026020018201604052801561065b578160200160208202803683370190505b506001600160a01b0386166000908152600b6020526040812054919250906001600160401b0381111561069057610690613b2e565b6040519080825280602002602001820160405280156106e557816020015b6106d260405180606001604052806000815260200160008152602001600081525090565b8152602001906001900390816106ae5790505b506001600160a01b0387166000908152600b6020526040812054919250906001600160401b0381111561071a5761071a613b2e565b60405190808252806020026020018201604052801561074d57816020015b60608152602001906001900390816107385790505b506001600160a01b0388166000908152600b6020526040812054919250906001600160401b0381111561078257610782613b2e565b6040519080825280602002602001820160405280156107ab578160200160208202803683370190505b506001600160a01b0389166000908152600c6020526040812054919250906001600160401b038111156107e0576107e0613b2e565b60405190808252806020026020018201604052801561083557816020015b61082260405180606001604052806000815260200160008152602001600081525090565b8152602001906001900390816107fe5790505b506001600160a01b038a166000908152600c6020526040812054919250906001600160401b0381111561086a5761086a613b2e565b60405190808252806020026020018201604052801561089d57816020015b60608152602001906001900390816108885790505b506001600160a01b038b166000908152600c6020526040812054919250906001600160401b038111156108d2576108d2613b2e565b6040519080825280602002602001820160405280156108fb578160200160208202803683370190505b50905060005b6001600160a01b038c166000908152600a6020526040902054811015610b1b576001600160a01b038c166000908152600760209081526040808320600a909252822080549192918490811061095857610958614293565b9060005260206000200154815260200190815260200160002060405180606001604052908160008201548152602001600182015481526020016002820154815250508a82815181106109ac576109ac614293565b6020026020010181905250601360009054906101000a90046001600160a01b03166001600160a01b031663c87b56dd600a60008f6001600160a01b03166001600160a01b031681526020019081526020016000208381548110610a1157610a11614293565b90600052602060002001546040518263ffffffff1660e01b8152600401610a3a91815260200190565b60006040518083038186803b158015610a5257600080fd5b505afa158015610a66573d6000803e3d6000fd5b505050506040513d6000823e601f3d908101601f19168201604052610a8e91908101906142d7565b898281518110610aa057610aa0614293565b6020026020010181905250600a60008d6001600160a01b03166001600160a01b031681526020019081526020016000208181548110610ae157610ae1614293565b9060005260206000200154888281518110610afe57610afe614293565b602090810291909101015280610b1381614344565b915050610901565b5060005b6001600160a01b038c166000908152600b6020526040902054811015610d39576001600160a01b038c166000908152600860209081526040808320600b9092528220805491929184908110610b7657610b76614293565b906000526020600020015481526020019081526020016000206040518060600160405290816000820154815260200160018201548152602001600282015481525050878281518110610bca57610bca614293565b6020026020010181905250601360009054906101000a90046001600160a01b03166001600160a01b031663c87b56dd600b60008f6001600160a01b03166001600160a01b031681526020019081526020016000208381548110610c2f57610c2f614293565b90600052602060002001546040518263ffffffff1660e01b8152600401610c5891815260200190565b60006040518083038186803b158015610c7057600080fd5b505afa158015610c84573d6000803e3d6000fd5b505050506040513d6000823e601f3d908101601f19168201604052610cac91908101906142d7565b868281518110610cbe57610cbe614293565b6020026020010181905250600b60008d6001600160a01b03166001600160a01b031681526020019081526020016000208181548110610cff57610cff614293565b9060005260206000200154858281518110610d1c57610d1c614293565b602090810291909101015280610d3181614344565b915050610b1f565b5060005b6001600160a01b038c166000908152600c6020526040902054811015610f57576001600160a01b038c166000908152600960209081526040808320600c9092528220805491929184908110610d9457610d94614293565b906000526020600020015481526020019081526020016000206040518060600160405290816000820154815260200160018201548152602001600282015481525050848281518110610de857610de8614293565b6020026020010181905250601360009054906101000a90046001600160a01b03166001600160a01b031663c87b56dd600c60008f6001600160a01b03166001600160a01b031681526020019081526020016000208381548110610e4d57610e4d614293565b90600052602060002001546040518263ffffffff1660e01b8152600401610e7691815260200190565b60006040518083038186803b158015610e8e57600080fd5b505afa158015610ea2573d6000803e3d6000fd5b505050506040513d6000823e601f3d908101601f19168201604052610eca91908101906142d7565b838281518110610edc57610edc614293565b6020026020010181905250600c60008d6001600160a01b03166001600160a01b031681526020019081526020016000208181548110610f1d57610f1d614293565b9060005260206000200154828281518110610f3a57610f3a614293565b602090810291909101015280610f4f81614344565b915050610d3d565b50888888888888888888604051602001610f79999897969594939291906143f7565b6040516020818303038152906040529950505050505050505050919050565b6000546001600160a01b03163314610ff75760405162461bcd60e51b815260206004820181905260248201527f4f776e61626c653a2063616c6c6572206973206e6f7420746865206f776e657260448201526064015b60405180910390fd5b61100160006128bf565b565b600080808080808080806110198a8c018c6145df565b98509850985098509850985098509850985060005b898110156110c4576110b289828151811061104b5761104b614293565b6020026020010151600001518a838151811061106957611069614293565b6020026020010151602001518b848151811061108757611087614293565b6020026020010151604001518b85815181106110a5576110a5614293565b602002602001015161290f565b806110bc81614344565b91505061102e565b5060005b8681101561115e5761114c8682815181106110e5576110e5614293565b60200260200101516000015187838151811061110357611103614293565b60200260200101516020015188848151811061112157611121614293565b60200260200101516040015188858151811061113f5761113f614293565b6020026020010151612ab5565b8061115681614344565b9150506110c8565b5060005b838110156111f8576111e683828151811061117f5761117f614293565b60200260200101516000015184838151811061119d5761119d614293565b6020026020010151602001518584815181106111bb576111bb614293565b6020026020010151604001518585815181106111d9576111d9614293565b6020026020010151612c5b565b806111f081614344565b915050611162565b505050505050505050505050565b61120e613921565b6001600160a01b0382166000908152600f60205260409020546112435760405162461bcd60e51b8152600401610fee906146f2565b60005b6011548110156112ac576001600160a01b0383166000908152600f6020526040902054601180548390811061127d5761127d614293565b906000526020600020906015020160000154141561129a576112ac565b806112a481614344565b915050611246565b6011548114156112ce5760405162461bcd60e51b8152600401610fee906146f2565b601181815481106112e1576112e1614293565b60009182526020918290206040805161018081018252601590930290910180548352815160c0810183526001820180546001600160a01b0316825260028301548287015260038301548285015260048301805485518189028101890190965280865295969395878501959394929360608601939092919083018282801561138757602002820191906000526020600020905b815481526020019060010190808311611373575b50505050508152602001600482018054806020026020016040519081016040528092919081815260200182805480156113df57602002820191906000526020600020905b8154815260200190600101908083116113cb575b505050505081526020016005820180548060200260200160405190810160405280929190818152602001828054801561143757602002820191906000526020600020905b815481526020019060010190808311611423575b5050509190925250505081526040805160c0810182526007840180546001600160a01b031682526008850154602083810191909152600986015483850152600a8601805485518184028101840190965280865295820195939492936060860193928301828280156114c757602002820191906000526020600020905b8154815260200190600101908083116114b3575b505050505081526020016004820180548060200260200160405190810160405280929190818152602001828054801561151f57602002820191906000526020600020905b81548152602001906001019080831161150b575b505050505081526020016005820180548060200260200160405190810160405280929190818152602001828054801561157757602002820191906000526020600020905b815481526020019060010190808311611563575b505050919092525050508152600d82015460ff811615156020808401919091526101009091046001600160a01b0316604080840191909152600e8401546060840152600f8401546080840152601084015460a084015260118401805482518185028101850190935280835260c090940193919290919083018282801561161c57602002820191906000526020600020905b815481526020019060010190808311611608575b505050505081526020016012820180548060200260200160405190810160405280929190818152602001828054801561167457602002820191906000526020600020905b815481526020019060010190808311611660575b50505050508152602001601382018054806020026020016040519081016040528092919081815260200182805480156116cc57602002820191906000526020600020905b8154815260200190600101908083116116b8575b505050505081526020016014820180548060200260200160405190810160405280929190818152602001828054801561172457602002820191906000526020600020905b815481526020019060010190808311611710575b505050505081525050915050919050565b336000908152600d6020526040812061174d91613999565b60005b81518110156117ad57336000908152600d60205260409020825183908390811061177c5761177c614293565b60209081029190910181015182546001810184556000938452919092200155806117a581614344565b915050611750565b5050565b336000908152600f60205260409020541561180e5760405162461bcd60e51b815260206004820152601a60248201527f596f752061726520616c726561647920696e20626174746c652e0000000000006044820152606401610fee565b336000908152600d60205260409020546028146118635760405162461bcd60e51b8152602060048201526013602482015272283632b0b9b29039b2b632b1ba103232b1b59760691b6044820152606401610fee565b60408051602880825261052082019092526000918291906020820161050080368337019050509050600091505b60288210156118f457336000908152600d602052604090208054839081106118ba576118ba614293565b90600052602060002001548183815181106118d7576118d7614293565b6020908102919091010152816118ec81614344565b925050611890565b600091505b601154821015611948576011828154811061191657611916614293565b60009182526020909120600d601590920201015460ff1661193657611948565b8161194081614344565b9250506118f9565b601154821415611d8d57601160405180610180016040528060035481526020016040518060c00160405280336001600160a01b031681526020016002548152602001600154815260200160006001600160401b038111156119ab576119ab613b2e565b6040519080825280602002602001820160405280156119d4578160200160208202803683370190505b5081526020016000604051908082528060200260200182016040528015611a05578160200160208202803683370190505b5081526020018581525081526020016040518060c0016040528060006001600160a01b03168152602001600081526020016000815260200160006001600160401b03811115611a5657611a56613b2e565b604051908082528060200260200182016040528015611a7f578160200160208202803683370190505b5081526020016000604051908082528060200260200182016040528015611ab0578160200160208202803683370190505b5081526020016000604051908082528060200260200182016040528015611ae1578160200160208202803683370190505b509052815260006020808301829052604080840183905242606085015260016080850181905260a08501528051838152808301825260c08501528051838152808301825260e0850152805183815280830182526101008501528051838152918201905261012090920191905090528154600180820184556000938452602093849020835160159093020191825582840151805191830180546001600160a01b0319166001600160a01b039093169290921782558085015160028401556040810151600384015560608101518051949593949193611bc6926004870192909101906139b7565b5060808201518051611be29160048401916020909101906139b7565b5060a08201518051611bfe9160058401916020909101906139b7565b50505060408281015180516007840180546001600160a01b0319166001600160a01b0390921691909117815560208083015160088601559282015160098501556060820151805192939192611c5992600a87019201906139b7565b5060808201518051611c759160048401916020909101906139b7565b5060a08201518051611c919160058401916020909101906139b7565b5050506060820151600d8201805460808501516001600160a81b0319909116921515610100600160a81b031916929092176101006001600160a01b03909316830217905560a0830151600e83015560c0830151600f83015560e083015160108301558201518051611d0c9160118401916020909101906139b7565b506101208201518051611d299160128401916020909101906139b7565b506101408201518051611d469160138401916020909101906139b7565b506101608201518051611d639160148401916020909101906139b7565b5050600354336000908152600f60205260409020819055611d86915060016142bf565b6003555050565b6040805160c0810182523381526002546020808301919091526001548284015282516000808252818301855260608401919091528351908152908101909252608081019190915260a081018290526011805484908110611def57611def614293565b60009182526020918290208351601592909202016007810180546001600160a01b0319166001600160a01b0390931692909217825583830151600882015560408401516009820155606084015180519293611e5293600a909301929101906139b7565b5060808201518051611e6e9160048401916020909101906139b7565b5060a08201518051611e8a9160058401916020909101906139b7565b50905050600160118381548110611ea357611ea3614293565b9060005260206000209060150201600d0160006101000a81548160ff02191690831515021790555060118281548110611ede57611ede614293565b60009182526020808320601590920290910154338352600f9091526040909120555050565b6060600d6000836001600160a01b03166001600160a01b03168152602001908152602001600020604051602001611f3a919061471f565b6040516020818303038152906040529050919050565b336000908152600e6020908152604090912082516117ad92840190613a02565b336000908152600f6020526040902054611f9c5760405162461bcd60e51b8152600401610fee906146f2565b60005b601154811015611ffc57336000908152600f60205260409020546011805483908110611fcd57611fcd614293565b9060005260206000209060150201600001541415611fea57611ffc565b80611ff481614344565b915050611f9f565b60115481141561201e5760405162461bcd60e51b8152600401610fee906146f2565b816001141561218c576011818154811061203a5761203a614293565b60009182526020918290206040805160c0810182526007601590940290920192830180546001600160a01b03168352600884015483860152600984015483830152600a909301805482518187028101870190935280835292946060860193908301828280156120c857602002820191906000526020600020905b8154815260200190600101908083116120b4575b505050505081526020016004820180548060200260200160405190810160405280929190818152602001828054801561212057602002820191906000526020600020905b81548152602001906001019080831161210c575b505050505081526020016005820180548060200260200160405190810160405280929190818152602001828054801561217857602002820191906000526020600020905b815481526020019060010190808311612164575b5050509190925250505060408401526122ed565b6011818154811061219f5761219f614293565b60009182526020918290206040805160c0810182526001601590940290920192830180546001600160a01b0316835260028401548386015260038401548383015260049093018054825181870281018701909352808352929460608601939083018282801561222d57602002820191906000526020600020905b815481526020019060010190808311612219575b505050505081526020016004820180548060200260200160405190810160405280929190818152602001828054801561228557602002820191906000526020600020905b815481526020019060010190808311612271575b50505050508152602001600582018054806020026020016040519081016040528092919081815260200182805480156122dd57602002820191906000526020600020905b8154815260200190600101908083116122c9575b5050509190925250505060208401525b602083015160800151511580159061230d57506040830151608001515115155b156125175760008060006123318660200151600001518760200151608001516101f9565b92509250925060008060006123568960400151600001518a60400151608001516101f9565b9250925092508860200151604001518411156123ac5760405162461bcd60e51b8152602060048201526015602482015274283630bcb2b9189032bc31b2b2b2399036b0b7309760591b6044820152606401610fee565b8860400151604001518111156123fc5760405162461bcd60e51b8152602060048201526015602482015274283630bcb2b9191032bc31b2b2b2399036b0b7309760591b6044820152606401610fee565b838960200151604001516124109190614766565b89602001516040018181525050808960400151604001516124319190614766565b6040808b0151015260c0890151600114801561244c57508186115b156124a85761245b8287614766565b8960400151602001511161247b5760408901516000602090910152612510565b81868a60400151602001516124909190614766565b61249a91906142bf565b60408a015160200152612510565b8860c0015160021480156124bb57508483115b15612510576124ca8584614766565b896020015160200151116124e8576020808a01516000910152612510565b84838a60200151602001516124fd9190614766565b61250791906142bf565b6020808b015101525b5050505050505b61251f612e01565b826011828154811061253357612533614293565b60009182526020918290208351601592909202019081558282015180516001830180546001600160a01b0319166001600160a01b0390921691909117815581840151600284015560408201516003840155606082015180519394929391926125a3926004870192909101906139b7565b50608082015180516125bf9160048401916020909101906139b7565b5060a082015180516125db9160058401916020909101906139b7565b50505060408281015180516007840180546001600160a01b0319166001600160a01b039092169190911781556020808301516008860155928201516009850155606082015180519293919261263692600a87019201906139b7565b50608082015180516126529160048401916020909101906139b7565b5060a0820151805161266e9160058401916020909101906139b7565b5050506060820151600d8201805460808501516001600160a81b0319909116921515610100600160a81b031916929092176101006001600160a01b03909316830217905560a0830151600e83015560c0830151600f83015560e0830151601083015582015180516126e99160118401916020909101906139b7565b5061012082015180516127069160128401916020909101906139b7565b5061014082015180516127239160138401916020909101906139b7565b5061016082015180516127409160148401916020909101906139b7565b505050505050565b6001600160a01b0381166000908152600e6020526040902080546060919061276f9061477d565b80601f016020809104026020016040519081016040528092919081815260200182805461279b9061477d565b80156127e85780601f106127bd576101008083540402835291602001916127e8565b820191906000526020600020905b8154815290600101906020018083116127cb57829003601f168201915b50505050509050919050565b6000546001600160a01b0316331461284e5760405162461bcd60e51b815260206004820181905260248201527f4f776e61626c653a2063616c6c6572206973206e6f7420746865206f776e65726044820152606401610fee565b6001600160a01b0381166128b35760405162461bcd60e51b815260206004820152602660248201527f4f776e61626c653a206e6577206f776e657220697320746865207a65726f206160448201526564647265737360d01b6064820152608401610fee565b6128bc816128bf565b50565b600080546001600160a01b038381166001600160a01b0319831681178455604051919092169283917f8be0079c531659141344cd1fd0a4f28419497f9722a3daafe3b4186f6b6457e09190a35050565b6013546040516000916001600160a01b031690638ee507bb90339061293b9060069087906020016147d4565b6040516020818303038152906040526040518363ffffffff1660e01b8152600401612967929190614872565b602060405180830381600087803b15801561298157600080fd5b505af1158015612995573d6000803e3d6000fd5b505050506040513d601f19601f820116820180604052508101906129b99190614896565b6013546040516331a9108f60e11b81526004810183905291925033916001600160a01b0390911690636352211e9060240160206040518083038186803b158015612a0257600080fd5b505afa158015612a16573d6000803e3d6000fd5b505050506040513d601f19601f82011682018060405250810190612a3a91906148af565b6001600160a01b031614612a4d57600080fd5b6040805160608101825295865260208087019586528682019485523360008181526007835283812085825283528381209851895596516001808a01919091559551600290980197909755958552600a8652842080549384018155845293909220019190915550565b6013546040516000916001600160a01b031690638ee507bb903390612ae19060069087906020016147d4565b6040516020818303038152906040526040518363ffffffff1660e01b8152600401612b0d929190614872565b602060405180830381600087803b158015612b2757600080fd5b505af1158015612b3b573d6000803e3d6000fd5b505050506040513d601f19601f82011682018060405250810190612b5f9190614896565b6013546040516331a9108f60e11b81526004810183905291925033916001600160a01b0390911690636352211e9060240160206040518083038186803b158015612ba857600080fd5b505afa158015612bbc573d6000803e3d6000fd5b505050506040513d601f19601f82011682018060405250810190612be091906148af565b6001600160a01b031614612bf357600080fd5b6040805160608101825295865260208087019586528682019485523360008181526008835283812085825283528381209851895596516001808a01919091559551600290980197909755958552600b8652842080549384018155845293909220019190915550565b6013546040516000916001600160a01b031690638ee507bb903390612c879060069087906020016147d4565b6040516020818303038152906040526040518363ffffffff1660e01b8152600401612cb3929190614872565b602060405180830381600087803b158015612ccd57600080fd5b505af1158015612ce1573d6000803e3d6000fd5b505050506040513d601f19601f82011682018060405250810190612d059190614896565b6013546040516331a9108f60e11b81526004810183905291925033916001600160a01b0390911690636352211e9060240160206040518083038186803b158015612d4e57600080fd5b505afa158015612d62573d6000803e3d6000fd5b505050506040513d601f19601f82011682018060405250810190612d8691906148af565b6001600160a01b031614612d9957600080fd5b6040805160608101825295865260208087019586528682019485523360008181526009835283812085825283528381209851895596516001808a01919091559551600290980197909755958552600c8652842080549384018155845293909220019190915550565b336000908152600f6020526040902054612e2d5760405162461bcd60e51b8152600401610fee906146f2565b6000805b601154821015612e8e57336000908152600f60205260409020546011805484908110612e5f57612e5f614293565b9060005260206000209060150201600001541415612e7c57612e8e565b81612e8681614344565b925050612e31565b601154821415612eb05760405162461bcd60e51b8152600401610fee906146f2565b60118281548110612ec357612ec3614293565b90600052602060002090601502019050806001016001015460001480612eeb57506008810154155b80612f09575080600f01546002148015612f09575080601001546005145b1561353e57600180820180546001600160a01b039081166000908152600f602090815260408083208390556007870180548516845281842084905585548516845260108352818420601280548254808b018455928752858720909201919091559054851684529083208154815480890183559185529284200191909155805494850181559052835460159093027fbb8a6a4669ba250d26cd7a459eca9d215f8307e33aebe50379bc5a3617ec3444810193845582547fbb8a6a4669ba250d26cd7a459eca9d215f8307e33aebe50379bc5a3617ec3445820180546001600160a01b0319169190931617825560028501547fbb8a6a4669ba250d26cd7a459eca9d215f8307e33aebe50379bc5a3617ec344682015560038501547fbb8a6a4669ba250d26cd7a459eca9d215f8307e33aebe50379bc5a3617ec3447820155600485018054869594939261307f927fbb8a6a4669ba250d26cd7a459eca9d215f8307e33aebe50379bc5a3617ec344890910191613a75565b50600482810180546130949284019190613a75565b50600582810180546130a99284019190613a75565b5050506007828101805491830180546001600160a01b0319166001600160a01b039093169290921782556008808501549084015560098085015490840155600a80850180549293926130fe9286019190613a75565b50600482810180546131139284019190613a75565b50600582810180546131289284019190613a75565b505050600d8281018054918301805460ff909316151560ff1984168117825591546001600160a01b03610100918290041602610100600160a81b03199092166001600160a81b031990931692909217179055600e8083015490820155600f808301549082015560108083015490820155601180830180546131ac9284019190613a75565b50601282810180546131c19284019190613a75565b50601382810180546131d69284019190613a75565b50601482810180546131eb9284019190613a75565b50506011805490915061320090600190614766565b8154811061321057613210614293565b90600052602060002090601502016011838154811061323157613231614293565b6000918252602090912082546015909202019081556001808301805491830180546001600160a01b0319166001600160a01b039093169290921782556002808501549084015560038085015490840155600480850180549293926132989286019190613a75565b50600482810180546132ad9284019190613a75565b50600582810180546132c29284019190613a75565b5050506007828101805491830180546001600160a01b0319166001600160a01b039093169290921782556008808501549084015560098085015490840155600a80850180549293926133179286019190613a75565b506004828101805461332c9284019190613a75565b50600582810180546133419284019190613a75565b505050600d8281018054918301805460ff909316151560ff1984168117825591546001600160a01b03610100918290041602610100600160a81b03199092166001600160a81b031990931692909217179055600e8083015490820155600f808301549082015560108083015490820155601180830180546133c59284019190613a75565b50601282810180546133da9284019190613a75565b50601382810180546133ef9284019190613a75565b50601482810180546134049284019190613a75565b50506011805490915061341990600190614766565b8154811061342957613429614293565b6000918252602082206015909102018181556001810180546001600160a01b031916815560028201839055600382018390559091908161346c6004850182613999565b61347a600483016000613999565b613488600583016000613999565b50506007820180546001600160a01b0319168155600060088401819055600984018190556134b9600a850182613999565b6134c7600483016000613999565b6134d5600583016000613999565b5050600d820180546001600160a81b03191690556000600e8301819055600f83018190556010830181905561350e906011840190613999565b61351c601283016000613999565b61352a601383016000613999565b613538601483016000613999565b50505050565b806011018160010160040160008154811061355b5761355b614293565b60009182526020808320909101548354600181018555938352912090910155600581015460128201906002146135925760006135b5565b60058201805460019081106135a9576135a9614293565b90600052602060002001545b81546001810183556000928352602083200155600b820180546013840192906135e0576135e0614293565b60009182526020808320909101548354600181018555938352912090910155600b810154601482019060021461361757600061363a565b600b82018054600190811061362e5761362e614293565b90600052602060002001545b81546001810183556000928352602083200155604051908082528060200260200182016040528015613676578160200160208202803683370190505b50805161368d9160058401916020909101906139b7565b5060408051600081526020810191829052516136ad91600b8401916139b7565b5080600f01546002141561372b5760408051600081526020810191829052516136da9160048401916139b7565b5060408051600081526020810191829052516136fa91600a8401916139b7565b506001600f82018190556010820154613712916142bf565b6010820155600154600382018190556009820155613733565b6002600f8201555b806011838154811061374757613747614293565b6000918252602090912082546015909202019081556001808301805491830180546001600160a01b0319166001600160a01b039093169290921782556002808501549084015560038085015490840155600480850180549293926137ae9286019190613a75565b50600482810180546137c39284019190613a75565b50600582810180546137d89284019190613a75565b5050506007828101805491830180546001600160a01b0319166001600160a01b039093169290921782556008808501549084015560098085015490840155600a808501805492939261382d9286019190613a75565b50600482810180546138429284019190613a75565b50600582810180546138579284019190613a75565b505050600d8281018054918301805460ff909316151560ff1984168117825591546001600160a01b03610100918290041602610100600160a81b03199092166001600160a81b031990931692909217179055600e8083015490820155600f808301549082015560108083015490820155601180830180546138db9284019190613a75565b50601282810180546138f09284019190613a75565b50601382810180546139059284019190613a75565b506014828101805461391a9284019190613a75565b5050505050565b6040518061018001604052806000815260200161393c613ab5565b8152602001613949613ab5565b815260200160001515815260200160006001600160a01b03168152602001600081526020016000815260200160008152602001606081526020016060815260200160608152602001606081525090565b50805460008255906000526020600020908101906128bc9190613af4565b8280548282559060005260206000209081019282156139f2579160200282015b828111156139f25782518255916020019190600101906139d7565b506139fe929150613af4565b5090565b828054613a0e9061477d565b90600052602060002090601f016020900481019282613a3057600085556139f2565b82601f10613a4957805160ff19168380011785556139f2565b828001600101855582156139f257918201828111156139f25782518255916020019190600101906139d7565b8280548282559060005260206000209081019282156139f25760005260206000209182015b828111156139f2578254825591600101919060010190613a9a565b6040518060c0016040528060006001600160a01b0316815260200160008152602001600081526020016060815260200160608152602001606081525090565b5b808211156139fe5760008155600101613af5565b6001600160a01b03811681146128bc57600080fd5b8035613b2981613b09565b919050565b634e487b7160e01b600052604160045260246000fd5b60405160c081016001600160401b0381118282101715613b6657613b66613b2e565b60405290565b60405161018081016001600160401b0381118282101715613b6657613b66613b2e565b604051601f8201601f191681016001600160401b0381118282101715613bb757613bb7613b2e565b604052919050565b60006001600160401b03821115613bd857613bd8613b2e565b5060051b60200190565b600082601f830112613bf357600080fd5b81356020613c08613c0383613bbf565b613b8f565b82815260059290921b84018101918181019086841115613c2757600080fd5b8286015b84811015613c425780358352918301918301613c2b565b509695505050505050565b60008060408385031215613c6057600080fd5b8235613c6b81613b09565b915060208301356001600160401b03811115613c8657600080fd5b613c9285828601613be2565b9150509250929050565b600060208284031215613cae57600080fd5b8135613cb981613b09565b9392505050565b60005b83811015613cdb578181015183820152602001613cc3565b838111156135385750506000910152565b60008151808452613d04816020860160208601613cc0565b601f01601f19169290920160200192915050565b602081526000613cb96020830184613cec565b60008060208385031215613d3e57600080fd5b82356001600160401b0380821115613d5557600080fd5b818501915085601f830112613d6957600080fd5b813581811115613d7857600080fd5b866020828501011115613d8a57600080fd5b60209290920196919550909350505050565b600081518084526020808501945080840160005b83811015613dcc57815187529582019590820190600101613db0565b509495945050505050565b60018060a01b03815116825260208101516020830152604081015160408301526000606082015160c06060850152613e1260c0850182613d9c565b905060808301518482036080860152613e2b8282613d9c565b91505060a083015184820360a0860152613e458282613d9c565b95945050505050565b602081528151602082015260006020830151610180806040850152613e776101a0850183613dd7565b91506040850151601f1980868503016060870152613e958483613dd7565b935060608701519150613eac608087018315159052565b60808701516001600160a01b03811660a0880152915060a087015160c087015260c087015160e087015260e08701519150610100828188015280880151925050610120818786030181880152613f028584613d9c565b945080880151925050610140818786030181880152613f218584613d9c565b945080880151925050610160818786030181880152613f408584613d9c565b908801518782039092018488015293509050613f5c8382613d9c565b9695505050505050565b600060208284031215613f7857600080fd5b81356001600160401b03811115613f8e57600080fd5b613f9a84828501613be2565b949350505050565b60006001600160401b03821115613fbb57613fbb613b2e565b50601f01601f191660200190565b600082601f830112613fda57600080fd5b8135613fe8613c0382613fa2565b818152846020838601011115613ffd57600080fd5b816020850160208301376000918101602001919091529392505050565b60006020828403121561402c57600080fd5b81356001600160401b0381111561404257600080fd5b613f9a84828501613fc9565b600060c0828403121561406057600080fd5b614068613b44565b905061407382613b1e565b8152602082013560208201526040820135604082015260608201356001600160401b03808211156140a357600080fd5b6140af85838601613be2565b606084015260808401359150808211156140c857600080fd5b6140d485838601613be2565b608084015260a08401359150808211156140ed57600080fd5b506140fa84828501613be2565b60a08301525092915050565b80358015158114613b2957600080fd5b6000806040838503121561412957600080fd5b82356001600160401b038082111561414057600080fd5b90840190610180828703121561415557600080fd5b61415d613b6c565b8235815260208301358281111561417357600080fd5b61417f8882860161404e565b60208301525060408301358281111561419757600080fd5b6141a38882860161404e565b6040830152506141b560608401614106565b60608201526141c660808401613b1e565b608082015260a083013560a082015260c083013560c082015260e083013560e082015261010080840135838111156141fd57600080fd5b61420989828701613be2565b828401525050610120808401358381111561422357600080fd5b61422f89828701613be2565b828401525050610140808401358381111561424957600080fd5b61425589828701613be2565b828401525050610160808401358381111561426f57600080fd5b61427b89828701613be2565b91830191909152509660209590950135955050505050565b634e487b7160e01b600052603260045260246000fd5b634e487b7160e01b600052601160045260246000fd5b600082198211156142d2576142d26142a9565b500190565b6000602082840312156142e957600080fd5b81516001600160401b038111156142ff57600080fd5b8201601f8101841361431057600080fd5b805161431e613c0382613fa2565b81815285602083850101111561433357600080fd5b613e45826020830160208601613cc0565b6000600019821415614358576143586142a9565b5060010190565b600081518084526020808501945080840160005b83811015613dcc5781518051885283810151848901526040908101519088015260609096019590820190600101614373565b6000815180845260208085019450848260051b860182860160005b858110156143ea5783830389526143d8838351613cec565b988501989250908401906001016143c0565b5090979650505050505050565b600061012080835261440b8184018d61435f565b9050828103602084015261441f818c6143a5565b90508281036040840152614433818b613d9c565b90508281036060840152614447818a61435f565b9050828103608084015261445b81896143a5565b905082810360a084015261446f8188613d9c565b905082810360c0840152614483818761435f565b905082810360e084015261449781866143a5565b90508281036101008401526144ac8185613d9c565b9c9b505050505050505050505050565b600082601f8301126144cd57600080fd5b813560206144dd613c0383613bbf565b828152606092830285018201928282019190878511156144fc57600080fd5b8387015b858110156143ea5781818a0312156145185760008081fd5b604080518381018181106001600160401b038211171561453a5761453a613b2e565b825282358152868301358782015282820135918101919091528452928401928101614500565b600082601f83011261457157600080fd5b81356020614581613c0383613bbf565b82815260059290921b840181019181810190868411156145a057600080fd5b8286015b84811015613c425780356001600160401b038111156145c35760008081fd5b6145d18986838b0101613fc9565b8452509183019183016145a4565b60008060008060008060008060006101208a8c0312156145fe57600080fd5b8935985060208a01356001600160401b038082111561461c57600080fd5b6146288d838e016144bc565b995060408c013591508082111561463e57600080fd5b61464a8d838e01614560565b985060608c0135975060808c013591508082111561466757600080fd5b6146738d838e016144bc565b965060a08c013591508082111561468957600080fd5b6146958d838e01614560565b955060c08c0135945060e08c01359150808211156146b257600080fd5b6146be8d838e016144bc565b93506101008c01359150808211156146d557600080fd5b506146e28c828d01614560565b9150509295985092959850929598565b6020808252601390820152722cb7ba903430bb32903737903130ba3a36329760691b604082015260600190565b6020808252825482820181905260008481528281209092916040850190845b8181101561475a5783548352600193840193928501920161473e565b50909695505050505050565b600082821015614778576147786142a9565b500390565b600181811c9082168061479157607f821691505b602082108114156147b257634e487b7160e01b600052602260045260246000fd5b50919050565b600081516147ca818560208601613cc0565b9290920192915050565b600080845481600182811c9150808316806147f057607f831692505b602080841082141561481057634e487b7160e01b86526022600452602486fd5b818015614824576001811461483557614862565b60ff19861689528489019650614862565b60008b81526020902060005b8681101561485a5781548b820152908501908301614841565b505084890196505b505050505050613e4581856147b8565b6001600160a01b0383168152604060208201819052600090613f9a90830184613cec565b6000602082840312156148a857600080fd5b5051919050565b6000602082840312156148c157600080fd5b8151613cb981613b0956fea2646970667358221220bfe1eb9a00c381b073d858596b08211964d256a2ab45fd9bd2117d94a1ea968664736f6c63430008090033687474703a2f2f3136372e38362e3132302e3139373a333030302f696d616765732f",
  "immutableReferences": {},
  "source": "// SPDX-License-Identifier: MIT\r\n\r\npragma solidity ^0.8.0;\r\n\r\nimport \"@openzeppelin/contracts/access/Ownable.sol\";\r\nimport './AngelAndDemonToken.sol';\r\n\r\ncontract AngelAndDemonGame is Ownable {\r\n    uint private _manaPoint;\r\n    uint private _lifePoint;\r\n    uint private _curBattleCounter;\r\n    string private _name;\r\n    string private _symbol;\r\n    string private _baseURL;\r\n\r\n    struct Monster {\r\n        uint attackPoint;\r\n        uint defensePoint;\r\n        uint manaCost;\r\n    }\r\n\r\n    struct Spell {\r\n        uint attackPoint;\r\n        uint defensePoint;\r\n        uint manaCost;\r\n    }\r\n\r\n    struct Equip {\r\n        uint attackPoint;\r\n        uint defensePoint;\r\n        uint manaCost;\r\n    }\r\n\r\n    struct BattlePlayer {\r\n        address playerAddress;\r\n        uint lifePoint;\r\n        uint manaPoint;\r\n        uint[] cardsInHand;\r\n        uint[] cardsInPlay;\r\n        uint[] cardsDeck;\r\n    }\r\n\r\n    struct Battle {\r\n        uint battleID;\r\n        BattlePlayer player1;\r\n        BattlePlayer player2;\r\n        bool isAccepted;\r\n        address winner;\r\n        uint createdAt;\r\n        uint playerState; //1 -> player1 attack, 2 -> player2 attack\r\n        uint turn;\r\n        uint[] player1MonsterCards;\r\n        uint[] player1SpellCards;\r\n        uint[] player2MonsterCards;\r\n        uint[] player2SpellCards;\r\n    }\r\n\r\n    mapping (address => mapping (uint => Monster)) monsters;\r\n    mapping (address => mapping (uint => Spell)) spells;\r\n    mapping (address => mapping (uint => Equip)) equips;\r\n    mapping (address => uint[]) monsterList;\r\n    mapping (address => uint[]) spellList;\r\n    mapping (address => uint[]) equipList;\r\n    mapping (address => uint[]) deckList;\r\n    mapping (address => string) playerNames;\r\n    mapping (address => uint) currentBattles; //Battle.battleID\r\n    mapping (address => uint[]) endedBattles; //Battle Index\r\n    Battle[] currentBattleList;\r\n    Battle[] endedBattleList;\r\n\r\n    AngelAndDemonToken angelAndDemonToken;\r\n\r\n    constructor(address andToken) {\r\n        _manaPoint = 20;\r\n        _lifePoint = 100;\r\n        _name = \"AngelsAndDemonsGame\";\r\n        _symbol = \"ANGEL_AND_DEMON_GAME\";\r\n        _baseURL = \"http://167.86.120.197:3000/images/\";\r\n        _curBattleCounter = 1;\r\n        angelAndDemonToken = AngelAndDemonToken(andToken);\r\n    }\r\n\r\n    function addMonster(\r\n        uint attackPoint,\r\n        uint defensePoint,\r\n        uint manaCost,\r\n        string memory cardURL\r\n    ) private {\r\n        uint _monsterId = angelAndDemonToken.safeMintTo(msg.sender, string(abi.encodePacked(_baseURL, cardURL)));\r\n        require(angelAndDemonToken.ownerOf(_monsterId) == msg.sender);\r\n        monsters[msg.sender][_monsterId] = Monster(attackPoint, defensePoint, manaCost);\r\n        monsterList[msg.sender].push(_monsterId);\r\n    }\r\n\r\n    function addSpell(\r\n        uint attackPoint,\r\n        uint defensePoint,\r\n        uint manaCost,\r\n        string memory cardURL\r\n    ) private {\r\n        uint _spellId = angelAndDemonToken.safeMintTo(msg.sender, string(abi.encodePacked(_baseURL, cardURL)));\r\n        require(angelAndDemonToken.ownerOf(_spellId) == msg.sender);\r\n        spells[msg.sender][_spellId] = Spell(attackPoint, defensePoint, manaCost);\r\n        spellList[msg.sender].push(_spellId);\r\n    }\r\n\r\n    function addEquip(\r\n        uint attackPoint,\r\n        uint defensePoint,\r\n        uint manaCost,\r\n        string memory cardURL\r\n    ) private {\r\n        uint _equipId = angelAndDemonToken.safeMintTo(msg.sender, string(abi.encodePacked(_baseURL, cardURL)));\r\n        require(angelAndDemonToken.ownerOf(_equipId) == msg.sender);\r\n        equips[msg.sender][_equipId] = Equip(attackPoint, defensePoint, manaCost);\r\n        equipList[msg.sender].push(_equipId);\r\n    }\r\n\r\n    function addCardsToPlayer(\r\n        bytes calldata params\r\n    ) public {\r\n        (uint _monsterCount,\r\n        Monster[] memory _monsters,\r\n        string[] memory _monsterURLs,\r\n        uint _sepllCount,\r\n        Spell[] memory _spells,\r\n        string[] memory _spellURLs,\r\n        uint _equipCount,\r\n        Equip[] memory _equips,\r\n        string[] memory _equipURLs) = abi.decode(params, (uint, Monster[], string[], uint, Spell[], string[], uint, Equip[], string[]));\r\n        \r\n        for (uint i = 0; i < _monsterCount; i ++) {\r\n            addMonster(_monsters[i].attackPoint, _monsters[i].defensePoint, _monsters[i].manaCost, _monsterURLs[i]);\r\n        }\r\n\r\n        for (uint i = 0; i < _sepllCount; i ++) {\r\n            addSpell(_spells[i].attackPoint, _spells[i].defensePoint, _spells[i].manaCost, _spellURLs[i]);\r\n        }\r\n\r\n        for (uint i = 0; i < _equipCount; i ++) {\r\n            addEquip(_equips[i].attackPoint, _equips[i].defensePoint, _equips[i].manaCost, _equipURLs[i]);\r\n        }\r\n    }\r\n\r\n    function getCardsOfPlayer(address _sender) public view returns(bytes memory) {\r\n        // uint constant mLen = monsterList[_sender].length;\r\n        // uint balance[] = new uint[](size);\r\n        Monster[] memory _monsters = new Monster[](monsterList[_sender].length);\r\n        string[] memory _monsterURLs = new string[](monsterList[_sender].length);\r\n        uint[] memory _monsterIDs = new uint[](monsterList[_sender].length);\r\n        Spell[] memory _spells = new Spell[](spellList[_sender].length);\r\n        string[] memory _spellURLs = new string[](spellList[_sender].length);\r\n        uint[] memory _spellIDs = new uint[](spellList[_sender].length);\r\n        Equip[] memory _equips = new Equip[](equipList[_sender].length);\r\n        string[] memory _equipURLs = new string[](equipList[_sender].length);\r\n        uint[] memory _equipIDs = new uint[](equipList[_sender].length);\r\n\r\n        for (uint i = 0; i < monsterList[_sender].length; i ++) {\r\n            _monsters[i] = monsters[_sender][monsterList[_sender][i]];\r\n            _monsterURLs[i] = angelAndDemonToken.tokenURI(monsterList[_sender][i]);\r\n            _monsterIDs[i] = monsterList[_sender][i];\r\n        }\r\n\r\n        for (uint i = 0; i < spellList[_sender].length; i ++) {\r\n            _spells[i] = spells[_sender][spellList[_sender][i]];\r\n            _spellURLs[i] = angelAndDemonToken.tokenURI(spellList[_sender][i]);\r\n            _spellIDs[i] = spellList[_sender][i];\r\n        }\r\n\r\n        for (uint i = 0; i < equipList[_sender].length; i ++) {\r\n            _equips[i] = equips[_sender][equipList[_sender][i]];\r\n            _equipURLs[i] = angelAndDemonToken.tokenURI(equipList[_sender][i]);\r\n            _equipIDs[i] = equipList[_sender][i];\r\n        }\r\n\r\n        return abi.encode(_monsters, _monsterURLs, _monsterIDs, _spells, _spellURLs, _spellIDs, _equips, _equipURLs, _equipIDs);\r\n    }\r\n\r\n    function addCardsToDeck(uint[] memory cardIDs) public {\r\n        delete deckList[msg.sender];\r\n\r\n        for (uint i = 0; i < cardIDs.length; i ++) {\r\n            deckList[msg.sender].push(cardIDs[i]);\r\n        }\r\n    }\r\n\r\n    function getCardsFromDeck(address _sender) public view returns(bytes memory) {\r\n        return abi.encode(deckList[_sender]);\r\n    }\r\n\r\n    function setPlayerName(string memory _playerName) public {\r\n        playerNames[msg.sender] = _playerName;\r\n    }\r\n\r\n    function getPlayerName(address _playerAddress) public view returns(string memory) { \r\n        return playerNames[_playerAddress];\r\n    }\r\n\r\n    function findBattle() public {\r\n        require(currentBattles[msg.sender] == 0, 'You are already in battle.');\r\n        require(deckList[msg.sender].length == 40, 'Please select deck.');\r\n\r\n        uint i;\r\n        uint[] memory cardsDeck = new uint[](40);\r\n\r\n        for (i = 0; i < 40; i ++) {\r\n            cardsDeck[i] = deckList[msg.sender][i];\r\n        }\r\n\r\n        for (i = 0; i < currentBattleList.length; i ++) {\r\n            if (currentBattleList[i].isAccepted == false) {\r\n                break;\r\n            }\r\n        }\r\n\r\n        if (i == currentBattleList.length) {\r\n            currentBattleList.push(Battle(\r\n                _curBattleCounter,\r\n                BattlePlayer(\r\n                    msg.sender,\r\n                    _lifePoint,\r\n                    _manaPoint,\r\n                    new uint[](0),\r\n                    new uint[](0),\r\n                    cardsDeck\r\n                ),\r\n                BattlePlayer(\r\n                    address(0),\r\n                    0,\r\n                    0,\r\n                    new uint[](0),\r\n                    new uint[](0),\r\n                    new uint[](0)\r\n                ),\r\n                false,\r\n                address(0),\r\n                block.timestamp,\r\n                1,\r\n                1,\r\n                new uint[](0),\r\n                new uint[](0),\r\n                new uint[](0),\r\n                new uint[](0)\r\n            ));\r\n\r\n            currentBattles[msg.sender] = _curBattleCounter;\r\n            _curBattleCounter = _curBattleCounter + 1;\r\n        } else {\r\n            currentBattleList[i].player2 = BattlePlayer(\r\n                msg.sender,\r\n                _lifePoint,\r\n                _manaPoint,\r\n                new uint[](0),\r\n                new uint[](0),\r\n                cardsDeck\r\n            );\r\n            currentBattleList[i].isAccepted = true;\r\n            currentBattles[msg.sender] = currentBattleList[i].battleID;\r\n        }\r\n    }\r\n\r\n    function getBattle(address _sender) public view returns(Battle memory) {\r\n        require(currentBattles[_sender] != 0, 'You have no battle.');\r\n\r\n        uint i;\r\n\r\n        for (i = 0; i < currentBattleList.length; i ++) {\r\n            if (currentBattleList[i].battleID == currentBattles[_sender]) break;\r\n        }\r\n\r\n        require(i != currentBattleList.length, 'You have no battle.');\r\n\r\n        return currentBattleList[i];\r\n    }\r\n\r\n    function getSumOfCards(address _playerAddresss, uint[] memory _cards) public view returns(uint, uint, uint) {\r\n        Monster memory monster = monsters[_playerAddresss][_cards[0]];\r\n        uint attack = 0;\r\n        uint defense = 0;\r\n        uint mana = 0;\r\n\r\n        if (_cards.length == 2) {\r\n            if (spells[_playerAddresss][_cards[1]].attackPoint > 0) {\r\n                attack = spells[_playerAddresss][_cards[1]].attackPoint;\r\n                defense = spells[_playerAddresss][_cards[1]].defensePoint;\r\n                mana = spells[_playerAddresss][_cards[1]].manaCost;\r\n            } else {\r\n                attack = equips[_playerAddresss][_cards[1]].attackPoint;\r\n                defense = equips[_playerAddresss][_cards[1]].defensePoint;\r\n                mana = equips[_playerAddresss][_cards[1]].manaCost;\r\n            }\r\n        }\r\n        \r\n        return (monster.attackPoint + attack, monster.defensePoint + defense, monster.manaCost + mana);\r\n    }\r\n\r\n    function updateBattle(Battle memory _battle, uint isPlayer1) public {\r\n        require(currentBattles[msg.sender] != 0, 'You have no battle.');\r\n\r\n        uint i;\r\n\r\n        for (i = 0; i < currentBattleList.length; i ++) {\r\n            if (currentBattleList[i].battleID == currentBattles[msg.sender]) break;\r\n        }\r\n\r\n        require(i != currentBattleList.length, 'You have no battle.');\r\n\r\n        if (isPlayer1 == 1) {\r\n            _battle.player2 = currentBattleList[i].player2;\r\n        } else {\r\n            _battle.player1 = currentBattleList[i].player1;\r\n        }\r\n\r\n        if (_battle.player1.cardsInPlay.length != 0 && _battle.player2.cardsInPlay.length != 0) {\r\n            (uint attack1, uint defense1, uint mana1) = getSumOfCards(_battle.player1.playerAddress, _battle.player1.cardsInPlay);\r\n            (uint attack2, uint defense2, uint mana2) = getSumOfCards(_battle.player2.playerAddress, _battle.player2.cardsInPlay);\r\n\r\n            require(mana1 <= _battle.player1.manaPoint, 'Player1 exceeds mana.');\r\n            require(mana2 <= _battle.player2.manaPoint, 'Player2 exceeds mana.');\r\n\r\n            _battle.player1.manaPoint = _battle.player1.manaPoint - mana1;\r\n            _battle.player2.manaPoint = _battle.player2.manaPoint - mana2;\r\n\r\n            if (_battle.playerState == 1 && attack1 > defense2) {\r\n                if (_battle.player2.lifePoint <= (attack1 - defense2)) {\r\n                    _battle.player2.lifePoint = 0;\r\n                } else {\r\n                    _battle.player2.lifePoint = _battle.player2.lifePoint - attack1 + defense2;\r\n                }\r\n            } else if (_battle.playerState == 2 && attack2 > defense1) {\r\n                if (_battle.player1.lifePoint <= (attack2 - defense1)) {\r\n                    _battle.player1.lifePoint = 0;\r\n                } else {\r\n                    _battle.player1.lifePoint = _battle.player1.lifePoint - attack2 + defense1;\r\n                }\r\n            }\r\n        }\r\n\r\n        endTurn();\r\n        currentBattleList[i] = _battle;\r\n    }\r\n\r\n    function endTurn() private {\r\n        require(currentBattles[msg.sender] != 0, 'You have no battle.');\r\n\r\n        uint i;\r\n        Battle storage _battle;\r\n\r\n        for (i = 0; i < currentBattleList.length; i ++) {\r\n            if (currentBattleList[i].battleID == currentBattles[msg.sender]) break;\r\n        }\r\n\r\n        require(i != currentBattleList.length, 'You have no battle.');\r\n\r\n        _battle = currentBattleList[i];\r\n\r\n        if (_battle.player1.lifePoint == 0 || _battle.player2.lifePoint == 0 || (_battle.playerState == 2 && _battle.turn == 5)) {\r\n            currentBattles[_battle.player1.playerAddress] = 0;\r\n            currentBattles[_battle.player2.playerAddress] = 0;\r\n            endedBattles[_battle.player1.playerAddress].push(endedBattleList.length);\r\n            endedBattles[_battle.player2.playerAddress].push(endedBattleList.length);\r\n            endedBattleList.push(_battle);\r\n            currentBattleList[i] = currentBattleList[currentBattleList.length - 1];\r\n            delete currentBattleList[currentBattleList.length - 1];\r\n            return;\r\n        }\r\n\r\n        _battle.player1MonsterCards.push(_battle.player1.cardsInPlay[0]);\r\n        _battle.player1SpellCards.push(_battle.player1.cardsInPlay.length == 2 ? _battle.player1.cardsInPlay[1] : 0);\r\n        _battle.player2MonsterCards.push(_battle.player2.cardsInPlay[0]);\r\n        _battle.player2SpellCards.push(_battle.player2.cardsInPlay.length == 2 ? _battle.player2.cardsInPlay[1] : 0);\r\n        _battle.player1.cardsInPlay = new uint[](0);\r\n        _battle.player2.cardsInPlay = new uint[](0);\r\n\r\n        if (_battle.playerState == 2) {\r\n            _battle.player1.cardsInHand = new uint[](0);\r\n            _battle.player2.cardsInHand = new uint[](0);\r\n            _battle.playerState = 1;\r\n            _battle.turn = _battle.turn + 1;\r\n            _battle.player1.manaPoint = _manaPoint;\r\n            _battle.player2.manaPoint = _manaPoint;\r\n        } else {\r\n            _battle.playerState = 2;\r\n        }\r\n\r\n        currentBattleList[i] = _battle;\r\n    }\r\n}",
  "sourcePath": "D:\\JCJ\\Solidity\\calm_card_game\\contracts\\AngelAndDemonGame.sol",
  "compiler": {
    "name": "solc",
    "version": "0.8.9+commit.e5eed63a.Emscripten.clang"
  },
  "schemaVersion": "3.4.3",
  "updatedAt": "2022-02-15T07:37:47.458Z",
  "devdoc": {
    "kind": "dev",
    "methods": {
      "owner()": {
        "details": "Returns the address of the current owner."
      },
      "renounceOwnership()": {
        "details": "Leaves the contract without owner. It will not be possible to call `onlyOwner` functions anymore. Can only be called by the current owner. NOTE: Renouncing ownership will leave the contract without an owner, thereby removing any functionality that is only available to the owner."
      },
      "transferOwnership(address)": {
        "details": "Transfers ownership of the contract to a new account (`newOwner`). Can only be called by the current owner."
      }
    },
    "version": 1
  },
  "userdoc": {
    "kind": "user",
    "methods": {},
    "version": 1
  }
}