{
  "contractName": "AngelAndDemonGame",
  "abi": [
    {
      "inputs": [
        {
          "internalType": "address",
          "name": "andToken",
          "type": "address"
        }
      ],
      "stateMutability": "nonpayable",
      "type": "constructor"
    },
    {
      "anonymous": false,
      "inputs": [
        {
          "indexed": true,
          "internalType": "address",
          "name": "previousOwner",
          "type": "address"
        },
        {
          "indexed": true,
          "internalType": "address",
          "name": "newOwner",
          "type": "address"
        }
      ],
      "name": "OwnershipTransferred",
      "type": "event"
    },
    {
      "inputs": [],
      "name": "owner",
      "outputs": [
        {
          "internalType": "address",
          "name": "",
          "type": "address"
        }
      ],
      "stateMutability": "view",
      "type": "function",
      "constant": true
    },
    {
      "inputs": [],
      "name": "renounceOwnership",
      "outputs": [],
      "stateMutability": "nonpayable",
      "type": "function"
    },
    {
      "inputs": [
        {
          "internalType": "address",
          "name": "newOwner",
          "type": "address"
        }
      ],
      "name": "transferOwnership",
      "outputs": [],
      "stateMutability": "nonpayable",
      "type": "function"
    },
    {
      "inputs": [
        {
          "internalType": "bytes",
          "name": "params",
          "type": "bytes"
        }
      ],
      "name": "addCardsToPlayer",
      "outputs": [],
      "stateMutability": "nonpayable",
      "type": "function"
    },
    {
      "inputs": [
        {
          "internalType": "address",
          "name": "_sender",
          "type": "address"
        }
      ],
      "name": "getCardsOfPlayer",
      "outputs": [
        {
          "internalType": "bytes",
          "name": "",
          "type": "bytes"
        }
      ],
      "stateMutability": "view",
      "type": "function",
      "constant": true
    },
    {
      "inputs": [
        {
          "internalType": "uint256[]",
          "name": "cardIDs",
          "type": "uint256[]"
        }
      ],
      "name": "addCardsToDeck",
      "outputs": [],
      "stateMutability": "nonpayable",
      "type": "function"
    },
    {
      "inputs": [
        {
          "internalType": "address",
          "name": "_sender",
          "type": "address"
        }
      ],
      "name": "getCardsFromDeck",
      "outputs": [
        {
          "internalType": "bytes",
          "name": "",
          "type": "bytes"
        }
      ],
      "stateMutability": "view",
      "type": "function",
      "constant": true
    },
    {
      "inputs": [
        {
          "internalType": "string",
          "name": "_playerName",
          "type": "string"
        }
      ],
      "name": "setPlayerName",
      "outputs": [],
      "stateMutability": "nonpayable",
      "type": "function"
    },
    {
      "inputs": [
        {
          "internalType": "address",
          "name": "_playerAddress",
          "type": "address"
        }
      ],
      "name": "getPlayerName",
      "outputs": [
        {
          "internalType": "string",
          "name": "",
          "type": "string"
        }
      ],
      "stateMutability": "view",
      "type": "function",
      "constant": true
    },
    {
      "inputs": [],
      "name": "findBattle",
      "outputs": [],
      "stateMutability": "nonpayable",
      "type": "function"
    },
    {
      "inputs": [
        {
          "internalType": "address",
          "name": "_sender",
          "type": "address"
        }
      ],
      "name": "getBattle",
      "outputs": [
        {
          "components": [
            {
              "internalType": "uint256",
              "name": "battleID",
              "type": "uint256"
            },
            {
              "components": [
                {
                  "internalType": "address",
                  "name": "playerAddress",
                  "type": "address"
                },
                {
                  "internalType": "uint256",
                  "name": "lifePoint",
                  "type": "uint256"
                },
                {
                  "internalType": "uint256",
                  "name": "manaPoint",
                  "type": "uint256"
                },
                {
                  "internalType": "uint256[]",
                  "name": "cardsInHand",
                  "type": "uint256[]"
                },
                {
                  "internalType": "uint256[]",
                  "name": "cardsInPlay",
                  "type": "uint256[]"
                },
                {
                  "internalType": "uint256[]",
                  "name": "cardsDeck",
                  "type": "uint256[]"
                }
              ],
              "internalType": "struct AngelAndDemonGame.BattlePlayer",
              "name": "player1",
              "type": "tuple"
            },
            {
              "components": [
                {
                  "internalType": "address",
                  "name": "playerAddress",
                  "type": "address"
                },
                {
                  "internalType": "uint256",
                  "name": "lifePoint",
                  "type": "uint256"
                },
                {
                  "internalType": "uint256",
                  "name": "manaPoint",
                  "type": "uint256"
                },
                {
                  "internalType": "uint256[]",
                  "name": "cardsInHand",
                  "type": "uint256[]"
                },
                {
                  "internalType": "uint256[]",
                  "name": "cardsInPlay",
                  "type": "uint256[]"
                },
                {
                  "internalType": "uint256[]",
                  "name": "cardsDeck",
                  "type": "uint256[]"
                }
              ],
              "internalType": "struct AngelAndDemonGame.BattlePlayer",
              "name": "player2",
              "type": "tuple"
            },
            {
              "internalType": "bool",
              "name": "isAccepted",
              "type": "bool"
            },
            {
              "internalType": "address",
              "name": "winner",
              "type": "address"
            },
            {
              "internalType": "uint256",
              "name": "createdAt",
              "type": "uint256"
            },
            {
              "internalType": "uint256",
              "name": "playerState",
              "type": "uint256"
            },
            {
              "internalType": "uint256",
              "name": "turn",
              "type": "uint256"
            }
          ],
          "internalType": "struct AngelAndDemonGame.Battle",
          "name": "",
          "type": "tuple"
        }
      ],
      "stateMutability": "view",
      "type": "function",
      "constant": true
    }
  ],
  "bytecode": "0x60806040523480156200001157600080fd5b5060405162002f9338038062002f93833981016040819052620000349162000229565b6200003f3362000133565b600a60015560646002556040805180820190915260138082527f416e67656c73416e6444656d6f6e7347616d650000000000000000000000000060209092019182526200008f9160049162000183565b506040805180820190915260148082527f414e47454c5f414e445f44454d4f4e5f47414d450000000000000000000000006020909201918252620000d69160059162000183565b5060405180606001604052806022815260200162002f71602291398051620001079160069160209091019062000183565b506001600355601380546001600160a01b0319166001600160a01b039290921691909117905562000298565b600080546001600160a01b038381166001600160a01b0319831681178455604051919092169283917f8be0079c531659141344cd1fd0a4f28419497f9722a3daafe3b4186f6b6457e09190a35050565b82805462000191906200025b565b90600052602060002090601f016020900481019282620001b5576000855562000200565b82601f10620001d057805160ff191683800117855562000200565b8280016001018555821562000200579182015b8281111562000200578251825591602001919060010190620001e3565b506200020e92915062000212565b5090565b5b808211156200020e576000815560010162000213565b6000602082840312156200023c57600080fd5b81516001600160a01b03811681146200025457600080fd5b9392505050565b600181811c908216806200027057607f821691505b602082108114156200029257634e487b7160e01b600052602260045260246000fd5b50919050565b612cc980620002a86000396000f3fe608060405234801561001057600080fd5b50600436106100a95760003560e01c8063a9f53bd511610071578063a9f53bd51461012f578063ad227f3c14610142578063b7c618a21461014a578063d81773691461015d578063e18d38ce14610170578063f2fde38b1461018357600080fd5b80634fd375b7146100ae578063715018a6146100d7578063792cf535146100e15780638da5cb5b146100f45780639461b8ed1461010f575b600080fd5b6100c16100bc366004612283565b610196565b6040516100ce9190612303565b60405180910390f35b6100df610c22565b005b6100df6100ef366004612316565b610c8d565b6000546040516001600160a01b0390911681526020016100ce565b61012261011d366004612283565b610e90565b6040516100ce9190612439565b6100df61013d36600461253a565b6112a3565b6100df61131f565b6100c1610158366004612283565b6119bc565b6100df61016b366004612647565b611a09565b6100c161017e366004612283565b611a29565b6100df610191366004612283565b611ad5565b6001600160a01b0381166000908152600a6020526040812054606091906001600160401b038111156101ca576101ca6124d1565b60405190808252806020026020018201604052801561021f57816020015b61020c60405180606001604052806000815260200160008152602001600081525090565b8152602001906001900390816101e85790505b506001600160a01b0384166000908152600a6020526040812054919250906001600160401b03811115610254576102546124d1565b60405190808252806020026020018201604052801561028757816020015b60608152602001906001900390816102725790505b506001600160a01b0385166000908152600a6020526040812054919250906001600160401b038111156102bc576102bc6124d1565b6040519080825280602002602001820160405280156102e5578160200160208202803683370190505b506001600160a01b0386166000908152600b6020526040812054919250906001600160401b0381111561031a5761031a6124d1565b60405190808252806020026020018201604052801561036f57816020015b61035c60405180606001604052806000815260200160008152602001600081525090565b8152602001906001900390816103385790505b506001600160a01b0387166000908152600b6020526040812054919250906001600160401b038111156103a4576103a46124d1565b6040519080825280602002602001820160405280156103d757816020015b60608152602001906001900390816103c25790505b506001600160a01b0388166000908152600b6020526040812054919250906001600160401b0381111561040c5761040c6124d1565b604051908082528060200260200182016040528015610435578160200160208202803683370190505b506001600160a01b0389166000908152600c6020526040812054919250906001600160401b0381111561046a5761046a6124d1565b6040519080825280602002602001820160405280156104bf57816020015b6104ac60405180606001604052806000815260200160008152602001600081525090565b8152602001906001900390816104885790505b506001600160a01b038a166000908152600c6020526040812054919250906001600160401b038111156104f4576104f46124d1565b60405190808252806020026020018201604052801561052757816020015b60608152602001906001900390816105125790505b506001600160a01b038b166000908152600c6020526040812054919250906001600160401b0381111561055c5761055c6124d1565b604051908082528060200260200182016040528015610585578160200160208202803683370190505b50905060005b6001600160a01b038c166000908152600a60205260409020548110156107a5576001600160a01b038c166000908152600760209081526040808320600a90925282208054919291849081106105e2576105e2612683565b9060005260206000200154815260200190815260200160002060405180606001604052908160008201548152602001600182015481526020016002820154815250508a828151811061063657610636612683565b6020026020010181905250601360009054906101000a90046001600160a01b03166001600160a01b031663c87b56dd600a60008f6001600160a01b03166001600160a01b03168152602001908152602001600020838154811061069b5761069b612683565b90600052602060002001546040518263ffffffff1660e01b81526004016106c491815260200190565b60006040518083038186803b1580156106dc57600080fd5b505afa1580156106f0573d6000803e3d6000fd5b505050506040513d6000823e601f3d908101601f191682016040526107189190810190612699565b89828151811061072a5761072a612683565b6020026020010181905250600a60008d6001600160a01b03166001600160a01b03168152602001908152602001600020818154811061076b5761076b612683565b906000526020600020015488828151811061078857610788612683565b60209081029190910101528061079d8161271c565b91505061058b565b5060005b6001600160a01b038c166000908152600b60205260409020548110156109c3576001600160a01b038c166000908152600860209081526040808320600b909252822080549192918490811061080057610800612683565b90600052602060002001548152602001908152602001600020604051806060016040529081600082015481526020016001820154815260200160028201548152505087828151811061085457610854612683565b6020026020010181905250601360009054906101000a90046001600160a01b03166001600160a01b031663c87b56dd600b60008f6001600160a01b03166001600160a01b0316815260200190815260200160002083815481106108b9576108b9612683565b90600052602060002001546040518263ffffffff1660e01b81526004016108e291815260200190565b60006040518083038186803b1580156108fa57600080fd5b505afa15801561090e573d6000803e3d6000fd5b505050506040513d6000823e601f3d908101601f191682016040526109369190810190612699565b86828151811061094857610948612683565b6020026020010181905250600b60008d6001600160a01b03166001600160a01b03168152602001908152602001600020818154811061098957610989612683565b90600052602060002001548582815181106109a6576109a6612683565b6020908102919091010152806109bb8161271c565b9150506107a9565b5060005b6001600160a01b038c166000908152600c6020526040902054811015610be1576001600160a01b038c166000908152600960209081526040808320600c9092528220805491929184908110610a1e57610a1e612683565b906000526020600020015481526020019081526020016000206040518060600160405290816000820154815260200160018201548152602001600282015481525050848281518110610a7257610a72612683565b6020026020010181905250601360009054906101000a90046001600160a01b03166001600160a01b031663c87b56dd600c60008f6001600160a01b03166001600160a01b031681526020019081526020016000208381548110610ad757610ad7612683565b90600052602060002001546040518263ffffffff1660e01b8152600401610b0091815260200190565b60006040518083038186803b158015610b1857600080fd5b505afa158015610b2c573d6000803e3d6000fd5b505050506040513d6000823e601f3d908101601f19168201604052610b549190810190612699565b838281518110610b6657610b66612683565b6020026020010181905250600c60008d6001600160a01b03166001600160a01b031681526020019081526020016000208181548110610ba757610ba7612683565b9060005260206000200154828281518110610bc457610bc4612683565b602090810291909101015280610bd98161271c565b9150506109c7565b50888888888888888888604051602001610c03999897969594939291906127d2565b6040516020818303038152906040529950505050505050505050919050565b6000546001600160a01b03163314610c815760405162461bcd60e51b815260206004820181905260248201527f4f776e61626c653a2063616c6c6572206973206e6f7420746865206f776e657260448201526064015b60405180910390fd5b610c8b6000611ba0565b565b60008080808080808080610ca38a8c018c6129d2565b98509850985098509850985098509850985060005b89811015610d4e57610d3c898281518110610cd557610cd5612683565b6020026020010151600001518a8381518110610cf357610cf3612683565b6020026020010151602001518b8481518110610d1157610d11612683565b6020026020010151604001518b8581518110610d2f57610d2f612683565b6020026020010151611bf0565b80610d468161271c565b915050610cb8565b5060005b86811015610de857610dd6868281518110610d6f57610d6f612683565b602002602001015160000151878381518110610d8d57610d8d612683565b602002602001015160200151888481518110610dab57610dab612683565b602002602001015160400151888581518110610dc957610dc9612683565b6020026020010151611d96565b80610de08161271c565b915050610d52565b5060005b83811015610e8257610e70838281518110610e0957610e09612683565b602002602001015160000151848381518110610e2757610e27612683565b602002602001015160200151858481518110610e4557610e45612683565b602002602001015160400151858581518110610e6357610e63612683565b6020026020010151611f3c565b80610e7a8161271c565b915050610dec565b505050505050505050505050565b610e986120e2565b6001600160a01b0382166000908152600f6020526040902054610ef35760405162461bcd60e51b81526020600482015260136024820152722cb7ba903430bb32903737903130ba3a36329760691b6044820152606401610c78565b60005b601154811015610f5c576001600160a01b0383166000908152600f60205260409020546011805483908110610f2d57610f2d612683565b9060005260206000209060110201600001541415610f4a57610f5c565b80610f548161271c565b915050610ef6565b601154811415610fa45760405162461bcd60e51b81526020600482015260136024820152722cb7ba903430bb32903737903130ba3a36329760691b6044820152606401610c78565b60118181548110610fb757610fb7612683565b60009182526020918290206040805161010081018252601190930290910180548352815160c0810183526001820180546001600160a01b0316825260028301548287015260038301548285015260048301805485518189028101890190965280865295969395878501959394929360608601939092919083018282801561105d57602002820191906000526020600020905b815481526020019060010190808311611049575b50505050508152602001600482018054806020026020016040519081016040528092919081815260200182805480156110b557602002820191906000526020600020905b8154815260200190600101908083116110a1575b505050505081526020016005820180548060200260200160405190810160405280929190818152602001828054801561110d57602002820191906000526020600020905b8154815260200190600101908083116110f9575b5050509190925250505081526040805160c0810182526007840180546001600160a01b031682526008850154602083810191909152600986015483850152600a86018054855181840281018401909652808652958201959394929360608601939283018282801561119d57602002820191906000526020600020905b815481526020019060010190808311611189575b50505050508152602001600482018054806020026020016040519081016040528092919081815260200182805480156111f557602002820191906000526020600020905b8154815260200190600101908083116111e1575b505050505081526020016005820180548060200260200160405190810160405280929190818152602001828054801561124d57602002820191906000526020600020905b815481526020019060010190808311611239575b505050919092525050508152600d82015460ff81161515602083015261010090046001600160a01b03166040820152600e8201546060820152600f820154608082015260109091015460a0909101529392505050565b336000908152600d602052604081206112bb9161213e565b60005b815181101561131b57336000908152600d6020526040902082518390839081106112ea576112ea612683565b60209081029190910181015182546001810184556000938452919092200155806113138161271c565b9150506112be565b5050565b336000908152600f60205260409020541561137c5760405162461bcd60e51b815260206004820152601a60248201527f596f752061726520616c726561647920696e20626174746c652e0000000000006044820152606401610c78565b336000908152600d60205260409020546028146113d15760405162461bcd60e51b8152602060048201526013602482015272283632b0b9b29039b2b632b1ba103232b1b59760691b6044820152606401610c78565b60408051602880825261052082019092526000918291906020820161050080368337019050509050600091505b602882101561146257336000908152600d6020526040902080548390811061142857611428612683565b906000526020600020015481838151811061144557611445612683565b60209081029190910101528161145a8161271c565b9250506113fe565b600091505b6011548210156114b6576011828154811061148457611484612683565b60009182526020909120600d601190920201015460ff166114a4576114b6565b816114ae8161271c565b925050611467565b60115482141561184857601160405180610100016040528060035481526020016040518060c00160405280336001600160a01b0316815260200160648152602001600a815260200160006001600160401b03811115611517576115176124d1565b604051908082528060200260200182016040528015611540578160200160208202803683370190505b5081526020016000604051908082528060200260200182016040528015611571578160200160208202803683370190505b5081526020018581525081526020016040518060c0016040528060006001600160a01b03168152602001600081526020016000815260200160006001600160401b038111156115c2576115c26124d1565b6040519080825280602002602001820160405280156115eb578160200160208202803683370190505b508152602001600060405190808252806020026020018201604052801561161c578160200160208202803683370190505b508152602001600060405190808252806020026020018201604052801561164d578160200160208202803683370190505b50905281526000602080830182905260408084018390524260608086019190915260016080860181905260a09095018590528654808601885596845292829020855160119097020195865584820151805194870180546001600160a01b0319166001600160a01b039096169590951785558083015160028801559081015160038701559182015180519495949293926116ec926004870192019061215c565b506080820151805161170891600484019160209091019061215c565b5060a0820151805161172491600584019160209091019061215c565b50505060408281015180516007840180546001600160a01b0319166001600160a01b039092169190911781556020808301516008860155928201516009850155606082015180519293919261177f92600a870192019061215c565b506080820151805161179b91600484019160209091019061215c565b5060a082015180516117b791600584019160209091019061215c565b5050506060820151600d8201805460808501516001600160a01b031661010002610100600160a81b0319931515939093166001600160a81b03199091161791909117905560a0820151600e82015560c0820151600f8083019190915560e0909201516010909101556003543360009081526020929092526040909120819055611841906001612ae5565b6003555050565b6040805160c0810182523381526064602080830191909152600a8284015282516000808252818301855260608401919091528351908152908101909252608081019190915260a0810182905260118054849081106118a8576118a8612683565b60009182526020918290208351601192909202016007810180546001600160a01b0319166001600160a01b039093169290921782558383015160088201556040840151600982015560608401518051929361190b93600a9093019291019061215c565b506080820151805161192791600484019160209091019061215c565b5060a0820151805161194391600584019160209091019061215c565b5090505060016011838154811061195c5761195c612683565b9060005260206000209060110201600d0160006101000a81548160ff0219169083151502179055506011828154811061199757611997612683565b60009182526020808320601190920290910154338352600f9091526040909120555050565b6060600d6000836001600160a01b03166001600160a01b031681526020019081526020016000206040516020016119f39190612afd565b6040516020818303038152906040529050919050565b336000908152600e60209081526040909120825161131b928401906121a7565b6001600160a01b0381166000908152600e60205260409020805460609190611a5090612b44565b80601f0160208091040260200160405190810160405280929190818152602001828054611a7c90612b44565b8015611ac95780601f10611a9e57610100808354040283529160200191611ac9565b820191906000526020600020905b815481529060010190602001808311611aac57829003601f168201915b50505050509050919050565b6000546001600160a01b03163314611b2f5760405162461bcd60e51b815260206004820181905260248201527f4f776e61626c653a2063616c6c6572206973206e6f7420746865206f776e65726044820152606401610c78565b6001600160a01b038116611b945760405162461bcd60e51b815260206004820152602660248201527f4f776e61626c653a206e6577206f776e657220697320746865207a65726f206160448201526564647265737360d01b6064820152608401610c78565b611b9d81611ba0565b50565b600080546001600160a01b038381166001600160a01b0319831681178455604051919092169283917f8be0079c531659141344cd1fd0a4f28419497f9722a3daafe3b4186f6b6457e09190a35050565b6013546040516000916001600160a01b031690638ee507bb903390611c1c906006908790602001612b9b565b6040516020818303038152906040526040518363ffffffff1660e01b8152600401611c48929190612c39565b602060405180830381600087803b158015611c6257600080fd5b505af1158015611c76573d6000803e3d6000fd5b505050506040513d601f19601f82011682018060405250810190611c9a9190612c5d565b6013546040516331a9108f60e11b81526004810183905291925033916001600160a01b0390911690636352211e9060240160206040518083038186803b158015611ce357600080fd5b505afa158015611cf7573d6000803e3d6000fd5b505050506040513d601f19601f82011682018060405250810190611d1b9190612c76565b6001600160a01b031614611d2e57600080fd5b6040805160608101825295865260208087019586528682019485523360008181526007835283812085825283528381209851895596516001808a01919091559551600290980197909755958552600a8652842080549384018155845293909220019190915550565b6013546040516000916001600160a01b031690638ee507bb903390611dc2906006908790602001612b9b565b6040516020818303038152906040526040518363ffffffff1660e01b8152600401611dee929190612c39565b602060405180830381600087803b158015611e0857600080fd5b505af1158015611e1c573d6000803e3d6000fd5b505050506040513d601f19601f82011682018060405250810190611e409190612c5d565b6013546040516331a9108f60e11b81526004810183905291925033916001600160a01b0390911690636352211e9060240160206040518083038186803b158015611e8957600080fd5b505afa158015611e9d573d6000803e3d6000fd5b505050506040513d601f19601f82011682018060405250810190611ec19190612c76565b6001600160a01b031614611ed457600080fd5b6040805160608101825295865260208087019586528682019485523360008181526008835283812085825283528381209851895596516001808a01919091559551600290980197909755958552600b8652842080549384018155845293909220019190915550565b6013546040516000916001600160a01b031690638ee507bb903390611f68906006908790602001612b9b565b6040516020818303038152906040526040518363ffffffff1660e01b8152600401611f94929190612c39565b602060405180830381600087803b158015611fae57600080fd5b505af1158015611fc2573d6000803e3d6000fd5b505050506040513d601f19601f82011682018060405250810190611fe69190612c5d565b6013546040516331a9108f60e11b81526004810183905291925033916001600160a01b0390911690636352211e9060240160206040518083038186803b15801561202f57600080fd5b505afa158015612043573d6000803e3d6000fd5b505050506040513d601f19601f820116820180604052508101906120679190612c76565b6001600160a01b03161461207a57600080fd5b6040805160608101825295865260208087019586528682019485523360008181526009835283812085825283528381209851895596516001808a01919091559551600290980197909755958552600c8652842080549384018155845293909220019190915550565b604051806101000160405280600081526020016120fd61221a565b815260200161210a61221a565b815260200160001515815260200160006001600160a01b031681526020016000815260200160008152602001600081525090565b5080546000825590600052602060002090810190611b9d9190612259565b828054828255906000526020600020908101928215612197579160200282015b8281111561219757825182559160200191906001019061217c565b506121a3929150612259565b5090565b8280546121b390612b44565b90600052602060002090601f0160209004810192826121d55760008555612197565b82601f106121ee57805160ff1916838001178555612197565b82800160010185558215612197579182018281111561219757825182559160200191906001019061217c565b6040518060c0016040528060006001600160a01b0316815260200160008152602001600081526020016060815260200160608152602001606081525090565b5b808211156121a3576000815560010161225a565b6001600160a01b0381168114611b9d57600080fd5b60006020828403121561229557600080fd5b81356122a08161226e565b9392505050565b60005b838110156122c25781810151838201526020016122aa565b838111156122d1576000848401525b50505050565b600081518084526122ef8160208601602086016122a7565b601f01601f19169290920160200192915050565b6020815260006122a060208301846122d7565b6000806020838503121561232957600080fd5b82356001600160401b038082111561234057600080fd5b818501915085601f83011261235457600080fd5b81358181111561236357600080fd5b86602082850101111561237557600080fd5b60209290920196919550909350505050565b600081518084526020808501945080840160005b838110156123b75781518752958201959082019060010161239b565b509495945050505050565b60018060a01b03815116825260208101516020830152604081015160408301526000606082015160c060608501526123fd60c0850182612387565b9050608083015184820360808601526124168282612387565b91505060a083015184820360a08601526124308282612387565b95945050505050565b6020815281516020820152600060208301516101008060408501526124626101208501836123c2565b91506040850151601f1985840301606086015261247f83826123c2565b92505060608501511515608085015260808501516124a860a08601826001600160a01b03169052565b5060a085015160c085015260c085015160e085015260e085015181850152508091505092915050565b634e487b7160e01b600052604160045260246000fd5b604051601f8201601f191681016001600160401b038111828210171561250f5761250f6124d1565b604052919050565b60006001600160401b03821115612530576125306124d1565b5060051b60200190565b6000602080838503121561254d57600080fd5b82356001600160401b0381111561256357600080fd5b8301601f8101851361257457600080fd5b803561258761258282612517565b6124e7565b81815260059190911b820183019083810190878311156125a657600080fd5b928401925b828410156125c4578335825292840192908401906125ab565b979650505050505050565b60006001600160401b038211156125e8576125e86124d1565b50601f01601f191660200190565b600082601f83011261260757600080fd5b8135612615612582826125cf565b81815284602083860101111561262a57600080fd5b816020850160208301376000918101602001919091529392505050565b60006020828403121561265957600080fd5b81356001600160401b0381111561266f57600080fd5b61267b848285016125f6565b949350505050565b634e487b7160e01b600052603260045260246000fd5b6000602082840312156126ab57600080fd5b81516001600160401b038111156126c157600080fd5b8201601f810184136126d257600080fd5b80516126e0612582826125cf565b8181528560208385010111156126f557600080fd5b6124308260208301602086016122a7565b634e487b7160e01b600052601160045260246000fd5b600060001982141561273057612730612706565b5060010190565b600081518084526020808501945080840160005b838110156123b7578151805188528381015184890152604090810151908801526060909601959082019060010161274b565b600081518084526020808501808196508360051b8101915082860160005b858110156127c55782840389526127b38483516122d7565b9885019893509084019060010161279b565b5091979650505050505050565b60006101208083526127e68184018d612737565b905082810360208401526127fa818c61277d565b9050828103604084015261280e818b612387565b90508281036060840152612822818a612737565b90508281036080840152612836818961277d565b905082810360a084015261284a8188612387565b905082810360c084015261285e8187612737565b905082810360e0840152612872818661277d565b90508281036101008401526128878185612387565b9c9b505050505050505050505050565b600082601f8301126128a857600080fd5b813560206128b861258283612517565b828152606092830285018201928282019190878511156128d757600080fd5b8387015b8581101561293b5781818a0312156128f35760008081fd5b604080518381018181106001600160401b0382111715612915576129156124d1565b8252823581528683013587820152828201359181019190915284529284019281016128db565b5090979650505050505050565b600082601f83011261295957600080fd5b8135602061296961258283612517565b82815260059290921b8401810191818101908684111561298857600080fd5b8286015b848110156129c75780356001600160401b038111156129ab5760008081fd5b6129b98986838b01016125f6565b84525091830191830161298c565b509695505050505050565b60008060008060008060008060006101208a8c0312156129f157600080fd5b8935985060208a01356001600160401b0380821115612a0f57600080fd5b612a1b8d838e01612897565b995060408c0135915080821115612a3157600080fd5b612a3d8d838e01612948565b985060608c0135975060808c0135915080821115612a5a57600080fd5b612a668d838e01612897565b965060a08c0135915080821115612a7c57600080fd5b612a888d838e01612948565b955060c08c0135945060e08c0135915080821115612aa557600080fd5b612ab18d838e01612897565b93506101008c0135915080821115612ac857600080fd5b50612ad58c828d01612948565b9150509295985092959850929598565b60008219821115612af857612af8612706565b500190565b6020808252825482820181905260008481528281209092916040850190845b81811015612b3857835483526001938401939285019201612b1c565b50909695505050505050565b600181811c90821680612b5857607f821691505b60208210811415612b7957634e487b7160e01b600052602260045260246000fd5b50919050565b60008151612b918185602086016122a7565b9290920192915050565b600080845481600182811c915080831680612bb757607f831692505b6020808410821415612bd757634e487b7160e01b86526022600452602486fd5b818015612beb5760018114612bfc57612c29565b60ff19861689528489019650612c29565b60008b81526020902060005b86811015612c215781548b820152908501908301612c08565b505084890196505b5050505050506124308185612b7f565b6001600160a01b038316815260406020820181905260009061267b908301846122d7565b600060208284031215612c6f57600080fd5b5051919050565b600060208284031215612c8857600080fd5b81516122a08161226e56fea2646970667358221220a586edc70c880dd942a29a9fa39083b8399399f754d5b6006e634660e47a367b64736f6c63430008090033687474703a2f2f3136372e38362e3132302e3139373a333030302f696d616765732f",
  "immutableReferences": {},
  "source": "// SPDX-License-Identifier: MIT\r\n\r\npragma solidity ^0.8.0;\r\n\r\nimport \"@openzeppelin/contracts/access/Ownable.sol\";\r\nimport './AngelAndDemonToken.sol';\r\n\r\ncontract AngelAndDemonGame is Ownable {\r\n    uint private _manaPoint;\r\n    uint private _lifePoint;\r\n    uint private _curBattleCounter;\r\n    string private _name;\r\n    string private _symbol;\r\n    string private _baseURL;\r\n\r\n    struct Monster {\r\n        uint attackPoint;\r\n        uint defensePoint;\r\n        uint manaCost;\r\n    }\r\n\r\n    struct Spell {\r\n        uint attackPoint;\r\n        uint defensePoint;\r\n        uint manaCost;\r\n    }\r\n\r\n    struct Equip {\r\n        uint attackPoint;\r\n        uint defensePoint;\r\n        uint manaCost;\r\n    }\r\n\r\n    struct BattlePlayer {\r\n        address playerAddress;\r\n        uint lifePoint;\r\n        uint manaPoint;\r\n        uint[] cardsInHand;\r\n        uint[] cardsInPlay;\r\n        uint[] cardsDeck;\r\n    }\r\n\r\n    struct Battle {\r\n        uint battleID;\r\n        BattlePlayer player1;\r\n        BattlePlayer player2;\r\n        bool isAccepted;\r\n        address winner;\r\n        uint createdAt;\r\n        uint playerState; //1 -> player1 attack, 2 -> player2 attack\r\n        uint turn;\r\n    }\r\n\r\n    mapping (address => mapping (uint => Monster)) monsters;\r\n    mapping (address => mapping (uint => Spell)) spells;\r\n    mapping (address => mapping (uint => Equip)) equips;\r\n    mapping (address => uint[]) monsterList;\r\n    mapping (address => uint[]) spellList;\r\n    mapping (address => uint[]) equipList;\r\n    mapping (address => uint[]) deckList;\r\n    mapping (address => string) playerNames;\r\n    mapping (address => uint) currentBattles; //Battle.battleID\r\n    mapping (address => uint[]) endedBattles;\r\n    Battle[] currentBattleList;\r\n    Battle[] endedBattleList;\r\n\r\n    AngelAndDemonToken angelAndDemonToken;\r\n\r\n    constructor(address andToken) {\r\n        _manaPoint = 10;\r\n        _lifePoint = 100;\r\n        _name = \"AngelsAndDemonsGame\";\r\n        _symbol = \"ANGEL_AND_DEMON_GAME\";\r\n        _baseURL = \"http://167.86.120.197:3000/images/\";\r\n        _curBattleCounter = 1;\r\n        angelAndDemonToken = AngelAndDemonToken(andToken);\r\n    }\r\n\r\n    function addMonster(\r\n        uint attackPoint,\r\n        uint defensePoint,\r\n        uint manaCost,\r\n        string memory cardURL\r\n    ) private {\r\n        uint _monsterId = angelAndDemonToken.safeMintTo(msg.sender, string(abi.encodePacked(_baseURL, cardURL)));\r\n        require(angelAndDemonToken.ownerOf(_monsterId) == msg.sender);\r\n        monsters[msg.sender][_monsterId] = Monster(attackPoint, defensePoint, manaCost);\r\n        monsterList[msg.sender].push(_monsterId);\r\n    }\r\n\r\n    function addSpell(\r\n        uint attackPoint,\r\n        uint defensePoint,\r\n        uint manaCost,\r\n        string memory cardURL\r\n    ) private {\r\n        uint _spellId = angelAndDemonToken.safeMintTo(msg.sender, string(abi.encodePacked(_baseURL, cardURL)));\r\n        require(angelAndDemonToken.ownerOf(_spellId) == msg.sender);\r\n        spells[msg.sender][_spellId] = Spell(attackPoint, defensePoint, manaCost);\r\n        spellList[msg.sender].push(_spellId);\r\n    }\r\n\r\n    function addEquip(\r\n        uint attackPoint,\r\n        uint defensePoint,\r\n        uint manaCost,\r\n        string memory cardURL\r\n    ) private {\r\n        uint _equipId = angelAndDemonToken.safeMintTo(msg.sender, string(abi.encodePacked(_baseURL, cardURL)));\r\n        require(angelAndDemonToken.ownerOf(_equipId) == msg.sender);\r\n        equips[msg.sender][_equipId] = Equip(attackPoint, defensePoint, manaCost);\r\n        equipList[msg.sender].push(_equipId);\r\n    }\r\n\r\n    function addCardsToPlayer(\r\n        bytes calldata params\r\n    ) public {\r\n        (uint _monsterCount,\r\n        Monster[] memory _monsters,\r\n        string[] memory _monsterURLs,\r\n        uint _sepllCount,\r\n        Spell[] memory _spells,\r\n        string[] memory _spellURLs,\r\n        uint _equipCount,\r\n        Equip[] memory _equips,\r\n        string[] memory _equipURLs) = abi.decode(params, (uint, Monster[], string[], uint, Spell[], string[], uint, Equip[], string[]));\r\n        \r\n        for (uint i = 0; i < _monsterCount; i ++) {\r\n            addMonster(_monsters[i].attackPoint, _monsters[i].defensePoint, _monsters[i].manaCost, _monsterURLs[i]);\r\n        }\r\n\r\n        for (uint i = 0; i < _sepllCount; i ++) {\r\n            addSpell(_spells[i].attackPoint, _spells[i].defensePoint, _spells[i].manaCost, _spellURLs[i]);\r\n        }\r\n\r\n        for (uint i = 0; i < _equipCount; i ++) {\r\n            addEquip(_equips[i].attackPoint, _equips[i].defensePoint, _equips[i].manaCost, _equipURLs[i]);\r\n        }\r\n    }\r\n\r\n    function getCardsOfPlayer(address _sender) public view returns(bytes memory) {\r\n        // uint constant mLen = monsterList[_sender].length;\r\n        // uint balance[] = new uint[](size);\r\n        Monster[] memory _monsters = new Monster[](monsterList[_sender].length);\r\n        string[] memory _monsterURLs = new string[](monsterList[_sender].length);\r\n        uint[] memory _monsterIDs = new uint[](monsterList[_sender].length);\r\n        Spell[] memory _spells = new Spell[](spellList[_sender].length);\r\n        string[] memory _spellURLs = new string[](spellList[_sender].length);\r\n        uint[] memory _spellIDs = new uint[](spellList[_sender].length);\r\n        Equip[] memory _equips = new Equip[](equipList[_sender].length);\r\n        string[] memory _equipURLs = new string[](equipList[_sender].length);\r\n        uint[] memory _equipIDs = new uint[](equipList[_sender].length);\r\n\r\n        for (uint i = 0; i < monsterList[_sender].length; i ++) {\r\n            _monsters[i] = monsters[_sender][monsterList[_sender][i]];\r\n            _monsterURLs[i] = angelAndDemonToken.tokenURI(monsterList[_sender][i]);\r\n            _monsterIDs[i] = monsterList[_sender][i];\r\n        }\r\n\r\n        for (uint i = 0; i < spellList[_sender].length; i ++) {\r\n            _spells[i] = spells[_sender][spellList[_sender][i]];\r\n            _spellURLs[i] = angelAndDemonToken.tokenURI(spellList[_sender][i]);\r\n            _spellIDs[i] = spellList[_sender][i];\r\n        }\r\n\r\n        for (uint i = 0; i < equipList[_sender].length; i ++) {\r\n            _equips[i] = equips[_sender][equipList[_sender][i]];\r\n            _equipURLs[i] = angelAndDemonToken.tokenURI(equipList[_sender][i]);\r\n            _equipIDs[i] = equipList[_sender][i];\r\n        }\r\n\r\n        return abi.encode(_monsters, _monsterURLs, _monsterIDs, _spells, _spellURLs, _spellIDs, _equips, _equipURLs, _equipIDs);\r\n    }\r\n\r\n    function addCardsToDeck(uint[] memory cardIDs) public {\r\n        delete deckList[msg.sender];\r\n\r\n        for (uint i = 0; i < cardIDs.length; i ++) {\r\n            deckList[msg.sender].push(cardIDs[i]);\r\n        }\r\n    }\r\n\r\n    function getCardsFromDeck(address _sender) public view returns(bytes memory) {\r\n        return abi.encode(deckList[_sender]);\r\n    }\r\n\r\n    function setPlayerName(string memory _playerName) public {\r\n        playerNames[msg.sender] = _playerName;\r\n    }\r\n\r\n    function getPlayerName(address _playerAddress) public view returns(string memory) { \r\n        return playerNames[_playerAddress];\r\n    }\r\n\r\n    function findBattle() public {\r\n        require(currentBattles[msg.sender] == 0, 'You are already in battle.');\r\n        require(deckList[msg.sender].length == 40, 'Please select deck.');\r\n\r\n        uint i;\r\n        uint[] memory cardsDeck = new uint[](40);\r\n\r\n        for (i = 0; i < 40; i ++) {\r\n            cardsDeck[i] = deckList[msg.sender][i];\r\n        }\r\n\r\n        for (i = 0; i < currentBattleList.length; i ++) {\r\n            if (currentBattleList[i].isAccepted == false) {\r\n                break;\r\n            }\r\n        }\r\n\r\n        if (i == currentBattleList.length) {\r\n            currentBattleList.push(Battle(\r\n                _curBattleCounter,\r\n                BattlePlayer(\r\n                    msg.sender,\r\n                    100,\r\n                    10,\r\n                    new uint[](0),\r\n                    new uint[](0),\r\n                    cardsDeck\r\n                ),\r\n                BattlePlayer(\r\n                    address(0),\r\n                    0,\r\n                    0,\r\n                    new uint[](0),\r\n                    new uint[](0),\r\n                    new uint[](0)\r\n                ),\r\n                false,\r\n                address(0),\r\n                block.timestamp,\r\n                1,\r\n                1\r\n            ));\r\n\r\n            currentBattles[msg.sender] = _curBattleCounter;\r\n            _curBattleCounter = _curBattleCounter + 1;\r\n        } else {\r\n            currentBattleList[i].player2 = BattlePlayer(\r\n                msg.sender,\r\n                100,\r\n                10,\r\n                new uint[](0),\r\n                new uint[](0),\r\n                cardsDeck\r\n            );\r\n            currentBattleList[i].isAccepted = true;\r\n            currentBattles[msg.sender] = currentBattleList[i].battleID;\r\n        }\r\n    }\r\n\r\n    function getBattle(address _sender) public view returns(Battle memory) {\r\n        require(currentBattles[_sender] != 0, 'You have no battle.');\r\n\r\n        uint i;\r\n\r\n        for (i = 0; i < currentBattleList.length; i ++) {\r\n            if (currentBattleList[i].battleID == currentBattles[_sender]) break;\r\n        }\r\n\r\n        require(i != currentBattleList.length, 'You have no battle.');\r\n\r\n        return currentBattleList[i];\r\n    }\r\n}",
  "sourcePath": "D:\\JCJ\\Solidity\\calm_card_game\\contracts\\AngelAndDemonGame.sol",
  "compiler": {
    "name": "solc",
    "version": "0.8.9+commit.e5eed63a.Emscripten.clang"
  },
  "schemaVersion": "3.4.3",
  "updatedAt": "2022-02-11T05:28:25.433Z",
  "networkType": "ethereum",
  "devdoc": {
    "kind": "dev",
    "methods": {
      "owner()": {
        "details": "Returns the address of the current owner."
      },
      "renounceOwnership()": {
        "details": "Leaves the contract without owner. It will not be possible to call `onlyOwner` functions anymore. Can only be called by the current owner. NOTE: Renouncing ownership will leave the contract without an owner, thereby removing any functionality that is only available to the owner."
      },
      "transferOwnership(address)": {
        "details": "Transfers ownership of the contract to a new account (`newOwner`). Can only be called by the current owner."
      }
    },
    "version": 1
  },
  "userdoc": {
    "kind": "user",
    "methods": {},
    "version": 1
  }
}