{
  "contractName": "AngelAndDemonToken",
  "abi": [
    {
      "inputs": [],
      "stateMutability": "nonpayable",
      "type": "constructor"
    },
    {
      "anonymous": false,
      "inputs": [
        {
          "indexed": true,
          "internalType": "address",
          "name": "owner",
          "type": "address"
        },
        {
          "indexed": true,
          "internalType": "address",
          "name": "approved",
          "type": "address"
        },
        {
          "indexed": true,
          "internalType": "uint256",
          "name": "tokenId",
          "type": "uint256"
        }
      ],
      "name": "Approval",
      "type": "event"
    },
    {
      "anonymous": false,
      "inputs": [
        {
          "indexed": true,
          "internalType": "address",
          "name": "owner",
          "type": "address"
        },
        {
          "indexed": true,
          "internalType": "address",
          "name": "operator",
          "type": "address"
        },
        {
          "indexed": false,
          "internalType": "bool",
          "name": "approved",
          "type": "bool"
        }
      ],
      "name": "ApprovalForAll",
      "type": "event"
    },
    {
      "anonymous": false,
      "inputs": [
        {
          "indexed": true,
          "internalType": "address",
          "name": "previousOwner",
          "type": "address"
        },
        {
          "indexed": true,
          "internalType": "address",
          "name": "newOwner",
          "type": "address"
        }
      ],
      "name": "OwnershipTransferred",
      "type": "event"
    },
    {
      "anonymous": false,
      "inputs": [
        {
          "indexed": true,
          "internalType": "address",
          "name": "from",
          "type": "address"
        },
        {
          "indexed": true,
          "internalType": "address",
          "name": "to",
          "type": "address"
        },
        {
          "indexed": true,
          "internalType": "uint256",
          "name": "tokenId",
          "type": "uint256"
        }
      ],
      "name": "Transfer",
      "type": "event"
    },
    {
      "inputs": [
        {
          "internalType": "address",
          "name": "to",
          "type": "address"
        },
        {
          "internalType": "uint256",
          "name": "tokenId",
          "type": "uint256"
        }
      ],
      "name": "approve",
      "outputs": [],
      "stateMutability": "nonpayable",
      "type": "function"
    },
    {
      "inputs": [
        {
          "internalType": "address",
          "name": "owner",
          "type": "address"
        }
      ],
      "name": "balanceOf",
      "outputs": [
        {
          "internalType": "uint256",
          "name": "",
          "type": "uint256"
        }
      ],
      "stateMutability": "view",
      "type": "function",
      "constant": true
    },
    {
      "inputs": [],
      "name": "devAddress",
      "outputs": [
        {
          "internalType": "address",
          "name": "",
          "type": "address"
        }
      ],
      "stateMutability": "view",
      "type": "function",
      "constant": true
    },
    {
      "inputs": [
        {
          "internalType": "uint256",
          "name": "tokenId",
          "type": "uint256"
        }
      ],
      "name": "getApproved",
      "outputs": [
        {
          "internalType": "address",
          "name": "",
          "type": "address"
        }
      ],
      "stateMutability": "view",
      "type": "function",
      "constant": true
    },
    {
      "inputs": [
        {
          "internalType": "address",
          "name": "owner",
          "type": "address"
        },
        {
          "internalType": "address",
          "name": "operator",
          "type": "address"
        }
      ],
      "name": "isApprovedForAll",
      "outputs": [
        {
          "internalType": "bool",
          "name": "",
          "type": "bool"
        }
      ],
      "stateMutability": "view",
      "type": "function",
      "constant": true
    },
    {
      "inputs": [],
      "name": "name",
      "outputs": [
        {
          "internalType": "string",
          "name": "",
          "type": "string"
        }
      ],
      "stateMutability": "view",
      "type": "function",
      "constant": true
    },
    {
      "inputs": [],
      "name": "owner",
      "outputs": [
        {
          "internalType": "address",
          "name": "",
          "type": "address"
        }
      ],
      "stateMutability": "view",
      "type": "function",
      "constant": true
    },
    {
      "inputs": [
        {
          "internalType": "uint256",
          "name": "tokenId",
          "type": "uint256"
        }
      ],
      "name": "ownerOf",
      "outputs": [
        {
          "internalType": "address",
          "name": "",
          "type": "address"
        }
      ],
      "stateMutability": "view",
      "type": "function",
      "constant": true
    },
    {
      "inputs": [],
      "name": "renounceOwnership",
      "outputs": [],
      "stateMutability": "nonpayable",
      "type": "function"
    },
    {
      "inputs": [
        {
          "internalType": "address",
          "name": "from",
          "type": "address"
        },
        {
          "internalType": "address",
          "name": "to",
          "type": "address"
        },
        {
          "internalType": "uint256",
          "name": "tokenId",
          "type": "uint256"
        }
      ],
      "name": "safeTransferFrom",
      "outputs": [],
      "stateMutability": "nonpayable",
      "type": "function"
    },
    {
      "inputs": [
        {
          "internalType": "address",
          "name": "from",
          "type": "address"
        },
        {
          "internalType": "address",
          "name": "to",
          "type": "address"
        },
        {
          "internalType": "uint256",
          "name": "tokenId",
          "type": "uint256"
        },
        {
          "internalType": "bytes",
          "name": "_data",
          "type": "bytes"
        }
      ],
      "name": "safeTransferFrom",
      "outputs": [],
      "stateMutability": "nonpayable",
      "type": "function"
    },
    {
      "inputs": [
        {
          "internalType": "address",
          "name": "operator",
          "type": "address"
        },
        {
          "internalType": "bool",
          "name": "approved",
          "type": "bool"
        }
      ],
      "name": "setApprovalForAll",
      "outputs": [],
      "stateMutability": "nonpayable",
      "type": "function"
    },
    {
      "inputs": [
        {
          "internalType": "bytes4",
          "name": "interfaceId",
          "type": "bytes4"
        }
      ],
      "name": "supportsInterface",
      "outputs": [
        {
          "internalType": "bool",
          "name": "",
          "type": "bool"
        }
      ],
      "stateMutability": "view",
      "type": "function",
      "constant": true
    },
    {
      "inputs": [],
      "name": "symbol",
      "outputs": [
        {
          "internalType": "string",
          "name": "",
          "type": "string"
        }
      ],
      "stateMutability": "view",
      "type": "function",
      "constant": true
    },
    {
      "inputs": [
        {
          "internalType": "address",
          "name": "from",
          "type": "address"
        },
        {
          "internalType": "address",
          "name": "to",
          "type": "address"
        },
        {
          "internalType": "uint256",
          "name": "tokenId",
          "type": "uint256"
        }
      ],
      "name": "transferFrom",
      "outputs": [],
      "stateMutability": "nonpayable",
      "type": "function"
    },
    {
      "inputs": [
        {
          "internalType": "address",
          "name": "newOwner",
          "type": "address"
        }
      ],
      "name": "transferOwnership",
      "outputs": [],
      "stateMutability": "nonpayable",
      "type": "function"
    },
    {
      "inputs": [
        {
          "internalType": "string",
          "name": "tokenURI_",
          "type": "string"
        }
      ],
      "name": "safeMint",
      "outputs": [],
      "stateMutability": "payable",
      "type": "function",
      "payable": true
    },
    {
      "inputs": [
        {
          "internalType": "address",
          "name": "_to",
          "type": "address"
        },
        {
          "internalType": "string",
          "name": "tokenURI_",
          "type": "string"
        }
      ],
      "name": "safeMintTo",
      "outputs": [
        {
          "internalType": "uint256",
          "name": "",
          "type": "uint256"
        }
      ],
      "stateMutability": "payable",
      "type": "function",
      "payable": true
    },
    {
      "inputs": [
        {
          "internalType": "string[]",
          "name": "tokenURI_",
          "type": "string[]"
        },
        {
          "internalType": "uint256",
          "name": "Noftokens",
          "type": "uint256"
        }
      ],
      "name": "safeMintBulk",
      "outputs": [],
      "stateMutability": "payable",
      "type": "function",
      "payable": true
    },
    {
      "inputs": [
        {
          "internalType": "string",
          "name": "tokenURI_",
          "type": "string"
        },
        {
          "internalType": "uint256",
          "name": "Noftokens",
          "type": "uint256"
        },
        {
          "internalType": "address",
          "name": "to_",
          "type": "address"
        }
      ],
      "name": "safeMintBulkTo",
      "outputs": [],
      "stateMutability": "payable",
      "type": "function",
      "payable": true
    },
    {
      "inputs": [
        {
          "internalType": "uint256",
          "name": "Noftokens",
          "type": "uint256"
        },
        {
          "internalType": "address",
          "name": "to_",
          "type": "address"
        },
        {
          "internalType": "string",
          "name": "uri1",
          "type": "string"
        },
        {
          "internalType": "string",
          "name": "uri2",
          "type": "string"
        },
        {
          "internalType": "string",
          "name": "uri3",
          "type": "string"
        },
        {
          "internalType": "string",
          "name": "uri4",
          "type": "string"
        }
      ],
      "name": "safeMintBulkRandomTo4",
      "outputs": [],
      "stateMutability": "payable",
      "type": "function",
      "payable": true
    },
    {
      "inputs": [
        {
          "internalType": "uint256",
          "name": "Noftokens",
          "type": "uint256"
        },
        {
          "internalType": "address",
          "name": "to_",
          "type": "address"
        },
        {
          "internalType": "string",
          "name": "uri1",
          "type": "string"
        },
        {
          "internalType": "string",
          "name": "uri2",
          "type": "string"
        },
        {
          "internalType": "string",
          "name": "uri3",
          "type": "string"
        },
        {
          "internalType": "string",
          "name": "uri4",
          "type": "string"
        },
        {
          "internalType": "string",
          "name": "uri5",
          "type": "string"
        },
        {
          "internalType": "string",
          "name": "uri6",
          "type": "string"
        },
        {
          "internalType": "string",
          "name": "uri7",
          "type": "string"
        },
        {
          "internalType": "string",
          "name": "uri8",
          "type": "string"
        }
      ],
      "name": "safeMintBulkRandomTo8",
      "outputs": [],
      "stateMutability": "payable",
      "type": "function",
      "payable": true
    },
    {
      "inputs": [
        {
          "internalType": "uint256",
          "name": "tokenId",
          "type": "uint256"
        }
      ],
      "name": "burn",
      "outputs": [],
      "stateMutability": "nonpayable",
      "type": "function"
    },
    {
      "inputs": [
        {
          "internalType": "uint256",
          "name": "tokenId",
          "type": "uint256"
        }
      ],
      "name": "tokenURI",
      "outputs": [
        {
          "internalType": "string",
          "name": "",
          "type": "string"
        }
      ],
      "stateMutability": "view",
      "type": "function",
      "constant": true
    },
    {
      "inputs": [],
      "name": "getCounter",
      "outputs": [
        {
          "internalType": "uint256",
          "name": "",
          "type": "uint256"
        }
      ],
      "stateMutability": "view",
      "type": "function",
      "constant": true
    },
    {
      "inputs": [],
      "name": "withdrawAll",
      "outputs": [],
      "stateMutability": "nonpayable",
      "type": "function"
    }
  ],
  "bytecode": "0x60806040526608e1bc9bf040006009553480156200001c57600080fd5b50604080518082018252600e81526d416e67656c616e6444656d6f6e7360901b60208083019182528351808501909452600384526210539160ea1b9084015281519192916200006e91600091620000fd565b50805162000084906001906020840190620000fd565b505050620000a16200009b620000a760201b60201c565b620000ab565b620001e0565b3390565b600780546001600160a01b038381166001600160a01b0319831681179093556040519116919082907f8be0079c531659141344cd1fd0a4f28419497f9722a3daafe3b4186f6b6457e090600090a35050565b8280546200010b90620001a3565b90600052602060002090601f0160209004810192826200012f57600085556200017a565b82601f106200014a57805160ff19168380011785556200017a565b828001600101855582156200017a579182015b828111156200017a5782518255916020019190600101906200015d565b50620001889291506200018c565b5090565b5b808211156200018857600081556001016200018d565b600181811c90821680620001b857607f821691505b60208210811415620001da57634e487b7160e01b600052602260045260246000fd5b50919050565b61227780620001f06000396000f3fe6080604052600436106101815760003560e01c8063715018a6116100d157806395d89b411161008a578063b88d4fde11610064578063b88d4fde14610411578063c87b56dd14610431578063e985e9c514610451578063f2fde38b1461049a57600080fd5b806395d89b41146103c9578063a22cb465146103de578063a4f57bae146103fe57600080fd5b8063715018a614610346578063853828b61461035b5780638ada066e146103705780638da5cb5b146103855780638ee507bb146103a35780638f90f1d5146103b657600080fd5b806323b872dd1161013e57806342966c681161011857806342966c68146102c55780636352211e146102e5578063695850fb1461030557806370a082311461031857600080fd5b806323b872dd1461025d5780633ad10ef61461027d57806342842e0e146102a557600080fd5b806301ffc9a71461018657806306fdde03146101bb57806307118b11146101dd578063081812fc146101f2578063095ea7b31461022a5780631611694b1461024a575b600080fd5b34801561019257600080fd5b506101a66101a1366004611944565b6104ba565b60405190151581526020015b60405180910390f35b3480156101c757600080fd5b506101d061050c565b6040516101b291906119b9565b6101f06101eb366004611aa7565b61059e565b005b3480156101fe57600080fd5b5061021261020d366004611b6d565b6105d2565b6040516001600160a01b0390911681526020016101b2565b34801561023657600080fd5b506101f0610245366004611b86565b61065f565b6101f0610258366004611bb0565b610775565b34801561026957600080fd5b506101f0610278366004611d0c565b6107d9565b34801561028957600080fd5b5061021273c5a2fc2a14d72a5d55b3972b8963a048629ea8d081565b3480156102b157600080fd5b506101f06102c0366004611d0c565b61080a565b3480156102d157600080fd5b506101f06102e0366004611b6d565b610825565b3480156102f157600080fd5b50610212610300366004611b6d565b61085b565b6101f0610313366004611d48565b6108d2565b34801561032457600080fd5b50610338610333366004611d7d565b610904565b6040519081526020016101b2565b34801561035257600080fd5b506101f061098b565b34801561036757600080fd5b506101f06109c1565b34801561037c57600080fd5b506103386109ea565b34801561039157600080fd5b506007546001600160a01b0316610212565b6103386103b1366004611d98565b6109fa565b6101f06103c4366004611de6565b610a3c565b3480156103d557600080fd5b506101d0610aac565b3480156103ea57600080fd5b506101f06103f9366004611e3d565b610abb565b6101f061040c366004611e79565b610aca565b34801561041d57600080fd5b506101f061042c366004611f42565b610b4b565b34801561043d57600080fd5b506101d061044c366004611b6d565b610b7d565b34801561045d57600080fd5b506101a661046c366004611fbe565b6001600160a01b03918216600090815260056020908152604080832093909416825291909152205460ff1690565b3480156104a657600080fd5b506101f06104b5366004611d7d565b610b88565b60006001600160e01b031982166380ac58cd60e01b14806104eb57506001600160e01b03198216635b5e139f60e01b145b8061050657506301ffc9a760e01b6001600160e01b03198316145b92915050565b60606000805461051b90611ff1565b80601f016020809104026020016040519081016040528092919081815260200182805461054790611ff1565b80156105945780601f1061056957610100808354040283529160200191610594565b820191906000526020600020905b81548152906001019060200180831161057757829003601f168201915b5050505050905090565b6105a885856109fa565b506105b385846109fa565b506105be85836109fa565b506105c985826109fa565b50505050505050565b60006105dd82610c20565b6106435760405162461bcd60e51b815260206004820152602c60248201527f4552433732313a20617070726f76656420717565727920666f72206e6f6e657860448201526b34b9ba32b73a103a37b5b2b760a11b60648201526084015b60405180910390fd5b506000908152600460205260409020546001600160a01b031690565b600061066a8261085b565b9050806001600160a01b0316836001600160a01b031614156106d85760405162461bcd60e51b815260206004820152602160248201527f4552433732313a20617070726f76616c20746f2063757272656e74206f776e656044820152603960f91b606482015260840161063a565b336001600160a01b03821614806106f457506106f4813361046c565b6107665760405162461bcd60e51b815260206004820152603860248201527f4552433732313a20617070726f76652063616c6c6572206973206e6f74206f7760448201527f6e6572206e6f7220617070726f76656420666f7220616c6c0000000000000000606482015260840161063a565b6107708383610c3d565b505050565b61077f89896109fa565b5061078a89886109fa565b5061079589876109fa565b506107a089866109fa565b506107ab89856109fa565b506107b689846109fa565b506107c189836109fa565b506107cc89826109fa565b5050505050505050505050565b6107e33382610cab565b6107ff5760405162461bcd60e51b815260040161063a9061202c565b610770838383610d95565b61077083838360405180602001604052806000815250610b4b565b6007546001600160a01b0316331461084f5760405162461bcd60e51b815260040161063a9061207d565b61085881610f35565b50565b6000818152600260205260408120546001600160a01b0316806105065760405162461bcd60e51b815260206004820152602960248201527f4552433732313a206f776e657220717565727920666f72206e6f6e657869737460448201526832b73a103a37b5b2b760b91b606482015260840161063a565b6108e4336108df60085490565b610f3e565b6108f66108f060085490565b82610f58565b610858600880546001019055565b60006001600160a01b03821661096f5760405162461bcd60e51b815260206004820152602a60248201527f4552433732313a2062616c616e636520717565727920666f7220746865207a65604482015269726f206164647265737360b01b606482015260840161063a565b506001600160a01b031660009081526003602052604090205490565b6007546001600160a01b031633146109b55760405162461bcd60e51b815260040161063a9061207d565b6109bf6000610fe3565b565b47806109cc57600080fd5b61085873c5a2fc2a14d72a5d55b3972b8963a048629ea8d082611035565b60006109f560085490565b905090565b600080610a0660085490565b9050610a15846108df60085490565b610a27610a2160085490565b84610f58565b610a35600880546001019055565b9392505050565b60fa8210610a7e5760405162461bcd60e51b815260206004820152600f60248201526e2a37b7903434b3b410373ab6b132b960891b604482015260640161063a565b60005b82811015610aa657610a9382856109fa565b5080610a9e816120c8565b915050610a81565b50505050565b60606001805461051b90611ff1565b610ac63383836110cb565b5050565b60fa8110610b0c5760405162461bcd60e51b815260206004820152600f60248201526e2a37b7903434b3b410373ab6b132b960891b604482015260640161063a565b60005b8181101561077057610b39838281518110610b2c57610b2c6120e3565b60200260200101516108d2565b80610b43816120c8565b915050610b0f565b610b553383610cab565b610b715760405162461bcd60e51b815260040161063a9061202c565b610aa68484848461119a565b6060610506826111cd565b6007546001600160a01b03163314610bb25760405162461bcd60e51b815260040161063a9061207d565b6001600160a01b038116610c175760405162461bcd60e51b815260206004820152602660248201527f4f776e61626c653a206e6577206f776e657220697320746865207a65726f206160448201526564647265737360d01b606482015260840161063a565b61085881610fe3565b6000908152600260205260409020546001600160a01b0316151590565b600081815260046020526040902080546001600160a01b0319166001600160a01b0384169081179091558190610c728261085b565b6001600160a01b03167f8c5be1e5ebec7d5bd14f71427d1e84f3dd0314c0f7b2291e5b200ac8c7c3b92560405160405180910390a45050565b6000610cb682610c20565b610d175760405162461bcd60e51b815260206004820152602c60248201527f4552433732313a206f70657261746f7220717565727920666f72206e6f6e657860448201526b34b9ba32b73a103a37b5b2b760a11b606482015260840161063a565b6000610d228361085b565b9050806001600160a01b0316846001600160a01b03161480610d5d5750836001600160a01b0316610d52846105d2565b6001600160a01b0316145b80610d8d57506001600160a01b0380821660009081526005602090815260408083209388168352929052205460ff165b949350505050565b826001600160a01b0316610da88261085b565b6001600160a01b031614610e105760405162461bcd60e51b815260206004820152602960248201527f4552433732313a207472616e73666572206f6620746f6b656e2074686174206960448201526839903737ba1037bbb760b91b606482015260840161063a565b6001600160a01b038216610e725760405162461bcd60e51b8152602060048201526024808201527f4552433732313a207472616e7366657220746f20746865207a65726f206164646044820152637265737360e01b606482015260840161063a565b610e7d600082610c3d565b6001600160a01b0383166000908152600360205260408120805460019290610ea69084906120f9565b90915550506001600160a01b0382166000908152600360205260408120805460019290610ed4908490612110565b909155505060008181526002602052604080822080546001600160a01b0319166001600160a01b0386811691821790925591518493918716917fddf252ad1be2c89b69c2b068fc378daa952ba7f163c4a11628f55a4df523b3ef91a4505050565b6108588161133c565b610ac682826040518060200160405280600081525061137c565b610f6182610c20565b610fc45760405162461bcd60e51b815260206004820152602e60248201527f45524337323155524953746f726167653a2055524920736574206f66206e6f6e60448201526d32bc34b9ba32b73a103a37b5b2b760911b606482015260840161063a565b600082815260066020908152604090912082516107709284019061185f565b600780546001600160a01b038381166001600160a01b0319831681179093556040519116919082907f8be0079c531659141344cd1fd0a4f28419497f9722a3daafe3b4186f6b6457e090600090a35050565b6000826001600160a01b03168260405160006040518083038185875af1925050503d8060008114611082576040519150601f19603f3d011682016040523d82523d6000602084013e611087565b606091505b50509050806107705760405162461bcd60e51b815260206004820152601060248201526f2a3930b739b332b9103330b4b632b21760811b604482015260640161063a565b816001600160a01b0316836001600160a01b0316141561112d5760405162461bcd60e51b815260206004820152601960248201527f4552433732313a20617070726f766520746f2063616c6c657200000000000000604482015260640161063a565b6001600160a01b03838116600081815260056020908152604080832094871680845294825291829020805460ff191686151590811790915591519182527f17307eab39ab6107e8899845ad3d59bd9653f200f220920489ca2b5937696c31910160405180910390a3505050565b6111a5848484610d95565b6111b1848484846113af565b610aa65760405162461bcd60e51b815260040161063a90612128565b60606111d882610c20565b61123e5760405162461bcd60e51b815260206004820152603160248201527f45524337323155524953746f726167653a2055524920717565727920666f72206044820152703737b732bc34b9ba32b73a103a37b5b2b760791b606482015260840161063a565b6000828152600660205260408120805461125790611ff1565b80601f016020809104026020016040519081016040528092919081815260200182805461128390611ff1565b80156112d05780601f106112a5576101008083540402835291602001916112d0565b820191906000526020600020905b8154815290600101906020018083116112b357829003601f168201915b5050505050905060006112ee60408051602081019091526000815290565b9050805160001415611301575092915050565b81511561133357808260405160200161131b92919061217a565b60405160208183030381529060405292505050919050565b610d8d846114bc565b61134581611593565b6000818152600660205260409020805461135e90611ff1565b159050610858576000818152600660205260408120610858916118e3565b611386838361162e565b61139360008484846113af565b6107705760405162461bcd60e51b815260040161063a90612128565b60006001600160a01b0384163b156114b157604051630a85bd0160e11b81526001600160a01b0385169063150b7a02906113f39033908990889088906004016121a9565b602060405180830381600087803b15801561140d57600080fd5b505af192505050801561143d575060408051601f3d908101601f1916820190925261143a918101906121e6565b60015b611497573d80801561146b576040519150601f19603f3d011682016040523d82523d6000602084013e611470565b606091505b50805161148f5760405162461bcd60e51b815260040161063a90612128565b805181602001fd5b6001600160e01b031916630a85bd0160e11b149050610d8d565b506001949350505050565b60606114c782610c20565b61152b5760405162461bcd60e51b815260206004820152602f60248201527f4552433732314d657461646174613a2055524920717565727920666f72206e6f60448201526e3732bc34b9ba32b73a103a37b5b2b760891b606482015260840161063a565b600061154260408051602081019091526000815290565b905060008151116115625760405180602001604052806000815250610a35565b8061156c84611761565b60405160200161157d92919061217a565b6040516020818303038152906040529392505050565b600061159e8261085b565b90506115ab600083610c3d565b6001600160a01b03811660009081526003602052604081208054600192906115d49084906120f9565b909155505060008281526002602052604080822080546001600160a01b0319169055518391906001600160a01b038416907fddf252ad1be2c89b69c2b068fc378daa952ba7f163c4a11628f55a4df523b3ef908390a45050565b6001600160a01b0382166116845760405162461bcd60e51b815260206004820181905260248201527f4552433732313a206d696e7420746f20746865207a65726f2061646472657373604482015260640161063a565b61168d81610c20565b156116da5760405162461bcd60e51b815260206004820152601c60248201527f4552433732313a20746f6b656e20616c7265616479206d696e74656400000000604482015260640161063a565b6001600160a01b0382166000908152600360205260408120805460019290611703908490612110565b909155505060008181526002602052604080822080546001600160a01b0319166001600160a01b03861690811790915590518392907fddf252ad1be2c89b69c2b068fc378daa952ba7f163c4a11628f55a4df523b3ef908290a45050565b6060816117855750506040805180820190915260018152600360fc1b602082015290565b8160005b81156117af5780611799816120c8565b91506117a89050600a83612219565b9150611789565b60008167ffffffffffffffff8111156117ca576117ca6119e8565b6040519080825280601f01601f1916602001820160405280156117f4576020820181803683370190505b5090505b8415610d8d576118096001836120f9565b9150611816600a8661222d565b611821906030612110565b60f81b818381518110611836576118366120e3565b60200101906001600160f81b031916908160001a905350611858600a86612219565b94506117f8565b82805461186b90611ff1565b90600052602060002090601f01602090048101928261188d57600085556118d3565b82601f106118a657805160ff19168380011785556118d3565b828001600101855582156118d3579182015b828111156118d35782518255916020019190600101906118b8565b506118df929150611919565b5090565b5080546118ef90611ff1565b6000825580601f106118ff575050565b601f01602090049060005260206000209081019061085891905b5b808211156118df576000815560010161191a565b6001600160e01b03198116811461085857600080fd5b60006020828403121561195657600080fd5b8135610a358161192e565b60005b8381101561197c578181015183820152602001611964565b83811115610aa65750506000910152565b600081518084526119a5816020860160208601611961565b601f01601f19169290920160200192915050565b602081526000610a35602083018461198d565b80356001600160a01b03811681146119e357600080fd5b919050565b634e487b7160e01b600052604160045260246000fd5b604051601f8201601f1916810167ffffffffffffffff81118282101715611a2757611a276119e8565b604052919050565b600067ffffffffffffffff831115611a4957611a496119e8565b611a5c601f8401601f19166020016119fe565b9050828152838383011115611a7057600080fd5b828260208301376000602084830101529392505050565b600082601f830112611a9857600080fd5b610a3583833560208501611a2f565b60008060008060008060c08789031215611ac057600080fd5b86359550611ad0602088016119cc565b9450604087013567ffffffffffffffff80821115611aed57600080fd5b611af98a838b01611a87565b95506060890135915080821115611b0f57600080fd5b611b1b8a838b01611a87565b94506080890135915080821115611b3157600080fd5b611b3d8a838b01611a87565b935060a0890135915080821115611b5357600080fd5b50611b6089828a01611a87565b9150509295509295509295565b600060208284031215611b7f57600080fd5b5035919050565b60008060408385031215611b9957600080fd5b611ba2836119cc565b946020939093013593505050565b6000806000806000806000806000806101408b8d031215611bd057600080fd5b8a359950611be060208c016119cc565b985060408b013567ffffffffffffffff80821115611bfd57600080fd5b611c098e838f01611a87565b995060608d0135915080821115611c1f57600080fd5b611c2b8e838f01611a87565b985060808d0135915080821115611c4157600080fd5b611c4d8e838f01611a87565b975060a08d0135915080821115611c6357600080fd5b611c6f8e838f01611a87565b965060c08d0135915080821115611c8557600080fd5b611c918e838f01611a87565b955060e08d0135915080821115611ca757600080fd5b611cb38e838f01611a87565b94506101008d0135915080821115611cca57600080fd5b611cd68e838f01611a87565b93506101208d0135915080821115611ced57600080fd5b50611cfa8d828e01611a87565b9150509295989b9194979a5092959850565b600080600060608486031215611d2157600080fd5b611d2a846119cc565b9250611d38602085016119cc565b9150604084013590509250925092565b600060208284031215611d5a57600080fd5b813567ffffffffffffffff811115611d7157600080fd5b610d8d84828501611a87565b600060208284031215611d8f57600080fd5b610a35826119cc565b60008060408385031215611dab57600080fd5b611db4836119cc565b9150602083013567ffffffffffffffff811115611dd057600080fd5b611ddc85828601611a87565b9150509250929050565b600080600060608486031215611dfb57600080fd5b833567ffffffffffffffff811115611e1257600080fd5b611e1e86828701611a87565b93505060208401359150611e34604085016119cc565b90509250925092565b60008060408385031215611e5057600080fd5b611e59836119cc565b915060208301358015158114611e6e57600080fd5b809150509250929050565b60008060408385031215611e8c57600080fd5b823567ffffffffffffffff80821115611ea457600080fd5b818501915085601f830112611eb857600080fd5b8135602082821115611ecc57611ecc6119e8565b8160051b611edb8282016119fe565b928352848101820192828101908a851115611ef557600080fd5b83870192505b84831015611f3157823586811115611f135760008081fd5b611f218c86838b0101611a87565b8352509183019190830190611efb565b9a9890920135985050505050505050565b60008060008060808587031215611f5857600080fd5b611f61856119cc565b9350611f6f602086016119cc565b925060408501359150606085013567ffffffffffffffff811115611f9257600080fd5b8501601f81018713611fa357600080fd5b611fb287823560208401611a2f565b91505092959194509250565b60008060408385031215611fd157600080fd5b611fda836119cc565b9150611fe8602084016119cc565b90509250929050565b600181811c9082168061200557607f821691505b6020821081141561202657634e487b7160e01b600052602260045260246000fd5b50919050565b60208082526031908201527f4552433732313a207472616e736665722063616c6c6572206973206e6f74206f6040820152701ddb995c881b9bdc88185c1c1c9bdd9959607a1b606082015260800190565b6020808252818101527f4f776e61626c653a2063616c6c6572206973206e6f7420746865206f776e6572604082015260600190565b634e487b7160e01b600052601160045260246000fd5b60006000198214156120dc576120dc6120b2565b5060010190565b634e487b7160e01b600052603260045260246000fd5b60008282101561210b5761210b6120b2565b500390565b60008219821115612123576121236120b2565b500190565b60208082526032908201527f4552433732313a207472616e7366657220746f206e6f6e20455243373231526560408201527131b2b4bb32b91034b6b83632b6b2b73a32b960711b606082015260800190565b6000835161218c818460208801611961565b8351908301906121a0818360208801611961565b01949350505050565b6001600160a01b03858116825284166020820152604081018390526080606082018190526000906121dc9083018461198d565b9695505050505050565b6000602082840312156121f857600080fd5b8151610a358161192e565b634e487b7160e01b600052601260045260246000fd5b60008261222857612228612203565b500490565b60008261223c5761223c612203565b50069056fea2646970667358221220f861520847f02f9e92fe984e0a2c145c292f95022cd92e8a50d466af9541988f64736f6c63430008090033",
  "immutableReferences": {},
  "source": "pragma solidity ^0.8.2;\r\n\r\nimport \"@openzeppelin/contracts/token/ERC721/ERC721.sol\";\r\nimport \"@openzeppelin/contracts/token/ERC721/extensions/ERC721URIStorage.sol\";\r\nimport \"@openzeppelin/contracts/access/Ownable.sol\";\r\nimport \"@openzeppelin/contracts/utils/Counters.sol\";\r\n\r\ncontract AngelAndDemonToken is ERC721, ERC721URIStorage, Ownable {\r\n    using Counters for Counters.Counter;\r\n\r\n    Counters.Counter private _tokenIdCounter;\r\n\t//uint256 MAX_TOKENS=10000;\r\n\tuint256 FEE=2500000000000000;\r\n\taddress public constant devAddress = 0xc5A2fC2A14D72a5d55B3972b8963a048629eA8d0;\r\n\tstring[] tokenuris;\r\n\r\n    constructor() ERC721(\"AngelandDemons\", \"AND\") {\r\n\t\t\r\n\t}\r\n\r\n    function safeMint(string memory tokenURI_) public payable {\r\n\t\t//require(isSaleActive, \"Sale is currently not active\");\r\n\t\t//require(MAX_TOKENS > _tokenIdCounter.current() + 1, \"Not enough tokens left to buy.\");\r\n\t\t//require(msg.value >= FEE , \"Amount of ether sent not correct.\");\r\n\t\t\r\n\t\t_safeMint(msg.sender, _tokenIdCounter.current());\r\n\t\t_setTokenURI(_tokenIdCounter.current(), tokenURI_);\r\n\t\t_tokenIdCounter.increment();\r\n\t}\r\n\t\r\n\tfunction safeMintTo(address _to, string memory tokenURI_) public payable returns(uint) {\r\n\t\t//require(isSaleActive, \"Sale is currently not active\");\r\n\t\t//require(MAX_TOKENS > _tokenIdCounter.current() + 1, \"Not enough tokens left to buy.\");\r\n\t\t//require(msg.value >= FEE, \"Value below price\");\r\n\t\tuint current = _tokenIdCounter.current();\r\n\r\n\t\t_safeMint(_to, _tokenIdCounter.current());\r\n\t\t_setTokenURI(_tokenIdCounter.current(), tokenURI_);\r\n\t\t_tokenIdCounter.increment();\r\n\r\n\t\treturn current;\r\n\t}\r\n\t\r\n\tfunction safeMintBulk(string[] memory tokenURI_, uint Noftokens) public payable {\r\n\t\t//require(isSaleActive, \"Sale is currently not active\");\r\n\t\t//require(MAX_TOKENS > _tokenIdCounter.current() + 1, \"Not enough tokens left to buy.\");\r\n\t\trequire(Noftokens < 250,'Too high number'); //let's try a limit of 250\r\n\t\t\r\n\t\tfor (uint i = 0; i < Noftokens; i ++) {\r\n\t\t\tsafeMint(tokenURI_[i]);\r\n\t\t}\r\n\t}\r\n\t\r\n\tfunction safeMintBulkTo(string memory tokenURI_, uint Noftokens, address to_) public payable {\r\n\t\t//require(isSaleActive, \"Sale is currently not active\");\r\n\t\t//require(MAX_TOKENS > _tokenIdCounter.current() + 1, \"Not enough tokens left to buy.\");\r\n\t\trequire(Noftokens < 250,'Too high number'); //let's try a limit of 250\r\n\t\t\r\n\t\tfor (uint i = 0; i < Noftokens; i ++) {\r\n\t\t\tsafeMintTo(to_,tokenURI_);\r\n\t\t}\r\n\t}\r\n\t\r\n\tfunction safeMintBulkRandomTo4(uint Noftokens, address to_, string memory uri1, string memory uri2, string memory uri3, string memory uri4) public payable {\r\n\t\t//require(isSaleActive, \"Sale is currently not active\");\r\n\t\t//require(MAX_TOKENS > _tokenIdCounter.current() + 1, \"Not enough tokens left to buy.\");\r\n\t\t//require (Noftokens < 250,'Too high number'); //let's try a limit of 250\r\n\t\t\t\t\t\t\r\n\t\tsafeMintTo(to_,uri1);\r\n\t\tsafeMintTo(to_,uri2);\r\n\t\tsafeMintTo(to_,uri3);\r\n\t\tsafeMintTo(to_,uri4);\r\n\t}\r\n\t\r\n\tfunction safeMintBulkRandomTo8(uint Noftokens, address to_, string memory uri1, string memory uri2, string memory uri3, string memory uri4,string memory uri5, string memory uri6, string memory uri7, string memory uri8) public payable {\r\n\t\t//require(isSaleActive, \"Sale is currently not active\");\r\n\t\t//require(MAX_TOKENS > _tokenIdCounter.current() + 1, \"Not enough tokens left to buy.\");\r\n\t\t//require (Noftokens < 250,'Too high number'); //let's try a limit of 250\r\n\t\t\t\t\t\t\r\n\t\tsafeMintTo(to_,uri1);\r\n\t\tsafeMintTo(to_,uri2);\r\n\t\tsafeMintTo(to_,uri3);\r\n\t\tsafeMintTo(to_,uri4);\r\n\t\tsafeMintTo(to_,uri5);\r\n\t\tsafeMintTo(to_,uri6);\r\n\t\tsafeMintTo(to_,uri7);\r\n\t\tsafeMintTo(to_,uri8);\r\n\t}\r\n\t\r\n\r\n    // The following functions are overrides required by Solidity.\r\n\r\n    function _burn(uint256 tokenId) internal override(ERC721, ERC721URIStorage) {\r\n        super._burn(tokenId);\r\n    }\r\n\t\r\n\tfunction burn(uint256 tokenId) public onlyOwner{\r\n        _burn(tokenId);\r\n    }\r\n\r\n    function tokenURI(uint256 tokenId)\r\n        public\r\n        view\r\n        override(ERC721, ERC721URIStorage)\r\n        returns (string memory)\r\n    {\r\n        return super.tokenURI(tokenId);\r\n    }\r\n\t\r\n\t//Return current counter value\r\n\tfunction getCounter()\r\n        public\r\n        view\r\n        returns (uint256)\r\n    {\r\n        return _tokenIdCounter.current();\r\n    }\r\n\t\r\n\tfunction withdrawAll() public {\r\n        uint256 balance = address(this).balance;\r\n        require(balance > 0);\r\n        _widthdraw(devAddress, balance);\r\n    }\r\n\t\r\n\tfunction _widthdraw(address _address, uint256 _amount) private {\r\n        (bool success, ) = _address.call{value: _amount}(\"\");\r\n        require(success, \"Transfer failed.\");\r\n    }\r\n\t\r\n\t// function setTokenURI(uint256 tokenId, string memory _tokenURI) public {\r\n    //     require(\r\n    //         _isApprovedOrOwner(_msgSender(), tokenId),\r\n    //         \"ERC721: transfer caller is not owner nor approved\"\r\n    //     );\r\n    //     _setTokenURI(tokenId, _tokenURI);\r\n    // }\r\n}",
  "sourcePath": "D:\\JCJ\\Solidity\\calm_card_game\\contracts\\AngelAndDemonToken.sol",
  "compiler": {
    "name": "solc",
    "version": "0.8.9+commit.e5eed63a.Emscripten.clang"
  },
  "schemaVersion": "3.4.3",
  "updatedAt": "2022-02-15T08:04:30.702Z",
  "networkType": "ethereum",
  "devdoc": {
    "kind": "dev",
    "methods": {
      "approve(address,uint256)": {
        "details": "See {IERC721-approve}."
      },
      "balanceOf(address)": {
        "details": "See {IERC721-balanceOf}."
      },
      "getApproved(uint256)": {
        "details": "See {IERC721-getApproved}."
      },
      "isApprovedForAll(address,address)": {
        "details": "See {IERC721-isApprovedForAll}."
      },
      "name()": {
        "details": "See {IERC721Metadata-name}."
      },
      "owner()": {
        "details": "Returns the address of the current owner."
      },
      "ownerOf(uint256)": {
        "details": "See {IERC721-ownerOf}."
      },
      "renounceOwnership()": {
        "details": "Leaves the contract without owner. It will not be possible to call `onlyOwner` functions anymore. Can only be called by the current owner. NOTE: Renouncing ownership will leave the contract without an owner, thereby removing any functionality that is only available to the owner."
      },
      "safeTransferFrom(address,address,uint256)": {
        "details": "See {IERC721-safeTransferFrom}."
      },
      "safeTransferFrom(address,address,uint256,bytes)": {
        "details": "See {IERC721-safeTransferFrom}."
      },
      "setApprovalForAll(address,bool)": {
        "details": "See {IERC721-setApprovalForAll}."
      },
      "supportsInterface(bytes4)": {
        "details": "See {IERC165-supportsInterface}."
      },
      "symbol()": {
        "details": "See {IERC721Metadata-symbol}."
      },
      "transferFrom(address,address,uint256)": {
        "details": "See {IERC721-transferFrom}."
      },
      "transferOwnership(address)": {
        "details": "Transfers ownership of the contract to a new account (`newOwner`). Can only be called by the current owner."
      }
    },
    "version": 1
  },
  "userdoc": {
    "kind": "user",
    "methods": {},
    "version": 1
  }
}